{
  "_format": "hh-sol-artifact-1",
  "contractName": "BulkDisbursableNFTs",
  "sourceName": "src/BulkDisbursableNFTs.sol",
  "abi": [
    {
      "inputs": [],
      "stateMutability": "nonpayable",
      "type": "constructor"
    },
    {
      "anonymous": false,
      "inputs": [
        {
          "indexed": false,
          "internalType": "address",
          "name": "previousAdmin",
          "type": "address"
        },
        {
          "indexed": false,
          "internalType": "address",
          "name": "newAdmin",
          "type": "address"
        }
      ],
      "name": "AdminChanged",
      "type": "event"
    },
    {
      "anonymous": false,
      "inputs": [
        {
          "indexed": true,
          "internalType": "address",
          "name": "account",
          "type": "address"
        },
        {
          "indexed": true,
          "internalType": "address",
          "name": "operator",
          "type": "address"
        },
        {
          "indexed": false,
          "internalType": "bool",
          "name": "approved",
          "type": "bool"
        }
      ],
      "name": "ApprovalForAll",
      "type": "event"
    },
    {
      "anonymous": false,
      "inputs": [
        {
          "indexed": true,
          "internalType": "address",
          "name": "beacon",
          "type": "address"
        }
      ],
      "name": "BeaconUpgraded",
      "type": "event"
    },
    {
      "anonymous": false,
      "inputs": [
        {
          "indexed": false,
          "internalType": "uint256",
          "name": "id",
          "type": "uint256"
        },
        {
          "indexed": false,
          "internalType": "address",
          "name": "controller",
          "type": "address"
        }
      ],
      "name": "Created",
      "type": "event"
    },
    {
      "anonymous": false,
      "inputs": [
        {
          "indexed": false,
          "internalType": "uint8",
          "name": "version",
          "type": "uint8"
        }
      ],
      "name": "Initialized",
      "type": "event"
    },
    {
      "anonymous": false,
      "inputs": [
        {
          "indexed": true,
          "internalType": "address",
          "name": "previousOwner",
          "type": "address"
        },
        {
          "indexed": true,
          "internalType": "address",
          "name": "newOwner",
          "type": "address"
        }
      ],
      "name": "OwnershipTransferred",
      "type": "event"
    },
    {
      "anonymous": false,
      "inputs": [
        {
          "indexed": true,
          "internalType": "address",
          "name": "operator",
          "type": "address"
        },
        {
          "indexed": true,
          "internalType": "address",
          "name": "from",
          "type": "address"
        },
        {
          "indexed": true,
          "internalType": "address",
          "name": "to",
          "type": "address"
        },
        {
          "indexed": false,
          "internalType": "uint256[]",
          "name": "ids",
          "type": "uint256[]"
        },
        {
          "indexed": false,
          "internalType": "uint256[]",
          "name": "values",
          "type": "uint256[]"
        }
      ],
      "name": "TransferBatch",
      "type": "event"
    },
    {
      "anonymous": false,
      "inputs": [
        {
          "indexed": true,
          "internalType": "address",
          "name": "operator",
          "type": "address"
        },
        {
          "indexed": true,
          "internalType": "address",
          "name": "from",
          "type": "address"
        },
        {
          "indexed": true,
          "internalType": "address",
          "name": "to",
          "type": "address"
        },
        {
          "indexed": false,
          "internalType": "uint256",
          "name": "id",
          "type": "uint256"
        },
        {
          "indexed": false,
          "internalType": "uint256",
          "name": "value",
          "type": "uint256"
        }
      ],
      "name": "TransferSingle",
      "type": "event"
    },
    {
      "anonymous": false,
      "inputs": [
        {
          "indexed": false,
          "internalType": "string",
          "name": "value",
          "type": "string"
        },
        {
          "indexed": true,
          "internalType": "uint256",
          "name": "id",
          "type": "uint256"
        }
      ],
      "name": "URI",
      "type": "event"
    },
    {
      "anonymous": false,
      "inputs": [
        {
          "indexed": true,
          "internalType": "address",
          "name": "implementation",
          "type": "address"
        }
      ],
      "name": "Upgraded",
      "type": "event"
    },
    {
      "inputs": [
        {
          "internalType": "address",
          "name": "account",
          "type": "address"
        },
        {
          "internalType": "uint256",
          "name": "id",
          "type": "uint256"
        }
      ],
      "name": "balanceOf",
      "outputs": [
        {
          "internalType": "uint256",
          "name": "",
          "type": "uint256"
        }
      ],
      "stateMutability": "view",
      "type": "function"
    },
    {
      "inputs": [
        {
          "internalType": "address[]",
          "name": "accounts",
          "type": "address[]"
        },
        {
          "internalType": "uint256[]",
          "name": "ids",
          "type": "uint256[]"
        }
      ],
      "name": "balanceOfBatch",
      "outputs": [
        {
          "internalType": "uint256[]",
          "name": "",
          "type": "uint256[]"
        }
      ],
      "stateMutability": "view",
      "type": "function"
    },
    {
      "inputs": [
        {
          "internalType": "address",
          "name": "owner",
          "type": "address"
        },
        {
          "internalType": "uint256",
          "name": "id",
          "type": "uint256"
        },
        {
          "internalType": "uint256",
          "name": "quantity",
          "type": "uint256"
        }
      ],
      "name": "burn",
      "outputs": [],
      "stateMutability": "nonpayable",
      "type": "function"
    },
    {
      "inputs": [
        {
          "internalType": "address",
          "name": "account",
          "type": "address"
        },
        {
          "internalType": "uint256[]",
          "name": "ids",
          "type": "uint256[]"
        },
        {
          "internalType": "uint256[]",
          "name": "values",
          "type": "uint256[]"
        }
      ],
      "name": "burnBatch",
      "outputs": [],
      "stateMutability": "nonpayable",
      "type": "function"
    },
    {
      "inputs": [
        {
          "internalType": "enum Roles.Role[]",
          "name": "grants",
          "type": "uint8[]"
        },
        {
          "internalType": "enum Roles.Role[]",
          "name": "disables",
          "type": "uint8[]"
        }
      ],
      "name": "create",
      "outputs": [
        {
          "internalType": "uint256",
          "name": "id",
          "type": "uint256"
        }
      ],
      "stateMutability": "nonpayable",
      "type": "function"
    },
    {
      "inputs": [
        {
          "internalType": "address",
          "name": "maintainer",
          "type": "address"
        },
        {
          "internalType": "enum Roles.Role[]",
          "name": "grants",
          "type": "uint8[]"
        },
        {
          "internalType": "enum Roles.Role[]",
          "name": "disables",
          "type": "uint8[]"
        }
      ],
      "name": "create",
      "outputs": [
        {
          "internalType": "uint256",
          "name": "id",
          "type": "uint256"
        }
      ],
      "stateMutability": "nonpayable",
      "type": "function"
    },
    {
      "inputs": [],
      "name": "create",
      "outputs": [
        {
          "internalType": "uint256",
          "name": "id",
          "type": "uint256"
        }
      ],
      "stateMutability": "nonpayable",
      "type": "function"
    },
    {
      "inputs": [
        {
          "internalType": "enum Roles.Role",
          "name": "toDisable",
          "type": "uint8"
        },
        {
          "internalType": "uint256",
          "name": "disablingIndex",
          "type": "uint256"
        }
      ],
      "name": "disableRole",
      "outputs": [],
      "stateMutability": "nonpayable",
      "type": "function"
    },
    {
      "inputs": [
        {
          "internalType": "uint256",
          "name": "id",
          "type": "uint256"
        }
      ],
      "name": "exists",
      "outputs": [
        {
          "internalType": "bool",
          "name": "",
          "type": "bool"
        }
      ],
      "stateMutability": "view",
      "type": "function"
    },
    {
      "inputs": [
        {
          "internalType": "enum Roles.Role",
          "name": "role",
          "type": "uint8"
        },
        {
          "internalType": "address",
          "name": "user",
          "type": "address"
        },
        {
          "internalType": "uint256",
          "name": "index",
          "type": "uint256"
        }
      ],
      "name": "gateToken",
      "outputs": [
        {
          "internalType": "uint256",
          "name": "id",
          "type": "uint256"
        }
      ],
      "stateMutability": "view",
      "type": "function"
    },
    {
      "inputs": [
        {
          "internalType": "uint256",
          "name": "id",
          "type": "uint256"
        }
      ],
      "name": "getMax",
      "outputs": [
        {
          "internalType": "int64",
          "name": "max",
          "type": "int64"
        }
      ],
      "stateMutability": "view",
      "type": "function"
    },
    {
      "inputs": [
        {
          "internalType": "uint256",
          "name": "id",
          "type": "uint256"
        }
      ],
      "name": "getPerUserMax",
      "outputs": [
        {
          "internalType": "int256",
          "name": "max",
          "type": "int256"
        }
      ],
      "stateMutability": "view",
      "type": "function"
    },
    {
      "inputs": [
        {
          "internalType": "enum Roles.Role",
          "name": "role",
          "type": "uint8"
        },
        {
          "internalType": "address",
          "name": "user",
          "type": "address"
        },
        {
          "internalType": "uint256",
          "name": "id",
          "type": "uint256"
        },
        {
          "internalType": "bool",
          "name": "singleUse",
          "type": "bool"
        }
      ],
      "name": "grantRole",
      "outputs": [],
      "stateMutability": "nonpayable",
      "type": "function"
    },
    {
      "inputs": [
        {
          "internalType": "enum Roles.Role",
          "name": "role",
          "type": "uint8"
        },
        {
          "internalType": "address",
          "name": "user",
          "type": "address"
        }
      ],
      "name": "grantRole",
      "outputs": [],
      "stateMutability": "nonpayable",
      "type": "function"
    },
    {
      "inputs": [
        {
          "internalType": "enum Roles.Role",
          "name": "role",
          "type": "uint8"
        },
        {
          "internalType": "address",
          "name": "user",
          "type": "address"
        },
        {
          "internalType": "bool",
          "name": "singleUse",
          "type": "bool"
        }
      ],
      "name": "grantRole",
      "outputs": [],
      "stateMutability": "nonpayable",
      "type": "function"
    },
    {
      "inputs": [
        {
          "internalType": "enum Roles.Role",
          "name": "role",
          "type": "uint8"
        },
        {
          "internalType": "address",
          "name": "user",
          "type": "address"
        },
        {
          "internalType": "uint256",
          "name": "id",
          "type": "uint256"
        }
      ],
      "name": "grantRole",
      "outputs": [],
      "stateMutability": "nonpayable",
      "type": "function"
    },
    {
      "inputs": [
        {
          "internalType": "enum Roles.Role",
          "name": "role",
          "type": "uint8"
        }
      ],
      "name": "hasRole",
      "outputs": [
        {
          "internalType": "bool",
          "name": "has",
          "type": "bool"
        }
      ],
      "stateMutability": "view",
      "type": "function"
    },
    {
      "inputs": [
        {
          "internalType": "enum Roles.Role",
          "name": "role",
          "type": "uint8"
        },
        {
          "internalType": "address",
          "name": "user",
          "type": "address"
        },
        {
          "internalType": "uint256",
          "name": "id",
          "type": "uint256"
        }
      ],
      "name": "hasRole",
      "outputs": [
        {
          "internalType": "bool",
          "name": "has",
          "type": "bool"
        }
      ],
      "stateMutability": "view",
      "type": "function"
    },
    {
      "inputs": [
        {
          "internalType": "enum Roles.Role",
          "name": "role",
          "type": "uint8"
        },
        {
          "internalType": "uint256",
          "name": "id",
          "type": "uint256"
        }
      ],
      "name": "hasRole",
      "outputs": [
        {
          "internalType": "bool",
          "name": "has",
          "type": "bool"
        }
      ],
      "stateMutability": "view",
      "type": "function"
    },
    {
      "inputs": [
        {
          "internalType": "enum Roles.Role",
          "name": "role",
          "type": "uint8"
        },
        {
          "internalType": "address",
          "name": "user",
          "type": "address"
        }
      ],
      "name": "hasRole",
      "outputs": [
        {
          "internalType": "bool",
          "name": "has",
          "type": "bool"
        }
      ],
      "stateMutability": "view",
      "type": "function"
    },
    {
      "inputs": [
        {
          "internalType": "string",
          "name": "_name",
          "type": "string"
        },
        {
          "internalType": "string",
          "name": "_symbol",
          "type": "string"
        }
      ],
      "name": "initialize",
      "outputs": [],
      "stateMutability": "nonpayable",
      "type": "function"
    },
    {
      "inputs": [
        {
          "internalType": "uint256",
          "name": "",
          "type": "uint256"
        }
      ],
      "name": "intValues",
      "outputs": [
        {
          "internalType": "int256",
          "name": "",
          "type": "int256"
        }
      ],
      "stateMutability": "view",
      "type": "function"
    },
    {
      "inputs": [
        {
          "internalType": "address",
          "name": "account",
          "type": "address"
        },
        {
          "internalType": "address",
          "name": "operator",
          "type": "address"
        }
      ],
      "name": "isApprovedForAll",
      "outputs": [
        {
          "internalType": "bool",
          "name": "",
          "type": "bool"
        }
      ],
      "stateMutability": "view",
      "type": "function"
    },
    {
      "inputs": [
        {
          "internalType": "address",
          "name": "user",
          "type": "address"
        }
      ],
      "name": "isSuper",
      "outputs": [
        {
          "internalType": "bool",
          "name": "superuser",
          "type": "bool"
        }
      ],
      "stateMutability": "view",
      "type": "function"
    },
    {
      "inputs": [],
      "name": "isSuper",
      "outputs": [
        {
          "internalType": "bool",
          "name": "superuser",
          "type": "bool"
        }
      ],
      "stateMutability": "view",
      "type": "function"
    },
    {
      "inputs": [
        {
          "internalType": "address[]",
          "name": "to",
          "type": "address[]"
        },
        {
          "internalType": "uint256",
          "name": "id",
          "type": "uint256"
        },
        {
          "internalType": "bytes",
          "name": "data",
          "type": "bytes"
        }
      ],
      "name": "mint",
      "outputs": [],
      "stateMutability": "nonpayable",
      "type": "function"
    },
    {
      "inputs": [
        {
          "internalType": "address",
          "name": "recipient",
          "type": "address"
        },
        {
          "internalType": "uint256",
          "name": "id",
          "type": "uint256"
        },
        {
          "internalType": "uint256",
          "name": "amount",
          "type": "uint256"
        },
        {
          "internalType": "bytes",
          "name": "data",
          "type": "bytes"
        }
      ],
      "name": "mint",
      "outputs": [
        {
          "internalType": "bool",
          "name": "minted",
          "type": "bool"
        }
      ],
      "stateMutability": "nonpayable",
      "type": "function"
    },
    {
      "inputs": [],
      "name": "name",
      "outputs": [
        {
          "internalType": "string",
          "name": "",
          "type": "string"
        }
      ],
      "stateMutability": "view",
      "type": "function"
    },
    {
      "inputs": [],
      "name": "owner",
      "outputs": [
        {
          "internalType": "address",
          "name": "",
          "type": "address"
        }
      ],
      "stateMutability": "view",
      "type": "function"
    },
    {
      "inputs": [],
      "name": "proxiableUUID",
      "outputs": [
        {
          "internalType": "bytes32",
          "name": "",
          "type": "bytes32"
        }
      ],
      "stateMutability": "view",
      "type": "function"
    },
    {
      "inputs": [],
      "name": "renounceOwnership",
      "outputs": [],
      "stateMutability": "nonpayable",
      "type": "function"
    },
    {
      "inputs": [
        {
          "internalType": "enum Roles.Role",
          "name": "role",
          "type": "uint8"
        }
      ],
      "name": "roleToken",
      "outputs": [
        {
          "internalType": "uint256",
          "name": "id",
          "type": "uint256"
        }
      ],
      "stateMutability": "view",
      "type": "function"
    },
    {
      "inputs": [
        {
          "internalType": "enum Roles.Role",
          "name": "role",
          "type": "uint8"
        },
        {
          "internalType": "uint256",
          "name": "index",
          "type": "uint256"
        }
      ],
      "name": "roleToken",
      "outputs": [
        {
          "internalType": "uint256",
          "name": "id",
          "type": "uint256"
        }
      ],
      "stateMutability": "view",
      "type": "function"
    },
    {
      "inputs": [
        {
          "internalType": "address",
          "name": "from",
          "type": "address"
        },
        {
          "internalType": "address",
          "name": "to",
          "type": "address"
        },
        {
          "internalType": "uint256[]",
          "name": "ids",
          "type": "uint256[]"
        },
        {
          "internalType": "uint256[]",
          "name": "amounts",
          "type": "uint256[]"
        },
        {
          "internalType": "bytes",
          "name": "data",
          "type": "bytes"
        }
      ],
      "name": "safeBatchTransferFrom",
      "outputs": [],
      "stateMutability": "nonpayable",
      "type": "function"
    },
    {
      "inputs": [
        {
          "internalType": "address",
          "name": "from",
          "type": "address"
        },
        {
          "internalType": "address",
          "name": "to",
          "type": "address"
        },
        {
          "internalType": "uint256",
          "name": "id",
          "type": "uint256"
        },
        {
          "internalType": "uint256",
          "name": "amount",
          "type": "uint256"
        },
        {
          "internalType": "bytes",
          "name": "data",
          "type": "bytes"
        }
      ],
      "name": "safeTransferFrom",
      "outputs": [],
      "stateMutability": "nonpayable",
      "type": "function"
    },
    {
      "inputs": [
        {
          "internalType": "address",
          "name": "operator",
          "type": "address"
        },
        {
          "internalType": "bool",
          "name": "approved",
          "type": "bool"
        }
      ],
      "name": "setApprovalForAll",
      "outputs": [],
      "stateMutability": "nonpayable",
      "type": "function"
    },
    {
      "inputs": [
        {
          "internalType": "string",
          "name": "_name",
          "type": "string"
        },
        {
          "internalType": "string",
          "name": "_symbol",
          "type": "string"
        }
      ],
      "name": "setDescription",
      "outputs": [],
      "stateMutability": "nonpayable",
      "type": "function"
    },
    {
      "inputs": [
        {
          "internalType": "uint256",
          "name": "id",
          "type": "uint256"
        },
        {
          "internalType": "int64",
          "name": "max",
          "type": "int64"
        }
      ],
      "name": "setMax",
      "outputs": [],
      "stateMutability": "nonpayable",
      "type": "function"
    },
    {
      "inputs": [
        {
          "internalType": "uint256",
          "name": "id",
          "type": "uint256"
        },
        {
          "internalType": "int64",
          "name": "max",
          "type": "int64"
        }
      ],
      "name": "setPerUserMax",
      "outputs": [],
      "stateMutability": "nonpayable",
      "type": "function"
    },
    {
      "inputs": [
        {
          "internalType": "uint256",
          "name": "id",
          "type": "uint256"
        },
        {
          "internalType": "string",
          "name": "newURI",
          "type": "string"
        }
      ],
      "name": "setURI",
      "outputs": [],
      "stateMutability": "nonpayable",
      "type": "function"
    },
    {
      "inputs": [
        {
          "internalType": "bytes4",
          "name": "interfaceId",
          "type": "bytes4"
        }
      ],
      "name": "supportsInterface",
      "outputs": [
        {
          "internalType": "bool",
          "name": "",
          "type": "bool"
        }
      ],
      "stateMutability": "view",
      "type": "function"
    },
    {
      "inputs": [],
      "name": "symbol",
      "outputs": [
        {
          "internalType": "string",
          "name": "",
          "type": "string"
        }
      ],
      "stateMutability": "view",
      "type": "function"
    },
    {
      "inputs": [
        {
          "internalType": "uint256",
          "name": "index",
          "type": "uint256"
        }
      ],
      "name": "tokenByIndex",
      "outputs": [
        {
          "internalType": "uint256",
          "name": "id",
          "type": "uint256"
        }
      ],
      "stateMutability": "view",
      "type": "function"
    },
    {
      "inputs": [
        {
          "internalType": "uint256",
          "name": "id",
          "type": "uint256"
        }
      ],
      "name": "tokenIndex",
      "outputs": [
        {
          "internalType": "uint256",
          "name": "index",
          "type": "uint256"
        }
      ],
      "stateMutability": "view",
      "type": "function"
    },
    {
      "inputs": [
        {
          "internalType": "address",
          "name": "owner",
          "type": "address"
        },
        {
          "internalType": "uint256",
          "name": "index",
          "type": "uint256"
        }
      ],
      "name": "tokenOfOwnerByIndex",
      "outputs": [
        {
          "internalType": "uint256",
          "name": "id",
          "type": "uint256"
        }
      ],
      "stateMutability": "view",
      "type": "function"
    },
    {
      "inputs": [
        {
          "internalType": "uint256",
          "name": "id",
          "type": "uint256"
        }
      ],
      "name": "totalSupply",
      "outputs": [
        {
          "internalType": "uint256",
          "name": "",
          "type": "uint256"
        }
      ],
      "stateMutability": "view",
      "type": "function"
    },
    {
      "inputs": [
        {
          "internalType": "address",
          "name": "newOwner",
          "type": "address"
        }
      ],
      "name": "transferOwnership",
      "outputs": [],
      "stateMutability": "nonpayable",
      "type": "function"
    },
    {
      "inputs": [],
      "name": "typeSupply",
      "outputs": [
        {
          "internalType": "uint256",
          "name": "count",
          "type": "uint256"
        }
      ],
      "stateMutability": "view",
      "type": "function"
    },
    {
      "inputs": [
        {
          "internalType": "uint256",
          "name": "",
          "type": "uint256"
        }
      ],
      "name": "uintValues",
      "outputs": [
        {
          "internalType": "uint256",
          "name": "",
          "type": "uint256"
        }
      ],
      "stateMutability": "view",
      "type": "function"
    },
    {
      "inputs": [
        {
          "internalType": "address",
          "name": "newImplementation",
          "type": "address"
        }
      ],
      "name": "upgradeTo",
      "outputs": [],
      "stateMutability": "nonpayable",
      "type": "function"
    },
    {
      "inputs": [
        {
          "internalType": "address",
          "name": "newImplementation",
          "type": "address"
        },
        {
          "internalType": "bytes",
          "name": "data",
          "type": "bytes"
        }
      ],
      "name": "upgradeToAndCall",
      "outputs": [],
      "stateMutability": "payable",
      "type": "function"
    },
    {
      "inputs": [
        {
          "internalType": "uint256",
          "name": "id",
          "type": "uint256"
        }
      ],
      "name": "uri",
      "outputs": [
        {
          "internalType": "string",
          "name": "metadata",
          "type": "string"
        }
      ],
      "stateMutability": "view",
      "type": "function"
    }
  ],
  "bytecode": "0x60a06040523060601b6080523480156200001857600080fd5b50600054610100900460ff16158080156200003a5750600054600160ff909116105b806200006a575062000057306200014460201b6200242f1760201c565b1580156200006a575060005460ff166001145b620000d25760405162461bcd60e51b815260206004820152602e60248201527f496e697469616c697a61626c653a20636f6e747261637420697320616c72656160448201526d191e481a5b9a5d1a585b1a5e995960921b606482015260840160405180910390fd5b6000805460ff191660011790558015620000f6576000805461ff0019166101001790555b80156200013d576000805461ff0019169055604051600181527f7f26b83ff96e1f2b6a682f133852f6798a09c465da95921460cefb38474024989060200160405180910390a15b5062000153565b6001600160a01b03163b151590565b60805160601c6157366200018e600039600081816113b2015281816113f201528181611932015281816119720152611ab901526157366000f3fe60806040526004361061024e5760003560e01c8062fdd58e1461025357806301ffc9a7146102865780630583e9f8146102b657806306fdde03146102d65780630e89341c146102f85780630ec0370f146103185780631130d4a11461033a57806311ef04c41461035a57806314c464271461037a57806316730ab01461039a57806319e0755c146103ba5780632eb2c2d6146103da5780632f745c59146103fa5780633659cfe61461041a5780633dbe35de1461043a5780634468031f1461045a578063482895891461047a5780634a80070f1461049a5780634cd88b76146104ba5780634e1273f4146104da5780634f1ef286146105075780634f558e791461051a5780634f6ccce71461053a57806352d1902d1461055a578063573b9d311461056f5780635d5664e11461058f5780636755d456146105af5780636b20c454146105cf578063715018a6146105ef578063731133e9146106045780637b59c72a14610624578063862440e2146106445780638da5cb5b1461066457806395d89b41146106915780639d969a9c146106a65780639e97b8f6146106bb578063a22cb465146106db578063aa8e9066146106fb578063b0bdf2611461071b578063b383489a1461073b578063bd85b03914610769578063c3c8df9914610789578063c4096525146107a9578063d945e78b146107c9578063e688f89d146107f7578063e985e9c51461082a578063edc79bac14610873578063efc81a8c14610888578063f242432a1461089d578063f2fde38b146108bd578063f5298aca146108dd578063fde4047a146108fd575b600080fd5b34801561025f57600080fd5b5061027361026e366004614929565b61091d565b6040519081526020015b60405180910390f35b34801561029257600080fd5b506102a66102a1366004614b05565b6109b8565b604051901515815260200161027d565b3480156102c257600080fd5b506102736102d1366004614cbe565b610a08565b3480156102e257600080fd5b506102eb610a76565b60405161027d9190614f65565b34801561030457600080fd5b506102eb610313366004614cbe565b610b05565b34801561032457600080fd5b50610338610333366004614a38565b610e24565b005b34801561034657600080fd5b50610338610355366004614cd6565b610e7b565b34801561036657600080fd5b50610338610375366004614cd6565b610ec0565b34801561038657600080fd5b50610273610395366004614b3d565b610ed0565b3480156103a657600080fd5b506102736103b5366004614bb4565b610edd565b3480156103c657600080fd5b506102a66103d5366004614b3d565b6112cb565b3480156103e657600080fd5b506103386103f53660046146d8565b6112d7565b34801561040657600080fd5b50610273610415366004614929565b611323565b34801561042657600080fd5b5061033861043536600461468c565b6113a7565b34801561044657600080fd5b50610273610455366004614c3b565b611470565b34801561046657600080fd5b506102a6610475366004614bb4565b6115e7565b34801561048657600080fd5b506102a6610495366004614c3b565b61160e565b3480156104a657600080fd5b506102736104b5366004614a97565b61161b565b3480156104c657600080fd5b506103386104d5366004614c56565b611628565b3480156104e657600080fd5b506104fa6104f53660046149e2565b6117c6565b60405161027d9190614efe565b6103386105153660046148de565b611927565b34801561052657600080fd5b506102a6610535366004614cbe565b6119dd565b34801561054657600080fd5b50610273610555366004614cbe565b6119f0565b34801561056657600080fd5b50610273611aac565b34801561057b57600080fd5b5061033861058a366004614bef565b611b5b565b34801561059b57600080fd5b506103386105aa366004614b57565b611b7f565b3480156105bb57600080fd5b506103386105ca366004614c56565b611b8c565b3480156105db57600080fd5b506103386105ea36600461484f565b611baf565b3480156105fb57600080fd5b50610338611bf7565b34801561061057600080fd5b506102a661061f366004614984565b611c0b565b34801561063057600080fd5b5061033861063f366004614b72565b611e13565b34801561065057600080fd5b5061033861065f366004614d0a565b611e20565b34801561067057600080fd5b50610679611efc565b6040516001600160a01b03909116815260200161027d565b34801561069d57600080fd5b506102eb611f0b565b3480156106b257600080fd5b50610273611f19565b3480156106c757600080fd5b506102a66106d6366004614b57565b611f31565b3480156106e757600080fd5b506103386106f63660046148b5565b611f3f565b34801561070757600080fd5b50610338610716366004614bb4565b611f4a565b34801561072757600080fd5b506102736107363660046147df565b611f57565b34801561074757600080fd5b50610273610756366004614cbe565b6101976020526000908152604090205481565b34801561077557600080fd5b50610273610784366004614cbe565b6121b7565b34801561079557600080fd5b506102a66107a436600461468c565b6121c9565b3480156107b557600080fd5b506102736107c4366004614cbe565b6121fe565b3480156107d557600080fd5b506102736107e4366004614cbe565b6101986020526000908152604090205481565b34801561080357600080fd5b50610817610812366004614cbe565b61223f565b60405160079190910b815260200161027d565b34801561083657600080fd5b506102a66108453660046146a6565b6001600160a01b03918216600090815260666020908152604080832093909416825291909152205460ff1690565b34801561087f57600080fd5b506102a6612253565b34801561089457600080fd5b5061027361225e565b3480156108a957600080fd5b506103386108b836600461477d565b61227f565b3480156108c957600080fd5b506103386108d836600461468c565b6122c4565b3480156108e957600080fd5b506103386108f8366004614952565b61233a565b34801561090957600080fd5b50610338610918366004614c3b565b6123c4565b60006001600160a01b03831661098d5760405162461bcd60e51b815260206004820152602a60248201527f455243313135353a2061646472657373207a65726f206973206e6f742061207660448201526930b634b21037bbb732b960b11b60648201526084015b60405180910390fd5b5060008181526065602090815260408083206001600160a01b03861684529091529020545b92915050565b60006001600160e01b03198216636cdb3d1360e11b14806109e957506001600160e01b031982166303a24d0760e21b145b806109b257506301ffc9a760e01b6001600160e01b03198316146109b2565b6000818152610195602052604090205480610a715760405162461bcd60e51b815260206004820152602360248201527f5468652072657175657374656420746f6b656e20646f6573206e6f742065786960448201526239ba1760e91b6064820152608401610984565b919050565b6101918054610a8490615491565b80601f0160208091040260200160405190810160405280929190818152602001828054610ab090615491565b8015610afd5780601f10610ad257610100808354040283529160200191610afd565b820191906000526020600020905b815481529060010190602001808311610ae057829003601f168201915b505050505081565b600081815261019360205260409020805460609190610b2390615491565b80601f0160208091040260200160405190810160405280929190818152602001828054610b4f90615491565b8015610b9c5780601f10610b7157610100808354040283529160200191610b9c565b820191906000526020600020905b815481529060010190602001808311610b7f57829003601f168201915b50505050509050805160001415610a715760006008610bbe600d610100615408565b610bc89190615442565b60ff166001610bd96008600261535d565b610be3919061542b565b901b831690506008610bf8600d610100615408565b610c029190615442565b60ff166001901b811480610c5757506008610c20600d610100615408565b610c2a9190615442565b600a60ff919091161b6008610c42600d610100615408565b610c4c9190615442565b60ff166001901b1781145b15610e1e5760006008610c6d600d610100615408565b610c779190615442565b600160ff919091161b6008610c8f600d610100615408565b610c999190615442565b60ff166001610caa6008600261535d565b610cb4919061542b565b901b19600160088160038083610ccd600d610100615408565b610cd79190615442565b610ce19190615442565b610ceb9190615442565b610cf59190615442565b610cff9190615442565b610d099190615442565b60ff166001610d1981600261535d565b610d23919061542b565b901b6003806008610d37600d610100615408565b610d419190615442565b610d4b9190615442565b610d559190615442565b60ff166001901b1719600160206002610d6e919061535d565b610d78919061542b565b198716161617600081815261019360205260409020805491925090610d9c90615491565b80601f0160208091040260200160405190810160405280929190818152602001828054610dc890615491565b8015610e155780601f10610dea57610100808354040283529160200191610e15565b820191906000526020600020905b815481529060010190602001808311610df857829003601f168201915b50505050509250505b50919050565b60005b8351811015610e7557610e64848281518110610e5357634e487b7160e01b600052603260045260246000fd5b602002602001015184600185611c0b565b50610e6e816154f2565b9050610e27565b50505050565b600082604051602001610e8e9190614dd5565b60408051601f1981840301815291815281516020928301206000908152610198909252902060079290920b9091555050565b610ecc8282600061243e565b5050565b60006109b2826000611470565b600080610ee985610ed0565b90506000836008610efd600d610100615408565b610f079190615442565b600a60ff919091161b8317176000818152610195602052604090205490915015610f345791506112c49050565b6000604051806101000160405280866001600860016003806008600d60ff16610100610f609190615408565b610f6a9190615442565b610f749190615442565b610f7e9190615442565b610f889190615442565b610f929190615442565b610f9c9190615442565b60ff166001610fac81600261535d565b610fb6919061542b565b901b6003806008610fca600d610100615408565b610fd49190615442565b610fde9190615442565b610fe89190615442565b600160ff919091161b87171717815260200186600380600861100d600d610100615408565b6110179190615442565b6110219190615442565b61102b9190615442565b60ff166001901b86171781526020016001600860016003806008600d60ff166101006110579190615408565b6110619190615442565b61106b9190615442565b6110759190615442565b61107f9190615442565b6110899190615442565b6110939190615442565b60ff1660016110a381600261535d565b6110ad919061542b565b901b60038060086110c1600d610100615408565b6110cb9190615442565b6110d59190615442565b6110df9190615442565b600160ff919091161b86171781526020016003806008611102600d610100615408565b61110c9190615442565b6111169190615442565b6111209190615442565b60ff166001901b85178152602001866001600860016003806008600d60ff1661010061114c9190615408565b6111569190615442565b6111609190615442565b61116a9190615442565b6111749190615442565b61117e9190615442565b6111889190615442565b60ff16600161119881600261535d565b6111a2919061542b565b901b86171781526020016001600881600380836111c2600d610100615408565b6111cc9190615442565b6111d69190615442565b6111e09190615442565b6111ea9190615442565b6111f49190615442565b6111fe9190615442565b60ff16600161120e81600261535d565b611218919061542b565b901b851781528685176020820152604001849052905060005b60088160ff1610156112bb57600061127088848460ff166008811061126657634e487b7160e01b600052603260045260246000fd5b602002015161091d565b11156112a957818160ff166008811061129957634e487b7160e01b600052603260045260246000fd5b60200201519450505050506112c4565b806112b38161550d565b915050611231565b50600093505050505b9392505050565b60006109b28233611f31565b6001600160a01b0385163314806112f357506112f38533610845565b61130f5760405162461bcd60e51b815260040161098490614f78565b61131c8585858585612508565b5050505050565b6001600160a01b03821660009081526101966020526040812054821061135b5760405162461bcd60e51b815260040161098490615199565b6001600160a01b03831660009081526101966020526040902080548390811061139457634e487b7160e01b600052603260045260246000fd5b9060005260206000200154905092915050565b306001600160a01b037f00000000000000000000000000000000000000000000000000000000000000001614156113f05760405162461bcd60e51b815260040161098490615053565b7f00000000000000000000000000000000000000000000000000000000000000006001600160a01b03166114226126bf565b6001600160a01b0316146114485760405162461bcd60e51b81526004016109849061508d565b611451816126db565b6040805160008082526020820190925261146d91839190612761565b50565b600061147e6020600261535d565b821061148a60206128db565b60405160200161149a9190614e0c565b604051602081830303815290604052906114c75760405162461bcd60e51b81526004016109849190614f65565b5081600184600c8111156114eb57634e487b7160e01b600052602160045260246000fd5b146114f7576000611550565b6001600380600861150b600d610100615408565b6115159190615442565b61151f9190615442565b6115299190615442565b6115339190615442565b60ff16600161154381600261535d565b61154d919061542b565b901b5b6008600160038083611565600d610100615408565b61156f9190615442565b6115799190615442565b6115839190615442565b61158d9190615442565b6115979190615442565b60ff1685600c8111156115ba57634e487b7160e01b600052602160045260246000fd5b901b60086115cb600d610100615408565b6115d59190615442565b60ff166001901b171717905092915050565b600081815261019560205260408120546116049085908590610edd565b1515949350505050565b60006112c48333846115e7565b60006112c4338484611f57565b600054610100900460ff16158080156116485750600054600160ff909116105b8061166957506116573061242f565b158015611669575060005460ff166001145b6116cc5760405162461bcd60e51b815260206004820152602e60248201527f496e697469616c697a61626c653a20636f6e747261637420697320616c72656160448201526d191e481a5b9a5d1a585b1a5e995960921b6064820152608401610984565b6000805460ff1916600117905580156116ef576000805461ff0019166101001790555b6116f76129f4565b6117356040518060400160405280602081526020017f4572726f723a2053696e676c6520546f6b656e20555249204e6f742055736564815250612a23565b61173d612a53565b611745612a53565b61174d612a53565b6101948054600181018255600091825260008051602061567a833981519152015561177a85858585611b8c565b801561131c576000805461ff0019169055604051600181527f7f26b83ff96e1f2b6a682f133852f6798a09c465da95921460cefb38474024989060200160405180910390a15050505050565b6060815183511461182b5760405162461bcd60e51b815260206004820152602960248201527f455243313135353a206163636f756e747320616e6420696473206c656e677468604482015268040dad2e6dac2e8c6d60bb1b6064820152608401610984565b600083516001600160401b0381111561185457634e487b7160e01b600052604160045260246000fd5b60405190808252806020026020018201604052801561187d578160200160208202803683370190505b50905060005b845181101561191f576118e48582815181106118af57634e487b7160e01b600052603260045260246000fd5b60200260200101518583815181106118d757634e487b7160e01b600052603260045260246000fd5b602002602001015161091d565b82828151811061190457634e487b7160e01b600052603260045260246000fd5b6020908102919091010152611918816154f2565b9050611883565b509392505050565b306001600160a01b037f00000000000000000000000000000000000000000000000000000000000000001614156119705760405162461bcd60e51b815260040161098490615053565b7f00000000000000000000000000000000000000000000000000000000000000006001600160a01b03166119a26126bf565b6001600160a01b0316146119c85760405162461bcd60e51b81526004016109849061508d565b6119d1826126db565b610ecc82826001612761565b6000806119e9836121b7565b1192915050565b6000808211611a545760405162461bcd60e51b815260206004820152602a60248201527f4552432d3131353520456e756d657261626c653a20746f6b656e7320696e64656044820152697865642066726f6d203160b01b6064820152608401610984565b61019454821115611a775760405162461bcd60e51b815260040161098490615199565b610194805483908110611a9a57634e487b7160e01b600052603260045260246000fd5b90600052602060002001549050919050565b6000306001600160a01b037f00000000000000000000000000000000000000000000000000000000000000001614611b475760405162461bcd60e51b815260206004820152603860248201527f555550535570677261646561626c653a206d757374206e6f742062652063616c6044820152771b1959081d1a1c9bdd59da0819195b1959d85d1958d85b1b60421b6064820152608401610984565b506000805160206156ba8339815191525b90565b610e7584848415611b7457611b6f85610a08565b611b77565b60005b846000612a7a565b610ecc8282600080611b5b565b611b94612ca6565b611ba16101918585614345565b5061131c6101928383614345565b6001600160a01b038316331480611bcb5750611bcb8333610845565b611be75760405162461bcd60e51b815260040161098490614f78565b611bf2838383612d05565b505050565b611bff612ca6565b611c096000612eae565b565b6000600160088160038083611c23600d610100615408565b611c2d9190615442565b611c379190615442565b611c419190615442565b611c4b9190615442565b611c559190615442565b611c5f9190615442565b60ff166001611c6f81600261535d565b611c79919061542b565b901b600160088160038083611c91600d610100615408565b611c9b9190615442565b611ca59190615442565b611caf9190615442565b611cb99190615442565b611cc39190615442565b611ccd9190615442565b60ff166001611cdd81600261535d565b611ce7919061542b565b901b85161415611d4b5760405162461bcd60e51b815260206004820152602960248201527f43616e6e6f74206d696e7420696e7465726e616c20746f6b656e732066726f6d6044820152681037baba39b4b2329760b91b6064820152608401610984565b60016003806008611d5f600d610100615408565b611d699190615442565b611d739190615442565b611d7d9190615442565b611d879190615442565b60ff166001901b60016003806008600d60ff16610100611da79190615408565b611db19190615442565b611dbb9190615442565b611dc59190615442565b611dcf9190615442565b60ff166001901b8516148015611dee57506000611dec868661091d565b115b15611dfb57506000611e0b565b611e0785858585612f00565b5060015b949350505050565b611bf28383600084611b5b565b611e2b60058461160e565b80611e395750611e39612253565b611ea25760405162461bcd60e51b815260206004820152603460248201527f596f75206d7573742068617665206120436f6e6669677572657220746f6b656e604482015273103a379031b430b733b29036b2ba30b230ba309760611b6064820152608401610984565b600083815261019360205260409020611ebc908383614345565b50827f6bb7ff708619ba0610cba295a58592e0451dee2622938c8755667688daf3529b8383604051611eef929190614f36565b60405180910390a2505050565b6097546001600160a01b031690565b6101928054610a8490615491565b61019454600090611f2c9060019061542b565b905090565b60006112c4838360006115e7565b610ecc338383613013565b611bf28383836000611b5b565b61019454600090806008611f6e600d610100615408565b611f789190615442565b60ff166009901b179150611f8d60078361160e565b80611f9b5750611f9b612253565b6120035760405162461bcd60e51b815260206004820152603360248201527f596f75206d757374206861766520612043726561746f7220746f6b656e20746f6044820152721031b932b0ba32903732bb903a37b5b2b7399760691b6064820152608401610984565b61019480546001810190915560008051602061567a833981519152018290556000828152610195602052604081208290555b84518110156120865761207485828151811061206157634e487b7160e01b600052603260045260246000fd5b6020026020010151878460006001612a7a565b8061207e816154f2565b915050612035565b5060005b83518110156120d6576120c48482815181106120b657634e487b7160e01b600052603260045260246000fd5b6020026020010151836123c4565b806120ce816154f2565b91505061208a565b50604080518381526001600160a01b03871660208201527f7757890bcab34d673dfca6b71df1b57f75a2fe4231d6e8de726caf534ab1fdd6910160405180910390a160006121276007336000610edd565b9050600380600861213b600d610100615408565b6121459190615442565b61214f9190615442565b6121599190615442565b600160ff919091161b6003806008612174600d610100615408565b61217e9190615442565b6121889190615442565b6121929190615442565b60ff166001901b821614156121ae576121ae335b8260016130f4565b50509392505050565b600090815260fb602052604090205490565b60006121d6600183611f31565b806109b257506121e4611efc565b6001600160a01b0316826001600160a01b03161492915050565b600080826040516020016122129190614dd5565b60408051601f19818403018152918152815160209283012060009081526101989092529020549392505050565b600080826040516020016122129190614df5565b6000611f2c336121c9565b60408051600080825260208201909252612279338283611f57565b91505090565b6001600160a01b03851633148061229b575061229b8533610845565b6122b75760405162461bcd60e51b815260040161098490614f78565b61131c85858585856131fe565b6122cc612ca6565b6001600160a01b0381166123315760405162461bcd60e51b815260206004820152602660248201527f4f776e61626c653a206e6577206f776e657220697320746865207a65726f206160448201526564647265737360d01b6064820152608401610984565b61146d81612eae565b612346600984846115e7565b806123555750612355836121c9565b6123b95760405162461bcd60e51b815260206004820152602f60248201527f596f75206d75737420686176652061204275726e657220746f6b656e20746f2060448201526e3232b9ba3937bc903a37b5b2b7399760891b6064820152608401610984565b611bf28383836130f4565b60006123d08383611470565b905060086123e1600d610100615408565b6123eb9190615442565b610194805460018101909155600a60ff929092169190911b9190911760008051602061567a8339815191528201819055600090815261019560205260409020555050565b6001600160a01b03163b151590565b806124c25761244e60088461160e565b8061245c575061245c612253565b6124c25760405162461bcd60e51b815260206004820152603160248201527f596f75206d75737420686176652061204c696d6974657220746f6b656e20746f6044820152701031b430b733b29038bab0b73a34ba3c9760791b6064820152608401610984565b6000836040516020016124d59190614df5565b60408051601f1981840301815291815281516020928301206000908152610198909252902060079390930b909255505050565b81518351146125295760405162461bcd60e51b815260040161098490615232565b6001600160a01b03841661254f5760405162461bcd60e51b8152600401610984906150c7565b3361255e818787878787613328565b60005b845181101561266357600085828151811061258c57634e487b7160e01b600052603260045260246000fd5b6020026020010151905060008583815181106125b857634e487b7160e01b600052603260045260246000fd5b60209081029190910181015160008481526065835260408082206001600160a01b038e1683529093529190912054909150818110156126095760405162461bcd60e51b81526004016109849061514f565b60008381526065602090815260408083206001600160a01b038e8116855292528083208585039055908b168252812080548492906126489084906152ee565b925050819055505050508061265c906154f2565b9050612561565b50846001600160a01b0316866001600160a01b0316826001600160a01b031660008051602061563a83398151915287876040516126a1929190614f11565b60405180910390a46126b7818787878787613c5b565b505050505050565b6000805160206156ba833981519152546001600160a01b031690565b6126e560066112cb565b806126f357506126f3612253565b61146d5760405162461bcd60e51b815260206004820152603960248201527f596f75206d75737420686176652061204d61696e7461696e657220746f6b656e604482015278103a37903ab833b930b232903a34329031b7b73a3930b1ba1760391b6064820152608401610984565b7f4910fdfa16fed3260ed0e7147f7cc6da11a60208b5b9406d12a635614ffd91435460ff161561279457611bf283613dcd565b826001600160a01b03166352d1902d6040518163ffffffff1660e01b815260040160206040518083038186803b1580156127cd57600080fd5b505afa9250505080156127fd575060408051601f3d908101601f191682019092526127fa91810190614aed565b60015b6128605760405162461bcd60e51b815260206004820152602e60248201527f45524331393637557067726164653a206e657720696d706c656d656e7461746960448201526d6f6e206973206e6f74205555505360901b6064820152608401610984565b6000805160206156ba83398151915281146128cf5760405162461bcd60e51b815260206004820152602960248201527f45524331393637557067726164653a20756e737570706f727465642070726f786044820152681a58589b195555525160ba1b6064820152608401610984565b50611bf2838383613e67565b6060816128ff5750506040805180820190915260018152600360fc1b602082015290565b8160005b81156129295780612913816154f2565b91506129229050600a83615306565b9150612903565b6000816001600160401b0381111561295157634e487b7160e01b600052604160045260246000fd5b6040519080825280601f01601f19166020018201604052801561297b576020820181803683370190505b5090505b8415611e0b5761299060018361542b565b915061299d600a8661552d565b6129a89060306152ee565b60f81b8183815181106129cb57634e487b7160e01b600052603260045260246000fd5b60200101906001600160f81b031916908160001a9053506129ed600a86615306565b945061297f565b600054610100900460ff16612a1b5760405162461bcd60e51b8152600401610984906151e7565b611c09613e8c565b600054610100900460ff16612a4a5760405162461bcd60e51b8152600401610984906151e7565b61146d81613ebc565b600054610100900460ff16611c095760405162461bcd60e51b8152600401610984906151e7565b80612b9c57600185600c811115612aa157634e487b7160e01b600052602160045260246000fd5b1415612b1c57612aaf612253565b612b175760405162461bcd60e51b815260206004820152603360248201527f596f75206d75737420626520612053757065727573657220746f206372656174604482015272329037ba3432b91029bab832b93ab9b2b9399760691b6064820152608401610984565b612b9c565b612b2760038461160e565b80612b355750612b35612253565b612b9c5760405162461bcd60e51b815260206004820152603260248201527f596f75206d7573742068617665207468652043617374657220726f6c6520746f6044820152711030b9b9b4b3b7103732bb903937b632b99760711b6064820152608401610984565b600082612baa576000612be2565b6003806008612bbc600d610100615408565b612bc69190615442565b612bd09190615442565b612bda9190615442565b60ff166001901b5b82612bee576000612c5d565b600160088160038083612c04600d610100615408565b612c0e9190615442565b612c189190615442565b612c229190615442565b612c2c9190615442565b612c369190615442565b612c409190615442565b60ff166001612c5081600261535d565b612c5a919061542b565b901b5b612c678887611470565b17179050612c8a81612c788361223f565b612c8390600161529d565b600161243e565b6126b78582600160405180602001604052806000815250612f00565b33612caf611efc565b6001600160a01b031614611c095760405162461bcd60e51b815260206004820181905260248201527f4f776e61626c653a2063616c6c6572206973206e6f7420746865206f776e65726044820152606401610984565b6001600160a01b038316612d2b5760405162461bcd60e51b81526004016109849061510c565b8051825114612d4c5760405162461bcd60e51b815260040161098490615232565b6000339050612d6f81856000868660405180602001604052806000815250613328565b60005b8351811015612e53576000848281518110612d9d57634e487b7160e01b600052603260045260246000fd5b602002602001015190506000848381518110612dc957634e487b7160e01b600052603260045260246000fd5b60209081029190910181015160008481526065835260408082206001600160a01b038c168352909352919091205490915081811015612e1a5760405162461bcd60e51b81526004016109849061500f565b60009283526065602090815260408085206001600160a01b038b1686529091529092209103905580612e4b816154f2565b915050612d72565b5060006001600160a01b0316846001600160a01b0316826001600160a01b031660008051602061563a8339815191528686604051612e92929190614f11565b60405180910390a4604080516020810190915260009052610e75565b609780546001600160a01b038381166001600160a01b0319831681179093556040519116919082907f8be0079c531659141344cd1fd0a4f28419497f9722a3daafe3b4186f6b6457e090600090a35050565b6001600160a01b038416612f605760405162461bcd60e51b815260206004820152602160248201527f455243313135353a206d696e7420746f20746865207a65726f206164647265736044820152607360f81b6064820152608401610984565b336000612f6c85613eec565b90506000612f7985613eec565b9050612f8a83600089858589613328565b60008681526065602090815260408083206001600160a01b038b16845290915281208054879290612fbc9084906152ee565b909155505060408051878152602081018790526001600160a01b03808a16926000929187169160008051602061565a833981519152910160405180910390a461300a83600089898989613f45565b50505050505050565b816001600160a01b0316836001600160a01b031614156130875760405162461bcd60e51b815260206004820152602960248201527f455243313135353a2073657474696e6720617070726f76616c20737461747573604482015268103337b91039b2b63360b91b6064820152608401610984565b6001600160a01b03838116600081815260666020908152604080832094871680845294825291829020805460ff191686151590811790915591519182527f17307eab39ab6107e8899845ad3d59bd9653f200f220920489ca2b5937696c31910160405180910390a3505050565b6001600160a01b03831661311a5760405162461bcd60e51b81526004016109849061510c565b33600061312684613eec565b9050600061313384613eec565b905061315383876000858560405180602001604052806000815250613328565b60008581526065602090815260408083206001600160a01b038a168452909152902054848110156131965760405162461bcd60e51b81526004016109849061500f565b60008681526065602090815260408083206001600160a01b038b81168086529184528285208a8703905582518b81529384018a905290929088169160008051602061565a833981519152910160405180910390a460408051602081019091526000905261300a565b6001600160a01b0384166132245760405162461bcd60e51b8152600401610984906150c7565b33600061323085613eec565b9050600061323d85613eec565b905061324d838989858589613328565b60008681526065602090815260408083206001600160a01b038c168452909152902054858110156132905760405162461bcd60e51b81526004016109849061514f565b60008781526065602090815260408083206001600160a01b038d8116855292528083208985039055908a168252812080548892906132cf9084906152ee565b909155505060408051888152602081018890526001600160a01b03808b16928c8216929188169160008051602061565a833981519152910160405180910390a461331d848a8a8a8a8a613f45565b505050505050505050565b613330612253565b6138935760005b835181101561389157600160088160038083613356600d610100615408565b6133609190615442565b61336a9190615442565b6133749190615442565b61337e9190615442565b6133889190615442565b6133929190615442565b60ff1660016133a281600261535d565b6133ac919061542b565b901b6001600881600380836133c4600d610100615408565b6133ce9190615442565b6133d89190615442565b6133e29190615442565b6133ec9190615442565b6133f69190615442565b6134009190615442565b60ff16600161341081600261535d565b61341a919061542b565b901b85838151811061343c57634e487b7160e01b600052603260045260246000fd5b602002602001015116146138815760006001600160a01b03871615613462576004613465565b60025b9050600281600c81111561348957634e487b7160e01b600052602160045260246000fd5b14156137e35760006134c18684815181106134b457634e487b7160e01b600052603260045260246000fd5b602002602001015161223f565b60070b1261359f576134ec8583815181106134b457634e487b7160e01b600052603260045260246000fd5b60070b84838151811061350f57634e487b7160e01b600052603260045260246000fd5b602002602001015161354787858151811061353a57634e487b7160e01b600052603260045260246000fd5b60200260200101516121b7565b61355191906152ee565b131561359f5760405162461bcd60e51b815260206004820181905260248201527f4d6178696d756d206d696e7420616c6c6f77616e63652065786365656465642e6044820152606401610984565b60086135ae600d610100615408565b6135b89190615442565b600160ff919091161b60086135d0600d610100615408565b6135da9190615442565b60ff1660016135eb6008600261535d565b6135f5919061542b565b901b86848151811061361757634e487b7160e01b600052603260045260246000fd5b60200260200101511614156136d157613658600386848151811061364b57634e487b7160e01b600052603260045260246000fd5b602002602001015161160e565b806136665750613666612253565b6136cc5760405162461bcd60e51b815260206004820152603160248201527f596f75206d757374206861766520612043617374657220746f6b656e20746f2060448201527036b4b73a103a37b5b2b71033b0ba32b99760791b6064820152608401610984565b61387f565b600061370882336103b58987815181106136fb57634e487b7160e01b600052603260045260246000fd5b6020026020010151610a08565b905061372e8287858151811061364b57634e487b7160e01b600052603260045260246000fd5b6137935760405162461bcd60e51b815260206004820152603060248201527f596f75206d75737420686176652061204d696e74657220746f6b656e20746f2060448201526f33b2b732b930ba32903a37b5b2b7399760811b6064820152608401610984565b600060038060086137a7600d610100615408565b6137b19190615442565b6137bb9190615442565b6137c59190615442565b60ff166001901b821611156137dd576137dd336121a6565b5061387f565b6001600160a01b0386161561387f576138168186848151811061364b57634e487b7160e01b600052603260045260246000fd5b61387f5760405162461bcd60e51b815260206004820152603460248201527f596f75206d75737420686176652061205472616e73666572657220746f6b656e604482015273103a37903a3930b739b332b9103a37b5b2b7399760611b6064820152608401610984565b505b61388a816154f2565b9050613337565b505b6001600160a01b03841615613ab95760005b8351811015613ab75761019460010160008583815181106138d657634e487b7160e01b600052603260045260246000fd5b6020026020010151815260200190815260200160002054600014156139825761019460000184828151811061391b57634e487b7160e01b600052603260045260246000fd5b602090810291909101810151825460018101845560009384529183209091015561019454855190916101959187908590811061396757634e487b7160e01b600052603260045260246000fd5b60200260200101518152602001908152602001600020819055505b6101966000866001600160a01b03166001600160a01b0316815260200190815260200160002060010160008583815181106139cd57634e487b7160e01b600052603260045260246000fd5b602002602001015181526020019081526020016000205460001415613aa7576001600160a01b0385166000908152610196602052604090208451859083908110613a2757634e487b7160e01b600052603260045260246000fd5b6020908102919091018101518254600181810185556000948552838520909101919091556001600160a01b0388168352610196909152604082208054875190939190920191879085908110613a8c57634e487b7160e01b600052603260045260246000fd5b60200260200101518152602001908152602001600020819055505b613ab0816154f2565b90506138a5565b505b6001600160a01b03851615613c4d5760005b8351811015613c4b57828181518110613af457634e487b7160e01b600052603260045260246000fd5b6020026020010151613b20878684815181106118d757634e487b7160e01b600052603260045260246000fd5b11613c3b576001600160a01b03861660009081526101966020526040812085516001918201908390889086908110613b6857634e487b7160e01b600052603260045260246000fd5b6020026020010151815260200190815260200160002054613b89919061542b565b6001600160a01b03881660009081526101966020526040902080549192509082908110613bc657634e487b7160e01b600052603260045260246000fd5b90600052602060002001600090556101966000886001600160a01b03166001600160a01b031681526020019081526020016000206001016000868481518110613c1f57634e487b7160e01b600052603260045260246000fd5b6020026020010151815260200190815260200160002060009055505b613c44816154f2565b9050613acb565b505b6126b7868686868686614016565b613c6d846001600160a01b031661242f565b156126b75760405163bc197c8160e01b81526001600160a01b0385169063bc197c8190613ca69089908990889088908890600401614e5b565b602060405180830381600087803b158015613cc057600080fd5b505af1925050508015613cf0575060408051601f3d908101601f19168201909252613ced91810190614b21565b60015b613d9d57613cfc615583565b806308c379a01415613d365750613d1161559a565b80613d1c5750613d38565b8060405162461bcd60e51b81526004016109849190614f65565b505b60405162461bcd60e51b815260206004820152603460248201527f455243313135353a207472616e7366657220746f206e6f6e20455243313135356044820152732932b1b2b4bb32b91034b6b83632b6b2b73a32b960611b6064820152608401610984565b6001600160e01b0319811663bc197c8160e01b1461300a5760405162461bcd60e51b815260040161098490614fc7565b613dd68161242f565b613e385760405162461bcd60e51b815260206004820152602d60248201527f455243313936373a206e657720696d706c656d656e746174696f6e206973206e60448201526c1bdd08184818dbdb9d1c9858dd609a1b6064820152608401610984565b6000805160206156ba83398151915280546001600160a01b0319166001600160a01b0392909216919091179055565b613e70836141c7565b600082511180613e7d5750805b15611bf257610e758383614207565b600054610100900460ff16613eb35760405162461bcd60e51b8152600401610984906151e7565b611c0933612eae565b600054610100900460ff16613ee35760405162461bcd60e51b8152600401610984906151e7565b61146d816142f9565b60408051600180825281830190925260609160009190602080830190803683370190505090508281600081518110613f3457634e487b7160e01b600052603260045260246000fd5b602090810291909101015292915050565b613f57846001600160a01b031661242f565b156126b75760405163f23a6e6160e01b81526001600160a01b0385169063f23a6e6190613f909089908990889088908890600401614eb9565b602060405180830381600087803b158015613faa57600080fd5b505af1925050508015613fda575060408051601f3d908101601f19168201909252613fd791810190614b21565b60015b613fe657613cfc615583565b6001600160e01b0319811663f23a6e6160e01b1461300a5760405162461bcd60e51b815260040161098490614fc7565b6001600160a01b0385166140b95760005b83518110156140b75782818151811061405057634e487b7160e01b600052603260045260246000fd5b602002602001015160fb600086848151811061407c57634e487b7160e01b600052603260045260246000fd5b6020026020010151815260200190815260200160002060008282546140a191906152ee565b909155506140b09050816154f2565b9050614027565b505b6001600160a01b0384166126b75760005b835181101561300a5760008482815181106140f557634e487b7160e01b600052603260045260246000fd5b60200260200101519050600084838151811061412157634e487b7160e01b600052603260045260246000fd5b60200260200101519050600060fb6000848152602001908152602001600020549050818110156141a45760405162461bcd60e51b815260206004820152602860248201527f455243313135353a206275726e20616d6f756e74206578636565647320746f74604482015267616c537570706c7960c01b6064820152608401610984565b600092835260fb6020526040909220910390556141c0816154f2565b90506140ca565b6141d081613dcd565b6040516001600160a01b038216907fbc7cd75a20ee27fd9adebab32041f755214dbc6bffa90cc0225b39da2e5c2d3b90600090a250565b60606142128361242f565b61426d5760405162461bcd60e51b815260206004820152602660248201527f416464726573733a2064656c65676174652063616c6c20746f206e6f6e2d636f6044820152651b9d1c9858dd60d21b6064820152608401610984565b600080846001600160a01b0316846040516142889190614db9565b600060405180830381855af49150503d80600081146142c3576040519150601f19603f3d011682016040523d82523d6000602084013e6142c8565b606091505b50915091506142f082826040518060600160405280602781526020016156da6027913961430c565b95945050505050565b8051610ecc9060679060208401906143c9565b6060831561431b5750816112c4565b82511561432b5782518084602001fd5b8160405162461bcd60e51b81526004016109849190614f65565b82805461435190615491565b90600052602060002090601f01602090048101928261437357600085556143b9565b82601f1061438c5782800160ff198235161785556143b9565b828001600101855582156143b9579182015b828111156143b957823582559160200191906001019061439e565b506143c592915061443d565b5090565b8280546143d590615491565b90600052602060002090601f0160209004810192826143f757600085556143b9565b82601f1061441057805160ff19168380011785556143b9565b828001600101855582156143b9579182015b828111156143b9578251825591602001919060010190614422565b5b808211156143c5576000815560010161443e565b80356001600160a01b0381168114610a7157600080fd5b600082601f830112614479578081fd5b813560206144868261527a565b60405161449382826154c6565b8381528281019150858301600585901b870184018810156144b2578586fd5b855b858110156144d7576144c582614452565b845292840192908401906001016144b4565b5090979650505050505050565b600082601f8301126144f4578081fd5b813560206145018261527a565b60405161450e82826154c6565b8381528281019150858301600585901b8701840188101561452d578586fd5b855b858110156144d75761454082614637565b8452928401929084019060010161452f565b600082601f830112614562578081fd5b8135602061456f8261527a565b60405161457c82826154c6565b8381528281019150858301600585901b8701840188101561459b578586fd5b855b858110156144d75781358452928401929084019060010161459d565b80358015158114610a7157600080fd5b600082601f8301126145d9578081fd5b81356001600160401b038111156145f2576145f261556d565b604051614609601f8301601f1916602001826154c6565b81815284602083860101111561461d578283fd5b816020850160208301379081016020019190915292915050565b8035600d8110610a7157600080fd5b60008083601f840112614657578182fd5b5081356001600160401b0381111561466d578182fd5b60208301915083602082850101111561468557600080fd5b9250929050565b60006020828403121561469d578081fd5b6112c482614452565b600080604083850312156146b8578081fd5b6146c183614452565b91506146cf60208401614452565b90509250929050565b600080600080600060a086880312156146ef578081fd5b6146f886614452565b945061470660208701614452565b935060408601356001600160401b0380821115614721578283fd5b61472d89838a01614552565b94506060880135915080821115614742578283fd5b61474e89838a01614552565b93506080880135915080821115614763578283fd5b50614770888289016145c9565b9150509295509295909350565b600080600080600060a08688031215614794578081fd5b61479d86614452565b94506147ab60208701614452565b9350604086013592506060860135915060808601356001600160401b038111156147d3578182fd5b614770888289016145c9565b6000806000606084860312156147f3578283fd5b6147fc84614452565b925060208401356001600160401b0380821115614817578384fd5b614823878388016144e4565b93506040860135915080821115614838578283fd5b50614845868287016144e4565b9150509250925092565b600080600060608486031215614863578081fd5b61486c84614452565b925060208401356001600160401b0380821115614887578283fd5b61489387838801614552565b935060408601359150808211156148a8578283fd5b5061484586828701614552565b600080604083850312156148c7578182fd5b6148d083614452565b91506146cf602084016145b9565b600080604083850312156148f0578182fd5b6148f983614452565b915060208301356001600160401b03811115614913578182fd5b61491f858286016145c9565b9150509250929050565b6000806040838503121561493b578182fd5b61494483614452565b946020939093013593505050565b600080600060608486031215614966578081fd5b61496f84614452565b95602085013595506040909401359392505050565b60008060008060808587031215614999578182fd5b6149a285614452565b9350602085013592506040850135915060608501356001600160401b038111156149ca578182fd5b6149d6878288016145c9565b91505092959194509250565b600080604083850312156149f4578182fd5b82356001600160401b0380821115614a0a578384fd5b614a1686838701614469565b93506020850135915080821115614a2b578283fd5b5061491f85828601614552565b600080600060608486031215614a4c578081fd5b83356001600160401b0380821115614a62578283fd5b614a6e87838801614469565b9450602086013593506040860135915080821115614a8a578283fd5b50614845868287016145c9565b60008060408385031215614aa9578182fd5b82356001600160401b0380821115614abf578384fd5b614acb868387016144e4565b93506020850135915080821115614ae0578283fd5b5061491f858286016144e4565b600060208284031215614afe578081fd5b5051919050565b600060208284031215614b16578081fd5b81356112c481615623565b600060208284031215614b32578081fd5b81516112c481615623565b600060208284031215614b4e578081fd5b6112c482614637565b60008060408385031215614b69578182fd5b6146c183614637565b600080600060608486031215614b86578081fd5b614b8f84614637565b9250614b9d60208501614452565b9150614bab604085016145b9565b90509250925092565b600080600060608486031215614bc8578081fd5b614bd184614637565b9250614bdf60208501614452565b9150604084013590509250925092565b60008060008060808587031215614c04578182fd5b614c0d85614637565b9350614c1b60208601614452565b925060408501359150614c30606086016145b9565b905092959194509250565b60008060408385031215614c4d578182fd5b61494483614637565b60008060008060408587031215614c6b578182fd5b84356001600160401b0380821115614c81578384fd5b614c8d88838901614646565b90965094506020870135915080821115614ca5578384fd5b50614cb287828801614646565b95989497509550505050565b600060208284031215614ccf578081fd5b5035919050565b60008060408385031215614ce8578182fd5b8235915060208301358060070b8114614cff578182fd5b809150509250929050565b600080600060408486031215614d1e578081fd5b8335925060208401356001600160401b03811115614d3a578182fd5b614d4686828701614646565b9497909650939450505050565b6000815180845260208085019450808401835b83811015614d8257815187529582019590820190600101614d66565b509495945050505050565b60008151808452614da5816020860160208601615465565b601f01601f19169290920160200192915050565b60008251614dcb818460208701615465565b9190910192915050565b6b0e0cae440eae6cae440dac2f60a31b8152600c810191909152602c0190565b620dac2f60eb1b8152600381019190915260230190565b76024b73234b1b2b99031b0b71031329030ba1036b7b9ba1604d1b815260008251614e3e816017850160208701615465565b65103134ba399760d11b6017939091019283015250601d01919050565b6001600160a01b0386811682528516602082015260a060408201819052600090614e8790830186614d53565b8281036060840152614e998186614d53565b90508281036080840152614ead8185614d8d565b98975050505050505050565b6001600160a01b03868116825285166020820152604081018490526060810183905260a060808201819052600090614ef390830184614d8d565b979650505050505050565b6020815260006112c46020830184614d53565b604081526000614f246040830185614d53565b82810360208401526142f08185614d53565b60208152816020820152818360408301376000818301604090810191909152601f909201601f19160101919050565b6020815260006112c46020830184614d8d565b6020808252602f908201527f455243313135353a2063616c6c6572206973206e6f7420746f6b656e206f776e60408201526e195c881b9bdc88185c1c1c9bdd9959608a1b606082015260800190565b60208082526028908201527f455243313135353a204552433131353552656365697665722072656a656374656040820152676420746f6b656e7360c01b606082015260800190565b60208082526024908201527f455243313135353a206275726e20616d6f756e7420657863656564732062616c604082015263616e636560e01b606082015260800190565b6020808252602c9082015260008051602061569a83398151915260408201526b19195b1959d85d1958d85b1b60a21b606082015260800190565b6020808252602c9082015260008051602061569a83398151915260408201526b6163746976652070726f787960a01b606082015260800190565b60208082526025908201527f455243313135353a207472616e7366657220746f20746865207a65726f206164604082015264647265737360d81b606082015260800190565b60208082526023908201527f455243313135353a206275726e2066726f6d20746865207a65726f206164647260408201526265737360e81b606082015260800190565b6020808252602a908201527f455243313135353a20696e73756666696369656e742062616c616e636520666f60408201526939103a3930b739b332b960b11b606082015260800190565b6020808252602e908201527f4552432d3131353520456e756d657261626c653a20746f6b656e20696e64657860408201526d206f7574206f6620626f756e647360901b606082015260800190565b6020808252602b908201527f496e697469616c697a61626c653a20636f6e7472616374206973206e6f74206960408201526a6e697469616c697a696e6760a81b606082015260800190565b60208082526028908201527f455243313135353a2069647320616e6420616d6f756e7473206c656e677468206040820152670dad2e6dac2e8c6d60c31b606082015260800190565b60006001600160401b038211156152935761529361556d565b5060051b60200190565b6000600782810b9084900b828212801560016001603f1b03849003831316156152c8576152c8615541565b60016001603f1b031983900382128116156152e5576152e5615541565b50019392505050565b6000821982111561530157615301615541565b500190565b60008261531557615315615557565b500490565b600181815b8085111561535557816000190482111561533b5761533b615541565b8085161561534857918102915b93841c939080029061531f565b509250929050565b60006112c460ff841683600082615376575060016109b2565b81615383575060006109b2565b816001811461539957600281146153a3576153bf565b60019150506109b2565b60ff8411156153b4576153b4615541565b50506001821b6109b2565b5060208310610133831016604e8410600b84101617156153e2575081810a6109b2565b6153ec838361531a565b806000190482111561540057615400615541565b029392505050565b600061ffff8381169083168181101561542357615423615541565b039392505050565b60008282101561543d5761543d615541565b500390565b600060ff821660ff84168082101561545c5761545c615541565b90039392505050565b60005b83811015615480578181015183820152602001615468565b83811115610e755750506000910152565b600181811c908216806154a557607f821691505b60208210811415610e1e57634e487b7160e01b600052602260045260246000fd5b601f8201601f191681016001600160401b03811182821017156154eb576154eb61556d565b6040525050565b600060001982141561550657615506615541565b5060010190565b600060ff821660ff81141561552457615524615541565b60010192915050565b60008261553c5761553c615557565b500690565b634e487b7160e01b600052601160045260246000fd5b634e487b7160e01b600052601260045260246000fd5b634e487b7160e01b600052604160045260246000fd5b600060033d1115611b5857600481823e5160e01c90565b600060443d10156155a85790565b6040516003193d81016004833e81513d6001600160401b0380831160248401831017156155d757505050505090565b82850191508151818111156155ef5750505050505090565b843d87010160208285010111156156095750505050505090565b615618602082860101876154c6565b509095945050505050565b6001600160e01b03198116811461146d57600080fdfe4a39dc06d4c0dbc64b70af90fd698a233a518aa5d07e595d983b8c0526c8f7fbc3d58168c5ae7397731d063d5bbf3d657854427343f4c083240f7aacaa2d0f62a6f1ac7ad7b125ba5a5e1c96b00ad6914f90a503b1ac3d85a9dadbb4c639df9246756e6374696f6e206d7573742062652063616c6c6564207468726f75676820360894a13ba1a3210667c828492db98dca3e2076cc3735a920a3ca505d382bbc416464726573733a206c6f772d6c6576656c2064656c65676174652063616c6c206661696c6564a2646970667358221220de9a5e30dc256e41d6acb6d6b7a331a964bd000f29de109b81fa29b32744f10464736f6c63430008040033",
  "linkReferences": {},
  "deployedLinkReferences": {}
}