{
  "_format": "hh-sol-artifact-1",
  "contractName": "BulkDisbursableNFTs",
  "sourceName": "src/BulkDisbursableNFTs.sol",
  "abi": [
    {
      "inputs": [],
      "stateMutability": "nonpayable",
      "type": "constructor"
    },
    {
      "anonymous": false,
      "inputs": [
        {
          "indexed": false,
          "internalType": "address",
          "name": "previousAdmin",
          "type": "address"
        },
        {
          "indexed": false,
          "internalType": "address",
          "name": "newAdmin",
          "type": "address"
        }
      ],
      "name": "AdminChanged",
      "type": "event"
    },
    {
      "anonymous": false,
      "inputs": [
        {
          "indexed": true,
          "internalType": "address",
          "name": "account",
          "type": "address"
        },
        {
          "indexed": true,
          "internalType": "address",
          "name": "operator",
          "type": "address"
        },
        {
          "indexed": false,
          "internalType": "bool",
          "name": "approved",
          "type": "bool"
        }
      ],
      "name": "ApprovalForAll",
      "type": "event"
    },
    {
      "anonymous": false,
      "inputs": [
        {
          "indexed": true,
          "internalType": "address",
          "name": "beacon",
          "type": "address"
        }
      ],
      "name": "BeaconUpgraded",
      "type": "event"
    },
    {
      "anonymous": false,
      "inputs": [
        {
          "indexed": false,
          "internalType": "uint256",
          "name": "id",
          "type": "uint256"
        },
        {
          "indexed": false,
          "internalType": "address",
          "name": "controller",
          "type": "address"
        }
      ],
      "name": "Created",
      "type": "event"
    },
    {
      "anonymous": false,
      "inputs": [
        {
          "indexed": false,
          "internalType": "uint8",
          "name": "version",
          "type": "uint8"
        }
      ],
      "name": "Initialized",
      "type": "event"
    },
    {
      "anonymous": false,
      "inputs": [
        {
          "indexed": true,
          "internalType": "address",
          "name": "previousOwner",
          "type": "address"
        },
        {
          "indexed": true,
          "internalType": "address",
          "name": "newOwner",
          "type": "address"
        }
      ],
      "name": "OwnershipTransferred",
      "type": "event"
    },
    {
      "anonymous": false,
      "inputs": [
        {
          "indexed": true,
          "internalType": "address",
          "name": "operator",
          "type": "address"
        },
        {
          "indexed": true,
          "internalType": "address",
          "name": "from",
          "type": "address"
        },
        {
          "indexed": true,
          "internalType": "address",
          "name": "to",
          "type": "address"
        },
        {
          "indexed": false,
          "internalType": "uint256[]",
          "name": "ids",
          "type": "uint256[]"
        },
        {
          "indexed": false,
          "internalType": "uint256[]",
          "name": "values",
          "type": "uint256[]"
        }
      ],
      "name": "TransferBatch",
      "type": "event"
    },
    {
      "anonymous": false,
      "inputs": [
        {
          "indexed": true,
          "internalType": "address",
          "name": "operator",
          "type": "address"
        },
        {
          "indexed": true,
          "internalType": "address",
          "name": "from",
          "type": "address"
        },
        {
          "indexed": true,
          "internalType": "address",
          "name": "to",
          "type": "address"
        },
        {
          "indexed": false,
          "internalType": "uint256",
          "name": "id",
          "type": "uint256"
        },
        {
          "indexed": false,
          "internalType": "uint256",
          "name": "value",
          "type": "uint256"
        }
      ],
      "name": "TransferSingle",
      "type": "event"
    },
    {
      "anonymous": false,
      "inputs": [
        {
          "indexed": false,
          "internalType": "string",
          "name": "value",
          "type": "string"
        },
        {
          "indexed": true,
          "internalType": "uint256",
          "name": "id",
          "type": "uint256"
        }
      ],
      "name": "URI",
      "type": "event"
    },
    {
      "anonymous": false,
      "inputs": [
        {
          "indexed": true,
          "internalType": "address",
          "name": "implementation",
          "type": "address"
        }
      ],
      "name": "Upgraded",
      "type": "event"
    },
    {
      "inputs": [
        {
          "internalType": "address",
          "name": "account",
          "type": "address"
        },
        {
          "internalType": "uint256",
          "name": "id",
          "type": "uint256"
        }
      ],
      "name": "balanceOf",
      "outputs": [
        {
          "internalType": "uint256",
          "name": "",
          "type": "uint256"
        }
      ],
      "stateMutability": "view",
      "type": "function"
    },
    {
      "inputs": [
        {
          "internalType": "address[]",
          "name": "accounts",
          "type": "address[]"
        },
        {
          "internalType": "uint256[]",
          "name": "ids",
          "type": "uint256[]"
        }
      ],
      "name": "balanceOfBatch",
      "outputs": [
        {
          "internalType": "uint256[]",
          "name": "",
          "type": "uint256[]"
        }
      ],
      "stateMutability": "view",
      "type": "function"
    },
    {
      "inputs": [
        {
          "internalType": "address",
          "name": "owner",
          "type": "address"
        },
        {
          "internalType": "uint256",
          "name": "id",
          "type": "uint256"
        },
        {
          "internalType": "uint256",
          "name": "quantity",
          "type": "uint256"
        }
      ],
      "name": "burn",
      "outputs": [],
      "stateMutability": "nonpayable",
      "type": "function"
    },
    {
      "inputs": [
        {
          "internalType": "address",
          "name": "account",
          "type": "address"
        },
        {
          "internalType": "uint256[]",
          "name": "ids",
          "type": "uint256[]"
        },
        {
          "internalType": "uint256[]",
          "name": "values",
          "type": "uint256[]"
        }
      ],
      "name": "burnBatch",
      "outputs": [],
      "stateMutability": "nonpayable",
      "type": "function"
    },
    {
      "inputs": [
        {
          "internalType": "enum Roles.Role[]",
          "name": "grants",
          "type": "uint8[]"
        },
        {
          "internalType": "enum Roles.Role[]",
          "name": "disables",
          "type": "uint8[]"
        }
      ],
      "name": "create",
      "outputs": [
        {
          "internalType": "uint256",
          "name": "id",
          "type": "uint256"
        }
      ],
      "stateMutability": "nonpayable",
      "type": "function"
    },
    {
      "inputs": [
        {
          "internalType": "address",
          "name": "maintainer",
          "type": "address"
        },
        {
          "internalType": "enum Roles.Role[]",
          "name": "grants",
          "type": "uint8[]"
        },
        {
          "internalType": "enum Roles.Role[]",
          "name": "disables",
          "type": "uint8[]"
        }
      ],
      "name": "create",
      "outputs": [
        {
          "internalType": "uint256",
          "name": "id",
          "type": "uint256"
        }
      ],
      "stateMutability": "nonpayable",
      "type": "function"
    },
    {
      "inputs": [],
      "name": "create",
      "outputs": [
        {
          "internalType": "uint256",
          "name": "id",
          "type": "uint256"
        }
      ],
      "stateMutability": "nonpayable",
      "type": "function"
    },
    {
      "inputs": [
        {
          "internalType": "enum Roles.Role",
          "name": "toDisable",
          "type": "uint8"
        },
        {
          "internalType": "uint256",
          "name": "disablingIndex",
          "type": "uint256"
        }
      ],
      "name": "disableRole",
      "outputs": [],
      "stateMutability": "nonpayable",
      "type": "function"
    },
    {
      "inputs": [
        {
          "internalType": "uint256",
          "name": "id",
          "type": "uint256"
        }
      ],
      "name": "exists",
      "outputs": [
        {
          "internalType": "bool",
          "name": "",
          "type": "bool"
        }
      ],
      "stateMutability": "view",
      "type": "function"
    },
    {
      "inputs": [
        {
          "internalType": "enum Roles.Role",
          "name": "role",
          "type": "uint8"
        },
        {
          "internalType": "address",
          "name": "user",
          "type": "address"
        },
        {
          "internalType": "uint256",
          "name": "index",
          "type": "uint256"
        }
      ],
      "name": "gateToken",
      "outputs": [
        {
          "internalType": "uint256",
          "name": "id",
          "type": "uint256"
        }
      ],
      "stateMutability": "view",
      "type": "function"
    },
    {
      "inputs": [
        {
          "internalType": "uint256",
          "name": "id",
          "type": "uint256"
        }
      ],
      "name": "getMax",
      "outputs": [
        {
          "internalType": "int64",
          "name": "max",
          "type": "int64"
        }
      ],
      "stateMutability": "view",
      "type": "function"
    },
    {
      "inputs": [
        {
          "internalType": "uint256",
          "name": "id",
          "type": "uint256"
        }
      ],
      "name": "getPerUserMax",
      "outputs": [
        {
          "internalType": "int256",
          "name": "max",
          "type": "int256"
        }
      ],
      "stateMutability": "view",
      "type": "function"
    },
    {
      "inputs": [
        {
          "internalType": "enum Roles.Role",
          "name": "role",
          "type": "uint8"
        },
        {
          "internalType": "address",
          "name": "user",
          "type": "address"
        },
        {
          "internalType": "uint256",
          "name": "id",
          "type": "uint256"
        },
        {
          "internalType": "bool",
          "name": "singleUse",
          "type": "bool"
        }
      ],
      "name": "grantRole",
      "outputs": [],
      "stateMutability": "nonpayable",
      "type": "function"
    },
    {
      "inputs": [
        {
          "internalType": "enum Roles.Role",
          "name": "role",
          "type": "uint8"
        },
        {
          "internalType": "address",
          "name": "user",
          "type": "address"
        }
      ],
      "name": "grantRole",
      "outputs": [],
      "stateMutability": "nonpayable",
      "type": "function"
    },
    {
      "inputs": [
        {
          "internalType": "enum Roles.Role",
          "name": "role",
          "type": "uint8"
        },
        {
          "internalType": "address",
          "name": "user",
          "type": "address"
        },
        {
          "internalType": "bool",
          "name": "singleUse",
          "type": "bool"
        }
      ],
      "name": "grantRole",
      "outputs": [],
      "stateMutability": "nonpayable",
      "type": "function"
    },
    {
      "inputs": [
        {
          "internalType": "enum Roles.Role",
          "name": "role",
          "type": "uint8"
        },
        {
          "internalType": "address",
          "name": "user",
          "type": "address"
        },
        {
          "internalType": "uint256",
          "name": "id",
          "type": "uint256"
        }
      ],
      "name": "grantRole",
      "outputs": [],
      "stateMutability": "nonpayable",
      "type": "function"
    },
    {
      "inputs": [
        {
          "internalType": "enum Roles.Role",
          "name": "role",
          "type": "uint8"
        }
      ],
      "name": "hasRole",
      "outputs": [
        {
          "internalType": "bool",
          "name": "has",
          "type": "bool"
        }
      ],
      "stateMutability": "view",
      "type": "function"
    },
    {
      "inputs": [
        {
          "internalType": "enum Roles.Role",
          "name": "role",
          "type": "uint8"
        },
        {
          "internalType": "address",
          "name": "user",
          "type": "address"
        },
        {
          "internalType": "uint256",
          "name": "id",
          "type": "uint256"
        }
      ],
      "name": "hasRole",
      "outputs": [
        {
          "internalType": "bool",
          "name": "has",
          "type": "bool"
        }
      ],
      "stateMutability": "view",
      "type": "function"
    },
    {
      "inputs": [
        {
          "internalType": "enum Roles.Role",
          "name": "role",
          "type": "uint8"
        },
        {
          "internalType": "uint256",
          "name": "id",
          "type": "uint256"
        }
      ],
      "name": "hasRole",
      "outputs": [
        {
          "internalType": "bool",
          "name": "has",
          "type": "bool"
        }
      ],
      "stateMutability": "view",
      "type": "function"
    },
    {
      "inputs": [
        {
          "internalType": "enum Roles.Role",
          "name": "role",
          "type": "uint8"
        },
        {
          "internalType": "address",
          "name": "user",
          "type": "address"
        }
      ],
      "name": "hasRole",
      "outputs": [
        {
          "internalType": "bool",
          "name": "has",
          "type": "bool"
        }
      ],
      "stateMutability": "view",
      "type": "function"
    },
    {
      "inputs": [
        {
          "internalType": "string",
          "name": "_name",
          "type": "string"
        },
        {
          "internalType": "string",
          "name": "_symbol",
          "type": "string"
        }
      ],
      "name": "initialize",
      "outputs": [],
      "stateMutability": "nonpayable",
      "type": "function"
    },
    {
      "inputs": [
        {
          "internalType": "uint256",
          "name": "",
          "type": "uint256"
        }
      ],
      "name": "intValues",
      "outputs": [
        {
          "internalType": "int256",
          "name": "",
          "type": "int256"
        }
      ],
      "stateMutability": "view",
      "type": "function"
    },
    {
      "inputs": [
        {
          "internalType": "address",
          "name": "account",
          "type": "address"
        },
        {
          "internalType": "address",
          "name": "operator",
          "type": "address"
        }
      ],
      "name": "isApprovedForAll",
      "outputs": [
        {
          "internalType": "bool",
          "name": "",
          "type": "bool"
        }
      ],
      "stateMutability": "view",
      "type": "function"
    },
    {
      "inputs": [
        {
          "internalType": "uint256",
          "name": "tokenId",
          "type": "uint256"
        }
      ],
      "name": "isSuper",
      "outputs": [
        {
          "internalType": "bool",
          "name": "superuser",
          "type": "bool"
        }
      ],
      "stateMutability": "view",
      "type": "function"
    },
    {
      "inputs": [
        {
          "internalType": "address",
          "name": "user",
          "type": "address"
        },
        {
          "internalType": "uint256",
          "name": "tokenId",
          "type": "uint256"
        }
      ],
      "name": "isSuper",
      "outputs": [
        {
          "internalType": "bool",
          "name": "superuser",
          "type": "bool"
        }
      ],
      "stateMutability": "view",
      "type": "function"
    },
    {
      "inputs": [
        {
          "internalType": "address",
          "name": "user",
          "type": "address"
        }
      ],
      "name": "isSuper",
      "outputs": [
        {
          "internalType": "bool",
          "name": "superuser",
          "type": "bool"
        }
      ],
      "stateMutability": "view",
      "type": "function"
    },
    {
      "inputs": [],
      "name": "isSuper",
      "outputs": [
        {
          "internalType": "bool",
          "name": "superuser",
          "type": "bool"
        }
      ],
      "stateMutability": "view",
      "type": "function"
    },
    {
      "inputs": [
        {
          "internalType": "address[]",
          "name": "to",
          "type": "address[]"
        },
        {
          "internalType": "uint256",
          "name": "id",
          "type": "uint256"
        },
        {
          "internalType": "bytes",
          "name": "data",
          "type": "bytes"
        }
      ],
      "name": "mint",
      "outputs": [],
      "stateMutability": "nonpayable",
      "type": "function"
    },
    {
      "inputs": [
        {
          "internalType": "address",
          "name": "recipient",
          "type": "address"
        },
        {
          "internalType": "uint256",
          "name": "id",
          "type": "uint256"
        },
        {
          "internalType": "uint256",
          "name": "amount",
          "type": "uint256"
        },
        {
          "internalType": "bytes",
          "name": "data",
          "type": "bytes"
        }
      ],
      "name": "mint",
      "outputs": [
        {
          "internalType": "bool",
          "name": "minted",
          "type": "bool"
        }
      ],
      "stateMutability": "nonpayable",
      "type": "function"
    },
    {
      "inputs": [],
      "name": "name",
      "outputs": [
        {
          "internalType": "string",
          "name": "",
          "type": "string"
        }
      ],
      "stateMutability": "view",
      "type": "function"
    },
    {
      "inputs": [],
      "name": "owner",
      "outputs": [
        {
          "internalType": "address",
          "name": "",
          "type": "address"
        }
      ],
      "stateMutability": "view",
      "type": "function"
    },
    {
      "inputs": [],
      "name": "proxiableUUID",
      "outputs": [
        {
          "internalType": "bytes32",
          "name": "",
          "type": "bytes32"
        }
      ],
      "stateMutability": "view",
      "type": "function"
    },
    {
      "inputs": [],
      "name": "renounceOwnership",
      "outputs": [],
      "stateMutability": "nonpayable",
      "type": "function"
    },
    {
      "inputs": [
        {
          "internalType": "enum Roles.Role",
          "name": "role",
          "type": "uint8"
        }
      ],
      "name": "roleToken",
      "outputs": [
        {
          "internalType": "uint256",
          "name": "id",
          "type": "uint256"
        }
      ],
      "stateMutability": "view",
      "type": "function"
    },
    {
      "inputs": [
        {
          "internalType": "enum Roles.Role",
          "name": "role",
          "type": "uint8"
        },
        {
          "internalType": "uint256",
          "name": "index",
          "type": "uint256"
        }
      ],
      "name": "roleToken",
      "outputs": [
        {
          "internalType": "uint256",
          "name": "id",
          "type": "uint256"
        }
      ],
      "stateMutability": "view",
      "type": "function"
    },
    {
      "inputs": [
        {
          "internalType": "address",
          "name": "from",
          "type": "address"
        },
        {
          "internalType": "address",
          "name": "to",
          "type": "address"
        },
        {
          "internalType": "uint256[]",
          "name": "ids",
          "type": "uint256[]"
        },
        {
          "internalType": "uint256[]",
          "name": "amounts",
          "type": "uint256[]"
        },
        {
          "internalType": "bytes",
          "name": "data",
          "type": "bytes"
        }
      ],
      "name": "safeBatchTransferFrom",
      "outputs": [],
      "stateMutability": "nonpayable",
      "type": "function"
    },
    {
      "inputs": [
        {
          "internalType": "address",
          "name": "from",
          "type": "address"
        },
        {
          "internalType": "address",
          "name": "to",
          "type": "address"
        },
        {
          "internalType": "uint256",
          "name": "id",
          "type": "uint256"
        },
        {
          "internalType": "uint256",
          "name": "amount",
          "type": "uint256"
        },
        {
          "internalType": "bytes",
          "name": "data",
          "type": "bytes"
        }
      ],
      "name": "safeTransferFrom",
      "outputs": [],
      "stateMutability": "nonpayable",
      "type": "function"
    },
    {
      "inputs": [
        {
          "internalType": "address",
          "name": "operator",
          "type": "address"
        },
        {
          "internalType": "bool",
          "name": "approved",
          "type": "bool"
        }
      ],
      "name": "setApprovalForAll",
      "outputs": [],
      "stateMutability": "nonpayable",
      "type": "function"
    },
    {
      "inputs": [
        {
          "internalType": "string",
          "name": "_name",
          "type": "string"
        },
        {
          "internalType": "string",
          "name": "_symbol",
          "type": "string"
        }
      ],
      "name": "setDescription",
      "outputs": [],
      "stateMutability": "nonpayable",
      "type": "function"
    },
    {
      "inputs": [
        {
          "internalType": "uint256",
          "name": "id",
          "type": "uint256"
        },
        {
          "internalType": "int64",
          "name": "max",
          "type": "int64"
        }
      ],
      "name": "setMax",
      "outputs": [],
      "stateMutability": "nonpayable",
      "type": "function"
    },
    {
      "inputs": [
        {
          "internalType": "uint256",
          "name": "id",
          "type": "uint256"
        },
        {
          "internalType": "int64",
          "name": "max",
          "type": "int64"
        }
      ],
      "name": "setPerUserMax",
      "outputs": [],
      "stateMutability": "nonpayable",
      "type": "function"
    },
    {
      "inputs": [
        {
          "internalType": "uint256",
          "name": "id",
          "type": "uint256"
        },
        {
          "internalType": "string",
          "name": "newURI",
          "type": "string"
        }
      ],
      "name": "setURI",
      "outputs": [],
      "stateMutability": "nonpayable",
      "type": "function"
    },
    {
      "inputs": [
        {
          "internalType": "bytes4",
          "name": "interfaceId",
          "type": "bytes4"
        }
      ],
      "name": "supportsInterface",
      "outputs": [
        {
          "internalType": "bool",
          "name": "",
          "type": "bool"
        }
      ],
      "stateMutability": "view",
      "type": "function"
    },
    {
      "inputs": [],
      "name": "symbol",
      "outputs": [
        {
          "internalType": "string",
          "name": "",
          "type": "string"
        }
      ],
      "stateMutability": "view",
      "type": "function"
    },
    {
      "inputs": [
        {
          "internalType": "uint256",
          "name": "index",
          "type": "uint256"
        }
      ],
      "name": "tokenByIndex",
      "outputs": [
        {
          "internalType": "uint256",
          "name": "id",
          "type": "uint256"
        }
      ],
      "stateMutability": "view",
      "type": "function"
    },
    {
      "inputs": [
        {
          "internalType": "uint256",
          "name": "id",
          "type": "uint256"
        }
      ],
      "name": "tokenIndex",
      "outputs": [
        {
          "internalType": "uint256",
          "name": "index",
          "type": "uint256"
        }
      ],
      "stateMutability": "view",
      "type": "function"
    },
    {
      "inputs": [
        {
          "internalType": "address",
          "name": "owner",
          "type": "address"
        },
        {
          "internalType": "uint256",
          "name": "index",
          "type": "uint256"
        }
      ],
      "name": "tokenOfOwnerByIndex",
      "outputs": [
        {
          "internalType": "uint256",
          "name": "id",
          "type": "uint256"
        }
      ],
      "stateMutability": "view",
      "type": "function"
    },
    {
      "inputs": [
        {
          "internalType": "uint256",
          "name": "id",
          "type": "uint256"
        }
      ],
      "name": "totalSupply",
      "outputs": [
        {
          "internalType": "uint256",
          "name": "",
          "type": "uint256"
        }
      ],
      "stateMutability": "view",
      "type": "function"
    },
    {
      "inputs": [
        {
          "internalType": "address",
          "name": "newOwner",
          "type": "address"
        }
      ],
      "name": "transferOwnership",
      "outputs": [],
      "stateMutability": "nonpayable",
      "type": "function"
    },
    {
      "inputs": [],
      "name": "typeSupply",
      "outputs": [
        {
          "internalType": "uint256",
          "name": "count",
          "type": "uint256"
        }
      ],
      "stateMutability": "view",
      "type": "function"
    },
    {
      "inputs": [
        {
          "internalType": "uint256",
          "name": "",
          "type": "uint256"
        }
      ],
      "name": "uintValues",
      "outputs": [
        {
          "internalType": "uint256",
          "name": "",
          "type": "uint256"
        }
      ],
      "stateMutability": "view",
      "type": "function"
    },
    {
      "inputs": [
        {
          "internalType": "address",
          "name": "newImplementation",
          "type": "address"
        }
      ],
      "name": "upgradeTo",
      "outputs": [],
      "stateMutability": "nonpayable",
      "type": "function"
    },
    {
      "inputs": [
        {
          "internalType": "address",
          "name": "newImplementation",
          "type": "address"
        },
        {
          "internalType": "bytes",
          "name": "data",
          "type": "bytes"
        }
      ],
      "name": "upgradeToAndCall",
      "outputs": [],
      "stateMutability": "payable",
      "type": "function"
    },
    {
      "inputs": [
        {
          "internalType": "uint256",
          "name": "id",
          "type": "uint256"
        }
      ],
      "name": "uri",
      "outputs": [
        {
          "internalType": "string",
          "name": "metadata",
          "type": "string"
        }
      ],
      "stateMutability": "view",
      "type": "function"
    }
  ],
  "bytecode": "0x60a06040523060601b6080523480156200001857600080fd5b50600054610100900460ff16158080156200003a5750600054600160ff909116105b806200006a575062000057306200014460201b6200237d1760201c565b1580156200006a575060005460ff166001145b620000d25760405162461bcd60e51b815260206004820152602e60248201527f496e697469616c697a61626c653a20636f6e747261637420697320616c72656160448201526d191e481a5b9a5d1a585b1a5e995960921b606482015260840160405180910390fd5b6000805460ff191660011790558015620000f6576000805461ff0019166101001790555b80156200013d576000805461ff0019169055604051600181527f7f26b83ff96e1f2b6a682f133852f6798a09c465da95921460cefb38474024989060200160405180910390a15b5062000153565b6001600160a01b03163b151590565b60805160601c6157c46200018e600039600081816114140152818161145401528181611994015281816119d40152611b1b01526157c46000f3fe6080604052600436106102645760003560e01c8062fdd58e1461026957806301ffc9a71461029c5780630583e9f8146102cc57806306fdde03146102ec5780630e89341c1461030e5780630ec0370f1461032e5780631130d4a11461035057806311ef04c41461037057806314c464271461039057806316730ab0146103b057806319e0755c146103d05780631da345ae146103f05780632eb2c2d6146104105780632f745c59146104305780633659cfe6146104505780633dbe35de146104705780634468031f1461049057806348289589146104b05780634a80070f146104d05780634cd88b76146104f05780634e1273f4146105105780634f1ef2861461053d5780634f558e79146105505780634f6ccce71461057057806352d1902d14610590578063573b9d31146105a55780635d5664e1146105c55780636755d456146105e55780636b20c45414610605578063715018a614610625578063731133e91461063a5780637b59c72a1461065a578063862440e21461067a5780638da5cb5b1461069a57806395d89b41146106c75780639d969a9c146106dc5780639e97b8f6146106f1578063a22cb46514610711578063aa8e906614610731578063b0bdf26114610751578063b383489a14610771578063ba26d0b71461079f578063bd85b039146107bf578063c3c8df99146107df578063c4096525146107ff578063d945e78b1461081f578063e688f89d1461084d578063e985e9c514610880578063edc79bac146108c9578063efc81a8c146108de578063f242432a146108f3578063f2fde38b14610913578063f5298aca14610933578063fde4047a14610953575b600080fd5b34801561027557600080fd5b506102896102843660046149b7565b610973565b6040519081526020015b60405180910390f35b3480156102a857600080fd5b506102bc6102b7366004614b93565b610a0e565b6040519015158152602001610293565b3480156102d857600080fd5b506102896102e7366004614d4c565b610a5e565b3480156102f857600080fd5b50610301610acc565b6040516102939190614ff3565b34801561031a57600080fd5b50610301610329366004614d4c565b610b5b565b34801561033a57600080fd5b5061034e610349366004614ac6565b610e7a565b005b34801561035c57600080fd5b5061034e61036b366004614d64565b610ed1565b34801561037c57600080fd5b5061034e61038b366004614d64565b610f16565b34801561039c57600080fd5b506102896103ab366004614bcb565b610f26565b3480156103bc57600080fd5b506102896103cb366004614c42565b610f33565b3480156103dc57600080fd5b506102bc6103eb366004614bcb565b611321565b3480156103fc57600080fd5b506102bc61040b366004614d4c565b61132d565b34801561041c57600080fd5b5061034e61042b366004614766565b611339565b34801561043c57600080fd5b5061028961044b3660046149b7565b611385565b34801561045c57600080fd5b5061034e61046b36600461471a565b611409565b34801561047c57600080fd5b5061028961048b366004614cc9565b6114d2565b34801561049c57600080fd5b506102bc6104ab366004614c42565b611649565b3480156104bc57600080fd5b506102bc6104cb366004614cc9565b611670565b3480156104dc57600080fd5b506102896104eb366004614b25565b61167d565b3480156104fc57600080fd5b5061034e61050b366004614ce4565b61168a565b34801561051c57600080fd5b5061053061052b366004614a70565b611828565b6040516102939190614f8c565b61034e61054b36600461496c565b611989565b34801561055c57600080fd5b506102bc61056b366004614d4c565b611a3f565b34801561057c57600080fd5b5061028961058b366004614d4c565b611a52565b34801561059c57600080fd5b50610289611b0e565b3480156105b157600080fd5b5061034e6105c0366004614c7d565b611bbd565b3480156105d157600080fd5b5061034e6105e0366004614be5565b611be1565b3480156105f157600080fd5b5061034e610600366004614ce4565b611bee565b34801561061157600080fd5b5061034e6106203660046148dd565b611c11565b34801561063157600080fd5b5061034e611c59565b34801561064657600080fd5b506102bc610655366004614a12565b611c6d565b34801561066657600080fd5b5061034e610675366004614c00565b611d37565b34801561068657600080fd5b5061034e610695366004614d98565b611d44565b3480156106a657600080fd5b506106af611e21565b6040516001600160a01b039091168152602001610293565b3480156106d357600080fd5b50610301611e30565b3480156106e857600080fd5b50610289611e3e565b3480156106fd57600080fd5b506102bc61070c366004614be5565b611e56565b34801561071d57600080fd5b5061034e61072c366004614943565b611e64565b34801561073d57600080fd5b5061034e61074c366004614c42565b611e6f565b34801561075d57600080fd5b5061028961076c36600461486d565b611e7c565b34801561077d57600080fd5b5061028961078c366004614d4c565b6101976020526000908152604090205481565b3480156107ab57600080fd5b506102bc6107ba3660046149b7565b6120f3565b3480156107cb57600080fd5b506102896107da366004614d4c565b61212a565b3480156107eb57600080fd5b506102bc6107fa36600461471a565b61213c565b34801561080b57600080fd5b5061028961081a366004614d4c565b612149565b34801561082b57600080fd5b5061028961083a366004614d4c565b6101986020526000908152604090205481565b34801561085957600080fd5b5061086d610868366004614d4c565b61218a565b60405160079190910b8152602001610293565b34801561088c57600080fd5b506102bc61089b366004614734565b6001600160a01b03918216600090815260666020908152604080832093909416825291909152205460ff1690565b3480156108d557600080fd5b506102bc61219e565b3480156108ea57600080fd5b506102896121ab565b3480156108ff57600080fd5b5061034e61090e36600461480b565b6121cc565b34801561091f57600080fd5b5061034e61092e36600461471a565b612211565b34801561093f57600080fd5b5061034e61094e3660046149e0565b612287565b34801561095f57600080fd5b5061034e61096e366004614cc9565b612312565b60006001600160a01b0383166109e35760405162461bcd60e51b815260206004820152602a60248201527f455243313135353a2061646472657373207a65726f206973206e6f742061207660448201526930b634b21037bbb732b960b11b60648201526084015b60405180910390fd5b5060008181526065602090815260408083206001600160a01b03861684529091529020545b92915050565b60006001600160e01b03198216636cdb3d1360e11b1480610a3f57506001600160e01b031982166303a24d0760e21b145b80610a0857506301ffc9a760e01b6001600160e01b0319831614610a08565b6000818152610195602052604090205480610ac75760405162461bcd60e51b815260206004820152602360248201527f5468652072657175657374656420746f6b656e20646f6573206e6f742065786960448201526239ba1760e91b60648201526084016109da565b919050565b6101918054610ada9061551f565b80601f0160208091040260200160405190810160405280929190818152602001828054610b069061551f565b8015610b535780601f10610b2857610100808354040283529160200191610b53565b820191906000526020600020905b815481529060010190602001808311610b3657829003601f168201915b505050505081565b600081815261019360205260409020805460609190610b799061551f565b80601f0160208091040260200160405190810160405280929190818152602001828054610ba59061551f565b8015610bf25780601f10610bc757610100808354040283529160200191610bf2565b820191906000526020600020905b815481529060010190602001808311610bd557829003601f168201915b50505050509050805160001415610ac75760006008610c14600d610100615496565b610c1e91906154d0565b60ff166001610c2f600860026153eb565b610c3991906154b9565b901b831690506008610c4e600d610100615496565b610c5891906154d0565b60ff166001901b811480610cad57506008610c76600d610100615496565b610c8091906154d0565b600a60ff919091161b6008610c98600d610100615496565b610ca291906154d0565b60ff166001901b1781145b15610e745760006008610cc3600d610100615496565b610ccd91906154d0565b600160ff919091161b6008610ce5600d610100615496565b610cef91906154d0565b60ff166001610d00600860026153eb565b610d0a91906154b9565b901b19600160088160038083610d23600d610100615496565b610d2d91906154d0565b610d3791906154d0565b610d4191906154d0565b610d4b91906154d0565b610d5591906154d0565b610d5f91906154d0565b60ff166001610d6f8160026153eb565b610d7991906154b9565b901b6003806008610d8d600d610100615496565b610d9791906154d0565b610da191906154d0565b610dab91906154d0565b60ff166001901b1719600160206002610dc491906153eb565b610dce91906154b9565b191616851617600081815261019360205260409020805491925090610df29061551f565b80601f0160208091040260200160405190810160405280929190818152602001828054610e1e9061551f565b8015610e6b5780601f10610e4057610100808354040283529160200191610e6b565b820191906000526020600020905b815481529060010190602001808311610e4e57829003601f168201915b50505050509250505b50919050565b60005b8351811015610ecb57610eba848281518110610ea957634e487b7160e01b600052603260045260246000fd5b602002602001015184600185611c6d565b50610ec481615580565b9050610e7d565b50505050565b600082604051602001610ee49190614e63565b60408051601f1981840301815291815281516020928301206000908152610198909252902060079290920b9091555050565b610f228282600061238c565b5050565b6000610a088260006114d2565b600080610f3f85610f26565b90506000836008610f53600d610100615496565b610f5d91906154d0565b600a60ff919091161b8317176000818152610195602052604090205490915015610f8a57915061131a9050565b6000604051806101000160405280866001600860016003806008600d60ff16610100610fb69190615496565b610fc091906154d0565b610fca91906154d0565b610fd491906154d0565b610fde91906154d0565b610fe891906154d0565b610ff291906154d0565b60ff1660016110028160026153eb565b61100c91906154b9565b901b6003806008611020600d610100615496565b61102a91906154d0565b61103491906154d0565b61103e91906154d0565b600160ff919091161b871717178152602001866003806008611063600d610100615496565b61106d91906154d0565b61107791906154d0565b61108191906154d0565b60ff166001901b86171781526020016001600860016003806008600d60ff166101006110ad9190615496565b6110b791906154d0565b6110c191906154d0565b6110cb91906154d0565b6110d591906154d0565b6110df91906154d0565b6110e991906154d0565b60ff1660016110f98160026153eb565b61110391906154b9565b901b6003806008611117600d610100615496565b61112191906154d0565b61112b91906154d0565b61113591906154d0565b600160ff919091161b86171781526020016003806008611158600d610100615496565b61116291906154d0565b61116c91906154d0565b61117691906154d0565b60ff166001901b85178152602001866001600860016003806008600d60ff166101006111a29190615496565b6111ac91906154d0565b6111b691906154d0565b6111c091906154d0565b6111ca91906154d0565b6111d491906154d0565b6111de91906154d0565b60ff1660016111ee8160026153eb565b6111f891906154b9565b901b8617178152602001600160088160038083611218600d610100615496565b61122291906154d0565b61122c91906154d0565b61123691906154d0565b61124091906154d0565b61124a91906154d0565b61125491906154d0565b60ff1660016112648160026153eb565b61126e91906154b9565b901b851781528685176020820152604001849052905060005b60088160ff1610156113115760006112c688848460ff16600881106112bc57634e487b7160e01b600052603260045260246000fd5b6020020151610973565b11156112ff57818160ff16600881106112ef57634e487b7160e01b600052603260045260246000fd5b602002015194505050505061131a565b806113098161559b565b915050611287565b50600093505050505b9392505050565b6000610a088233611e56565b6000610a0833836120f3565b6001600160a01b0385163314806113555750611355853361089b565b6113715760405162461bcd60e51b81526004016109da90615006565b61137e8585858585612457565b5050505050565b6001600160a01b0382166000908152610196602052604081205482106113bd5760405162461bcd60e51b81526004016109da90615227565b6001600160a01b0383166000908152610196602052604090208054839081106113f657634e487b7160e01b600052603260045260246000fd5b9060005260206000200154905092915050565b306001600160a01b037f00000000000000000000000000000000000000000000000000000000000000001614156114525760405162461bcd60e51b81526004016109da906150e1565b7f00000000000000000000000000000000000000000000000000000000000000006001600160a01b031661148461260e565b6001600160a01b0316146114aa5760405162461bcd60e51b81526004016109da9061511b565b6114b38161262a565b604080516000808252602082019092526114cf918391906126b0565b50565b60006114e0602060026153eb565b82106114ec602061282a565b6040516020016114fc9190614e9a565b604051602081830303815290604052906115295760405162461bcd60e51b81526004016109da9190614ff3565b5081600184600c81111561154d57634e487b7160e01b600052602160045260246000fd5b146115595760006115b2565b6001600380600861156d600d610100615496565b61157791906154d0565b61158191906154d0565b61158b91906154d0565b61159591906154d0565b60ff1660016115a58160026153eb565b6115af91906154b9565b901b5b60086001600380836115c7600d610100615496565b6115d191906154d0565b6115db91906154d0565b6115e591906154d0565b6115ef91906154d0565b6115f991906154d0565b60ff1685600c81111561161c57634e487b7160e01b600052602160045260246000fd5b901b600861162d600d610100615496565b61163791906154d0565b60ff166001901b171717905092915050565b600081815261019560205260408120546116669085908590610f33565b1515949350505050565b600061131a833384611649565b600061131a338484611e7c565b600054610100900460ff16158080156116aa5750600054600160ff909116105b806116cb57506116b93061237d565b1580156116cb575060005460ff166001145b61172e5760405162461bcd60e51b815260206004820152602e60248201527f496e697469616c697a61626c653a20636f6e747261637420697320616c72656160448201526d191e481a5b9a5d1a585b1a5e995960921b60648201526084016109da565b6000805460ff191660011790558015611751576000805461ff0019166101001790555b611759612943565b6117976040518060400160405280602081526020017f4572726f723a2053696e676c6520546f6b656e20555249204e6f742055736564815250612972565b61179f6129a2565b6117a76129a2565b6117af6129a2565b6101948054600181018255600091825260008051602061570883398151915201556117dc85858585611bee565b801561137e576000805461ff0019169055604051600181527f7f26b83ff96e1f2b6a682f133852f6798a09c465da95921460cefb38474024989060200160405180910390a15050505050565b6060815183511461188d5760405162461bcd60e51b815260206004820152602960248201527f455243313135353a206163636f756e747320616e6420696473206c656e677468604482015268040dad2e6dac2e8c6d60bb1b60648201526084016109da565b600083516001600160401b038111156118b657634e487b7160e01b600052604160045260246000fd5b6040519080825280602002602001820160405280156118df578160200160208202803683370190505b50905060005b84518110156119815761194685828151811061191157634e487b7160e01b600052603260045260246000fd5b602002602001015185838151811061193957634e487b7160e01b600052603260045260246000fd5b6020026020010151610973565b82828151811061196657634e487b7160e01b600052603260045260246000fd5b602090810291909101015261197a81615580565b90506118e5565b509392505050565b306001600160a01b037f00000000000000000000000000000000000000000000000000000000000000001614156119d25760405162461bcd60e51b81526004016109da906150e1565b7f00000000000000000000000000000000000000000000000000000000000000006001600160a01b0316611a0461260e565b6001600160a01b031614611a2a5760405162461bcd60e51b81526004016109da9061511b565b611a338261262a565b610f22828260016126b0565b600080611a4b8361212a565b1192915050565b6000808211611ab65760405162461bcd60e51b815260206004820152602a60248201527f4552432d3131353520456e756d657261626c653a20746f6b656e7320696e64656044820152697865642066726f6d203160b01b60648201526084016109da565b61019454821115611ad95760405162461bcd60e51b81526004016109da90615227565b610194805483908110611afc57634e487b7160e01b600052603260045260246000fd5b90600052602060002001549050919050565b6000306001600160a01b037f00000000000000000000000000000000000000000000000000000000000000001614611ba95760405162461bcd60e51b815260206004820152603860248201527f555550535570677261646561626c653a206d757374206e6f742062652063616c6044820152771b1959081d1a1c9bdd59da0819195b1959d85d1958d85b1b60421b60648201526084016109da565b506000805160206157488339815191525b90565b610ecb84848415611bd657611bd185610a5e565b611bd9565b60005b8460006129c9565b610f228282600080611bbd565b611bf6612c45565b611c0361019185856143d3565b5061137e61019283836143d3565b6001600160a01b038316331480611c2d5750611c2d833361089b565b611c495760405162461bcd60e51b81526004016109da90615006565b611c54838383612ca4565b505050565b611c61612c45565b611c6b6000612e4d565b565b600060016003806008611c83600d610100615496565b611c8d91906154d0565b611c9791906154d0565b611ca191906154d0565b611cab91906154d0565b60ff166001901b60016003806008600d60ff16610100611ccb9190615496565b611cd591906154d0565b611cdf91906154d0565b611ce991906154d0565b611cf391906154d0565b60ff166001901b8516148015611d1257506000611d108686610973565b115b15611d1f57506000611d2f565b611d2b85858585612e9f565b5060015b949350505050565b611c548383600084611bbd565b611d4f600584611670565b80611d5e5750611d5e8361132d565b611dc75760405162461bcd60e51b815260206004820152603460248201527f596f75206d7573742068617665206120436f6e6669677572657220746f6b656e604482015273103a379031b430b733b29036b2ba30b230ba309760611b60648201526084016109da565b600083815261019360205260409020611de19083836143d3565b50827f6bb7ff708619ba0610cba295a58592e0451dee2622938c8755667688daf3529b8383604051611e14929190614fc4565b60405180910390a2505050565b6097546001600160a01b031690565b6101928054610ada9061551f565b61019454600090611e51906001906154b9565b905090565b600061131a83836000611649565b610f22338383612fb2565b611c548383836000611bbd565b61019454600090806008611e93600d610100615496565b611e9d91906154d0565b60ff166009901b179150611eb2600783611670565b80611ec15750611ec18261132d565b611f295760405162461bcd60e51b815260206004820152603360248201527f596f75206d757374206861766520612043726561746f7220746f6b656e20746f6044820152721031b932b0ba32903732bb903a37b5b2b7399760691b60648201526084016109da565b610194805460018101909155600080516020615708833981519152018290556000828152610195602052604081208290555b8451811015611fac57611f9a858281518110611f8757634e487b7160e01b600052603260045260246000fd5b60200260200101518784600060016129c9565b80611fa481615580565b915050611f5b565b5060005b8351811015611ffc57611fea848281518110611fdc57634e487b7160e01b600052603260045260246000fd5b602002602001015183612312565b80611ff481615580565b915050611fb0565b50612008826001610ed1565b604080518381526001600160a01b03871660208201527f7757890bcab34d673dfca6b71df1b57f75a2fe4231d6e8de726caf534ab1fdd6910160405180910390a160006120586007336000610f33565b9050600380600861206c600d610100615496565b61207691906154d0565b61208091906154d0565b61208a91906154d0565b600160ff919091161b60038060086120a5600d610100615496565b6120af91906154d0565b6120b991906154d0565b6120c391906154d0565b60ff166001901b821614156120df576120df335b826001613093565b6120ea836001610ed1565b50509392505050565b600061210160018484611649565b8061131a575061210f611e21565b6001600160a01b0316836001600160a01b0316149392505050565b600090815260fb602052604090205490565b6000610a088260006120f3565b6000808260405160200161215d9190614e63565b60408051601f19818403018152918152815160209283012060009081526101989092529020549392505050565b6000808260405160200161215d9190614e83565b6000611e513360006120f3565b604080516000808252602082019092526121c6338283611e7c565b91505090565b6001600160a01b0385163314806121e857506121e8853361089b565b6122045760405162461bcd60e51b81526004016109da90615006565b61137e858585858561319d565b612219612c45565b6001600160a01b03811661227e5760405162461bcd60e51b815260206004820152602660248201527f4f776e61626c653a206e6577206f776e657220697320746865207a65726f206160448201526564647265737360d01b60648201526084016109da565b6114cf81612e4d565b61229360098484611649565b806122a357506122a383836120f3565b6123075760405162461bcd60e51b815260206004820152602f60248201527f596f75206d75737420686176652061204275726e657220746f6b656e20746f2060448201526e3232b9ba3937bc903a37b5b2b7399760891b60648201526084016109da565b611c54838383613093565b600061231e83836114d2565b9050600861232f600d610100615496565b61233991906154d0565b610194805460018101909155600a60ff929092169190911b919091176000805160206157088339815191528201819055600090815261019560205260409020555050565b6001600160a01b03163b151590565b806124115761239c600884611670565b806123ab57506123ab8361132d565b6124115760405162461bcd60e51b815260206004820152603160248201527f596f75206d75737420686176652061204c696d6974657220746f6b656e20746f6044820152701031b430b733b29038bab0b73a34ba3c9760791b60648201526084016109da565b6000836040516020016124249190614e83565b60408051601f1981840301815291815281516020928301206000908152610198909252902060079390930b909255505050565b81518351146124785760405162461bcd60e51b81526004016109da906152c0565b6001600160a01b03841661249e5760405162461bcd60e51b81526004016109da90615155565b336124ad8187878787876132c7565b60005b84518110156125b25760008582815181106124db57634e487b7160e01b600052603260045260246000fd5b60200260200101519050600085838151811061250757634e487b7160e01b600052603260045260246000fd5b60209081029190910181015160008481526065835260408082206001600160a01b038e1683529093529190912054909150818110156125585760405162461bcd60e51b81526004016109da906151dd565b60008381526065602090815260408083206001600160a01b038e8116855292528083208585039055908b1682528120805484929061259790849061537c565b92505081905550505050806125ab90615580565b90506124b0565b50846001600160a01b0316866001600160a01b0316826001600160a01b03166000805160206156c883398151915287876040516125f0929190614f9f565b60405180910390a4612606818787878787613ce9565b505050505050565b600080516020615748833981519152546001600160a01b031690565b6126346006611321565b80612642575061264261219e565b6114cf5760405162461bcd60e51b815260206004820152603960248201527f596f75206d75737420686176652061204d61696e7461696e657220746f6b656e604482015278103a37903ab833b930b232903a34329031b7b73a3930b1ba1760391b60648201526084016109da565b7f4910fdfa16fed3260ed0e7147f7cc6da11a60208b5b9406d12a635614ffd91435460ff16156126e357611c5483613e5b565b826001600160a01b03166352d1902d6040518163ffffffff1660e01b815260040160206040518083038186803b15801561271c57600080fd5b505afa92505050801561274c575060408051601f3d908101601f1916820190925261274991810190614b7b565b60015b6127af5760405162461bcd60e51b815260206004820152602e60248201527f45524331393637557067726164653a206e657720696d706c656d656e7461746960448201526d6f6e206973206e6f74205555505360901b60648201526084016109da565b600080516020615748833981519152811461281e5760405162461bcd60e51b815260206004820152602960248201527f45524331393637557067726164653a20756e737570706f727465642070726f786044820152681a58589b195555525160ba1b60648201526084016109da565b50611c54838383613ef5565b60608161284e5750506040805180820190915260018152600360fc1b602082015290565b8160005b8115612878578061286281615580565b91506128719050600a83615394565b9150612852565b6000816001600160401b038111156128a057634e487b7160e01b600052604160045260246000fd5b6040519080825280601f01601f1916602001820160405280156128ca576020820181803683370190505b5090505b8415611d2f576128df6001836154b9565b91506128ec600a866155bb565b6128f790603061537c565b60f81b81838151811061291a57634e487b7160e01b600052603260045260246000fd5b60200101906001600160f81b031916908160001a90535061293c600a86615394565b94506128ce565b600054610100900460ff1661296a5760405162461bcd60e51b81526004016109da90615275565b611c6b613f1a565b600054610100900460ff166129995760405162461bcd60e51b81526004016109da90615275565b6114cf81613f4a565b600054610100900460ff16611c6b5760405162461bcd60e51b81526004016109da90615275565b80612b3b57600185600c8111156129f057634e487b7160e01b600052602160045260246000fd5b1415612a9b57612a2e6101946000018481548110612a1e57634e487b7160e01b600052603260045260246000fd5b906000526020600020015461132d565b612a965760405162461bcd60e51b815260206004820152603360248201527f596f75206d75737420626520612053757065727573657220746f206372656174604482015272329037ba3432b91029bab832b93ab9b2b9399760691b60648201526084016109da565b612b3b565b612aa6600384611670565b80612ad45750612ad46101946000018481548110612a1e57634e487b7160e01b600052603260045260246000fd5b612b3b5760405162461bcd60e51b815260206004820152603260248201527f596f75206d7573742068617665207468652043617374657220726f6c6520746f6044820152711030b9b9b4b3b7103732bb903937b632b99760711b60648201526084016109da565b600082612b49576000612b81565b6003806008612b5b600d610100615496565b612b6591906154d0565b612b6f91906154d0565b612b7991906154d0565b60ff166001901b5b82612b8d576000612bfc565b600160088160038083612ba3600d610100615496565b612bad91906154d0565b612bb791906154d0565b612bc191906154d0565b612bcb91906154d0565b612bd591906154d0565b612bdf91906154d0565b60ff166001612bef8160026153eb565b612bf991906154b9565b901b5b612c0688876114d2565b17179050612c2981612c178361218a565b612c2290600161532b565b600161238c565b6126068582600160405180602001604052806000815250612e9f565b33612c4e611e21565b6001600160a01b031614611c6b5760405162461bcd60e51b815260206004820181905260248201527f4f776e61626c653a2063616c6c6572206973206e6f7420746865206f776e657260448201526064016109da565b6001600160a01b038316612cca5760405162461bcd60e51b81526004016109da9061519a565b8051825114612ceb5760405162461bcd60e51b81526004016109da906152c0565b6000339050612d0e818560008686604051806020016040528060008152506132c7565b60005b8351811015612df2576000848281518110612d3c57634e487b7160e01b600052603260045260246000fd5b602002602001015190506000848381518110612d6857634e487b7160e01b600052603260045260246000fd5b60209081029190910181015160008481526065835260408082206001600160a01b038c168352909352919091205490915081811015612db95760405162461bcd60e51b81526004016109da9061509d565b60009283526065602090815260408085206001600160a01b038b1686529091529092209103905580612dea81615580565b915050612d11565b5060006001600160a01b0316846001600160a01b0316826001600160a01b03166000805160206156c88339815191528686604051612e31929190614f9f565b60405180910390a4604080516020810190915260009052610ecb565b609780546001600160a01b038381166001600160a01b0319831681179093556040519116919082907f8be0079c531659141344cd1fd0a4f28419497f9722a3daafe3b4186f6b6457e090600090a35050565b6001600160a01b038416612eff5760405162461bcd60e51b815260206004820152602160248201527f455243313135353a206d696e7420746f20746865207a65726f206164647265736044820152607360f81b60648201526084016109da565b336000612f0b85613f7a565b90506000612f1885613f7a565b9050612f29836000898585896132c7565b60008681526065602090815260408083206001600160a01b038b16845290915281208054879290612f5b90849061537c565b909155505060408051878152602081018790526001600160a01b03808a1692600092918716916000805160206156e8833981519152910160405180910390a4612fa983600089898989613fd3565b50505050505050565b816001600160a01b0316836001600160a01b031614156130265760405162461bcd60e51b815260206004820152602960248201527f455243313135353a2073657474696e6720617070726f76616c20737461747573604482015268103337b91039b2b63360b91b60648201526084016109da565b6001600160a01b03838116600081815260666020908152604080832094871680845294825291829020805460ff191686151590811790915591519182527f17307eab39ab6107e8899845ad3d59bd9653f200f220920489ca2b5937696c31910160405180910390a3505050565b6001600160a01b0383166130b95760405162461bcd60e51b81526004016109da9061519a565b3360006130c584613f7a565b905060006130d284613f7a565b90506130f2838760008585604051806020016040528060008152506132c7565b60008581526065602090815260408083206001600160a01b038a168452909152902054848110156131355760405162461bcd60e51b81526004016109da9061509d565b60008681526065602090815260408083206001600160a01b038b81168086529184528285208a8703905582518b81529384018a90529092908816916000805160206156e8833981519152910160405180910390a4604080516020810190915260009052612fa9565b6001600160a01b0384166131c35760405162461bcd60e51b81526004016109da90615155565b3360006131cf85613f7a565b905060006131dc85613f7a565b90506131ec8389898585896132c7565b60008681526065602090815260408083206001600160a01b038c1684529091529020548581101561322f5760405162461bcd60e51b81526004016109da906151dd565b60008781526065602090815260408083206001600160a01b038d8116855292528083208985039055908a1682528120805488929061326e90849061537c565b909155505060408051888152602081018890526001600160a01b03808b16928c821692918816916000805160206156e8833981519152910160405180910390a46132bc848a8a8a8a8a613fd3565b505050505050505050565b60005b8351811015613920576133038482815181106132f657634e487b7160e01b600052603260045260246000fd5b602002602001015161132d565b6139105760016008816003808361331d600d610100615496565b61332791906154d0565b61333191906154d0565b61333b91906154d0565b61334591906154d0565b61334f91906154d0565b61335991906154d0565b60ff1660016133698160026153eb565b61337391906154b9565b901b60016008816003808361338b600d610100615496565b61339591906154d0565b61339f91906154d0565b6133a991906154d0565b6133b391906154d0565b6133bd91906154d0565b6133c791906154d0565b60ff1660016133d78160026153eb565b6133e191906154b9565b901b85838151811061340357634e487b7160e01b600052603260045260246000fd5b602002602001015116146139105760006001600160a01b0387161561342957600461342c565b60025b9050600281600c81111561345057634e487b7160e01b600052602160045260246000fd5b141561387257600061348886848151811061347b57634e487b7160e01b600052603260045260246000fd5b602002602001015161218a565b60070b905060008112806134fd5750808584815181106134b857634e487b7160e01b600052603260045260246000fd5b60200260200101516134f08886815181106134e357634e487b7160e01b600052603260045260246000fd5b602002602001015161212a565b6134fa919061537c565b13155b6135495760405162461bcd60e51b815260206004820181905260248201527f4d6178696d756d206d696e7420616c6c6f77616e63652065786365656465642e60448201526064016109da565b600061357b87858151811061356e57634e487b7160e01b600052603260045260246000fd5b6020026020010151612149565b905060008112806135e15750808685815181106135a857634e487b7160e01b600052603260045260246000fd5b60200260200101516135d48a8a888151811061193957634e487b7160e01b600052603260045260246000fd5b6135de919061537c565b13155b6136395760405162461bcd60e51b8152602060048201526024808201527f4d6178696d756d20706572207573657220616c6c6f77616e63652065786365656044820152633232b21760e11b60648201526084016109da565b6008613648600d610100615496565b61365291906154d0565b600160ff919091161b600861366a600d610100615496565b61367491906154d0565b60ff166001613685600860026153eb565b61368f91906154b9565b901b8886815181106136b157634e487b7160e01b600052603260045260246000fd5b602002602001015116141561375d576136f260038886815181106136e557634e487b7160e01b600052603260045260246000fd5b6020026020010151611670565b6137585760405162461bcd60e51b815260206004820152603160248201527f596f75206d757374206861766520612043617374657220746f6b656e20746f2060448201527036b4b73a103a37b5b2b71033b0ba32b99760791b60648201526084016109da565b61386b565b600061379484336103cb8b898151811061378757634e487b7160e01b600052603260045260246000fd5b6020026020010151610a5e565b90506137ba848987815181106136e557634e487b7160e01b600052603260045260246000fd5b61381f5760405162461bcd60e51b815260206004820152603060248201527f596f75206d75737420686176652061204d696e74657220746f6b656e20746f2060448201526f33b2b732b930ba32903a37b5b2b7399760811b60648201526084016109da565b60006003806008613833600d610100615496565b61383d91906154d0565b61384791906154d0565b61385191906154d0565b60ff166001901b8216111561386957613869336120d7565b505b505061390e565b6001600160a01b0386161561390e576138a5818684815181106136e557634e487b7160e01b600052603260045260246000fd5b61390e5760405162461bcd60e51b815260206004820152603460248201527f596f75206d75737420686176652061205472616e73666572657220746f6b656e604482015273103a37903a3930b739b332b9103a37b5b2b7399760611b60648201526084016109da565b505b61391981615580565b90506132ca565b506001600160a01b03841615613b475760005b8351811015613b4557610194600101600085838151811061396457634e487b7160e01b600052603260045260246000fd5b602002602001015181526020019081526020016000205460001415613a10576101946000018482815181106139a957634e487b7160e01b600052603260045260246000fd5b60209081029190910181015182546001810184556000938452918320909101556101945485519091610195918790859081106139f557634e487b7160e01b600052603260045260246000fd5b60200260200101518152602001908152602001600020819055505b6101966000866001600160a01b03166001600160a01b031681526020019081526020016000206001016000858381518110613a5b57634e487b7160e01b600052603260045260246000fd5b602002602001015181526020019081526020016000205460001415613b35576001600160a01b0385166000908152610196602052604090208451859083908110613ab557634e487b7160e01b600052603260045260246000fd5b6020908102919091018101518254600181810185556000948552838520909101919091556001600160a01b0388168352610196909152604082208054875190939190920191879085908110613b1a57634e487b7160e01b600052603260045260246000fd5b60200260200101518152602001908152602001600020819055505b613b3e81615580565b9050613933565b505b6001600160a01b03851615613cdb5760005b8351811015613cd957828181518110613b8257634e487b7160e01b600052603260045260246000fd5b6020026020010151613bae8786848151811061193957634e487b7160e01b600052603260045260246000fd5b11613cc9576001600160a01b03861660009081526101966020526040812085516001918201908390889086908110613bf657634e487b7160e01b600052603260045260246000fd5b6020026020010151815260200190815260200160002054613c1791906154b9565b6001600160a01b03881660009081526101966020526040902080549192509082908110613c5457634e487b7160e01b600052603260045260246000fd5b90600052602060002001600090556101966000886001600160a01b03166001600160a01b031681526020019081526020016000206001016000868481518110613cad57634e487b7160e01b600052603260045260246000fd5b6020026020010151815260200190815260200160002060009055505b613cd281615580565b9050613b59565b505b6126068686868686866140a4565b613cfb846001600160a01b031661237d565b156126065760405163bc197c8160e01b81526001600160a01b0385169063bc197c8190613d349089908990889088908890600401614ee9565b602060405180830381600087803b158015613d4e57600080fd5b505af1925050508015613d7e575060408051601f3d908101601f19168201909252613d7b91810190614baf565b60015b613e2b57613d8a615611565b806308c379a01415613dc45750613d9f615628565b80613daa5750613dc6565b8060405162461bcd60e51b81526004016109da9190614ff3565b505b60405162461bcd60e51b815260206004820152603460248201527f455243313135353a207472616e7366657220746f206e6f6e20455243313135356044820152732932b1b2b4bb32b91034b6b83632b6b2b73a32b960611b60648201526084016109da565b6001600160e01b0319811663bc197c8160e01b14612fa95760405162461bcd60e51b81526004016109da90615055565b613e648161237d565b613ec65760405162461bcd60e51b815260206004820152602d60248201527f455243313936373a206e657720696d706c656d656e746174696f6e206973206e60448201526c1bdd08184818dbdb9d1c9858dd609a1b60648201526084016109da565b60008051602061574883398151915280546001600160a01b0319166001600160a01b0392909216919091179055565b613efe83614255565b600082511180613f0b5750805b15611c5457610ecb8383614295565b600054610100900460ff16613f415760405162461bcd60e51b81526004016109da90615275565b611c6b33612e4d565b600054610100900460ff16613f715760405162461bcd60e51b81526004016109da90615275565b6114cf81614387565b60408051600180825281830190925260609160009190602080830190803683370190505090508281600081518110613fc257634e487b7160e01b600052603260045260246000fd5b602090810291909101015292915050565b613fe5846001600160a01b031661237d565b156126065760405163f23a6e6160e01b81526001600160a01b0385169063f23a6e619061401e9089908990889088908890600401614f47565b602060405180830381600087803b15801561403857600080fd5b505af1925050508015614068575060408051601f3d908101601f1916820190925261406591810190614baf565b60015b61407457613d8a615611565b6001600160e01b0319811663f23a6e6160e01b14612fa95760405162461bcd60e51b81526004016109da90615055565b6001600160a01b0385166141475760005b8351811015614145578281815181106140de57634e487b7160e01b600052603260045260246000fd5b602002602001015160fb600086848151811061410a57634e487b7160e01b600052603260045260246000fd5b60200260200101518152602001908152602001600020600082825461412f919061537c565b9091555061413e905081615580565b90506140b5565b505b6001600160a01b0384166126065760005b8351811015612fa957600084828151811061418357634e487b7160e01b600052603260045260246000fd5b6020026020010151905060008483815181106141af57634e487b7160e01b600052603260045260246000fd5b60200260200101519050600060fb6000848152602001908152602001600020549050818110156142325760405162461bcd60e51b815260206004820152602860248201527f455243313135353a206275726e20616d6f756e74206578636565647320746f74604482015267616c537570706c7960c01b60648201526084016109da565b600092835260fb60205260409092209103905561424e81615580565b9050614158565b61425e81613e5b565b6040516001600160a01b038216907fbc7cd75a20ee27fd9adebab32041f755214dbc6bffa90cc0225b39da2e5c2d3b90600090a250565b60606142a08361237d565b6142fb5760405162461bcd60e51b815260206004820152602660248201527f416464726573733a2064656c65676174652063616c6c20746f206e6f6e2d636f6044820152651b9d1c9858dd60d21b60648201526084016109da565b600080846001600160a01b0316846040516143169190614e47565b600060405180830381855af49150503d8060008114614351576040519150601f19603f3d011682016040523d82523d6000602084013e614356565b606091505b509150915061437e82826040518060600160405280602781526020016157686027913961439a565b95945050505050565b8051610f22906067906020840190614457565b606083156143a957508161131a565b8251156143b95782518084602001fd5b8160405162461bcd60e51b81526004016109da9190614ff3565b8280546143df9061551f565b90600052602060002090601f0160209004810192826144015760008555614447565b82601f1061441a5782800160ff19823516178555614447565b82800160010185558215614447579182015b8281111561444757823582559160200191906001019061442c565b506144539291506144cb565b5090565b8280546144639061551f565b90600052602060002090601f0160209004810192826144855760008555614447565b82601f1061449e57805160ff1916838001178555614447565b82800160010185558215614447579182015b828111156144475782518255916020019190600101906144b0565b5b8082111561445357600081556001016144cc565b80356001600160a01b0381168114610ac757600080fd5b600082601f830112614507578081fd5b8135602061451482615308565b6040516145218282615554565b8381528281019150858301600585901b87018401881015614540578586fd5b855b8581101561456557614553826144e0565b84529284019290840190600101614542565b5090979650505050505050565b600082601f830112614582578081fd5b8135602061458f82615308565b60405161459c8282615554565b8381528281019150858301600585901b870184018810156145bb578586fd5b855b85811015614565576145ce826146c5565b845292840192908401906001016145bd565b600082601f8301126145f0578081fd5b813560206145fd82615308565b60405161460a8282615554565b8381528281019150858301600585901b87018401881015614629578586fd5b855b858110156145655781358452928401929084019060010161462b565b80358015158114610ac757600080fd5b600082601f830112614667578081fd5b81356001600160401b03811115614680576146806155fb565b604051614697601f8301601f191660200182615554565b8181528460208386010111156146ab578283fd5b816020850160208301379081016020019190915292915050565b8035600d8110610ac757600080fd5b60008083601f8401126146e5578182fd5b5081356001600160401b038111156146fb578182fd5b60208301915083602082850101111561471357600080fd5b9250929050565b60006020828403121561472b578081fd5b61131a826144e0565b60008060408385031215614746578081fd5b61474f836144e0565b915061475d602084016144e0565b90509250929050565b600080600080600060a0868803121561477d578081fd5b614786866144e0565b9450614794602087016144e0565b935060408601356001600160401b03808211156147af578283fd5b6147bb89838a016145e0565b945060608801359150808211156147d0578283fd5b6147dc89838a016145e0565b935060808801359150808211156147f1578283fd5b506147fe88828901614657565b9150509295509295909350565b600080600080600060a08688031215614822578081fd5b61482b866144e0565b9450614839602087016144e0565b9350604086013592506060860135915060808601356001600160401b03811115614861578182fd5b6147fe88828901614657565b600080600060608486031215614881578283fd5b61488a846144e0565b925060208401356001600160401b03808211156148a5578384fd5b6148b187838801614572565b935060408601359150808211156148c6578283fd5b506148d386828701614572565b9150509250925092565b6000806000606084860312156148f1578081fd5b6148fa846144e0565b925060208401356001600160401b0380821115614915578283fd5b614921878388016145e0565b93506040860135915080821115614936578283fd5b506148d3868287016145e0565b60008060408385031215614955578182fd5b61495e836144e0565b915061475d60208401614647565b6000806040838503121561497e578182fd5b614987836144e0565b915060208301356001600160401b038111156149a1578182fd5b6149ad85828601614657565b9150509250929050565b600080604083850312156149c9578182fd5b6149d2836144e0565b946020939093013593505050565b6000806000606084860312156149f4578081fd5b6149fd846144e0565b95602085013595506040909401359392505050565b60008060008060808587031215614a27578182fd5b614a30856144e0565b9350602085013592506040850135915060608501356001600160401b03811115614a58578182fd5b614a6487828801614657565b91505092959194509250565b60008060408385031215614a82578182fd5b82356001600160401b0380821115614a98578384fd5b614aa4868387016144f7565b93506020850135915080821115614ab9578283fd5b506149ad858286016145e0565b600080600060608486031215614ada578081fd5b83356001600160401b0380821115614af0578283fd5b614afc878388016144f7565b9450602086013593506040860135915080821115614b18578283fd5b506148d386828701614657565b60008060408385031215614b37578182fd5b82356001600160401b0380821115614b4d578384fd5b614b5986838701614572565b93506020850135915080821115614b6e578283fd5b506149ad85828601614572565b600060208284031215614b8c578081fd5b5051919050565b600060208284031215614ba4578081fd5b813561131a816156b1565b600060208284031215614bc0578081fd5b815161131a816156b1565b600060208284031215614bdc578081fd5b61131a826146c5565b60008060408385031215614bf7578182fd5b61474f836146c5565b600080600060608486031215614c14578081fd5b614c1d846146c5565b9250614c2b602085016144e0565b9150614c3960408501614647565b90509250925092565b600080600060608486031215614c56578081fd5b614c5f846146c5565b9250614c6d602085016144e0565b9150604084013590509250925092565b60008060008060808587031215614c92578182fd5b614c9b856146c5565b9350614ca9602086016144e0565b925060408501359150614cbe60608601614647565b905092959194509250565b60008060408385031215614cdb578182fd5b6149d2836146c5565b60008060008060408587031215614cf9578182fd5b84356001600160401b0380821115614d0f578384fd5b614d1b888389016146d4565b90965094506020870135915080821115614d33578384fd5b50614d40878288016146d4565b95989497509550505050565b600060208284031215614d5d578081fd5b5035919050565b60008060408385031215614d76578182fd5b8235915060208301358060070b8114614d8d578182fd5b809150509250929050565b600080600060408486031215614dac578081fd5b8335925060208401356001600160401b03811115614dc8578182fd5b614dd4868287016146d4565b9497909650939450505050565b6000815180845260208085019450808401835b83811015614e1057815187529582019590820190600101614df4565b509495945050505050565b60008151808452614e338160208601602086016154f3565b601f01601f19169290920160200192915050565b60008251614e598184602087016154f3565b9190910192915050565b6b0e0cae440eae6cae440dac2f60a31b8152600c810191909152602c0190565b620dac2f60eb1b8152600381019190915260230190565b76024b73234b1b2b99031b0b71031329030ba1036b7b9ba1604d1b815260008251614ecc8160178501602087016154f3565b65103134ba399760d11b6017939091019283015250601d01919050565b6001600160a01b0386811682528516602082015260a060408201819052600090614f1590830186614de1565b8281036060840152614f278186614de1565b90508281036080840152614f3b8185614e1b565b98975050505050505050565b6001600160a01b03868116825285166020820152604081018490526060810183905260a060808201819052600090614f8190830184614e1b565b979650505050505050565b60208152600061131a6020830184614de1565b604081526000614fb26040830185614de1565b828103602084015261437e8185614de1565b60208152816020820152818360408301376000818301604090810191909152601f909201601f19160101919050565b60208152600061131a6020830184614e1b565b6020808252602f908201527f455243313135353a2063616c6c6572206973206e6f7420746f6b656e206f776e60408201526e195c881b9bdc88185c1c1c9bdd9959608a1b606082015260800190565b60208082526028908201527f455243313135353a204552433131353552656365697665722072656a656374656040820152676420746f6b656e7360c01b606082015260800190565b60208082526024908201527f455243313135353a206275726e20616d6f756e7420657863656564732062616c604082015263616e636560e01b606082015260800190565b6020808252602c9082015260008051602061572883398151915260408201526b19195b1959d85d1958d85b1b60a21b606082015260800190565b6020808252602c9082015260008051602061572883398151915260408201526b6163746976652070726f787960a01b606082015260800190565b60208082526025908201527f455243313135353a207472616e7366657220746f20746865207a65726f206164604082015264647265737360d81b606082015260800190565b60208082526023908201527f455243313135353a206275726e2066726f6d20746865207a65726f206164647260408201526265737360e81b606082015260800190565b6020808252602a908201527f455243313135353a20696e73756666696369656e742062616c616e636520666f60408201526939103a3930b739b332b960b11b606082015260800190565b6020808252602e908201527f4552432d3131353520456e756d657261626c653a20746f6b656e20696e64657860408201526d206f7574206f6620626f756e647360901b606082015260800190565b6020808252602b908201527f496e697469616c697a61626c653a20636f6e7472616374206973206e6f74206960408201526a6e697469616c697a696e6760a81b606082015260800190565b60208082526028908201527f455243313135353a2069647320616e6420616d6f756e7473206c656e677468206040820152670dad2e6dac2e8c6d60c31b606082015260800190565b60006001600160401b03821115615321576153216155fb565b5060051b60200190565b6000600782810b9084900b828212801560016001603f1b0384900383131615615356576153566155cf565b60016001603f1b03198390038212811615615373576153736155cf565b50019392505050565b6000821982111561538f5761538f6155cf565b500190565b6000826153a3576153a36155e5565b500490565b600181815b808511156153e35781600019048211156153c9576153c96155cf565b808516156153d657918102915b93841c93908002906153ad565b509250929050565b600061131a60ff84168360008261540457506001610a08565b8161541157506000610a08565b816001811461542757600281146154315761544d565b6001915050610a08565b60ff841115615442576154426155cf565b50506001821b610a08565b5060208310610133831016604e8410600b8410161715615470575081810a610a08565b61547a83836153a8565b806000190482111561548e5761548e6155cf565b029392505050565b600061ffff838116908316818110156154b1576154b16155cf565b039392505050565b6000828210156154cb576154cb6155cf565b500390565b600060ff821660ff8416808210156154ea576154ea6155cf565b90039392505050565b60005b8381101561550e5781810151838201526020016154f6565b83811115610ecb5750506000910152565b600181811c9082168061553357607f821691505b60208210811415610e7457634e487b7160e01b600052602260045260246000fd5b601f8201601f191681016001600160401b0381118282101715615579576155796155fb565b6040525050565b6000600019821415615594576155946155cf565b5060010190565b600060ff821660ff8114156155b2576155b26155cf565b60010192915050565b6000826155ca576155ca6155e5565b500690565b634e487b7160e01b600052601160045260246000fd5b634e487b7160e01b600052601260045260246000fd5b634e487b7160e01b600052604160045260246000fd5b600060033d1115611bba57600481823e5160e01c90565b600060443d10156156365790565b6040516003193d81016004833e81513d6001600160401b03808311602484018310171561566557505050505090565b828501915081518181111561567d5750505050505090565b843d87010160208285010111156156975750505050505090565b6156a660208286010187615554565b509095945050505050565b6001600160e01b0319811681146114cf57600080fdfe4a39dc06d4c0dbc64b70af90fd698a233a518aa5d07e595d983b8c0526c8f7fbc3d58168c5ae7397731d063d5bbf3d657854427343f4c083240f7aacaa2d0f62a6f1ac7ad7b125ba5a5e1c96b00ad6914f90a503b1ac3d85a9dadbb4c639df9246756e6374696f6e206d7573742062652063616c6c6564207468726f75676820360894a13ba1a3210667c828492db98dca3e2076cc3735a920a3ca505d382bbc416464726573733a206c6f772d6c6576656c2064656c65676174652063616c6c206661696c6564a2646970667358221220f279b2a1729af362490b36b7b829150ff8e659c7c5cffa6a0d700ea7fd64175e64736f6c63430008040033",
  "linkReferences": {},
  "deployedLinkReferences": {}
}