{
  "_format": "hh-sol-artifact-1",
  "contractName": "BulkDisbursableNFTs",
  "sourceName": "src/BulkDisbursableNFTs.sol",
  "abi": [
    {
      "inputs": [],
      "stateMutability": "nonpayable",
      "type": "constructor"
    },
    {
      "anonymous": false,
      "inputs": [
        {
          "indexed": false,
          "internalType": "address",
          "name": "previousAdmin",
          "type": "address"
        },
        {
          "indexed": false,
          "internalType": "address",
          "name": "newAdmin",
          "type": "address"
        }
      ],
      "name": "AdminChanged",
      "type": "event"
    },
    {
      "anonymous": false,
      "inputs": [
        {
          "indexed": true,
          "internalType": "address",
          "name": "account",
          "type": "address"
        },
        {
          "indexed": true,
          "internalType": "address",
          "name": "operator",
          "type": "address"
        },
        {
          "indexed": false,
          "internalType": "bool",
          "name": "approved",
          "type": "bool"
        }
      ],
      "name": "ApprovalForAll",
      "type": "event"
    },
    {
      "anonymous": false,
      "inputs": [
        {
          "indexed": true,
          "internalType": "address",
          "name": "beacon",
          "type": "address"
        }
      ],
      "name": "BeaconUpgraded",
      "type": "event"
    },
    {
      "anonymous": false,
      "inputs": [
        {
          "indexed": false,
          "internalType": "uint256",
          "name": "id",
          "type": "uint256"
        },
        {
          "indexed": false,
          "internalType": "address",
          "name": "controller",
          "type": "address"
        }
      ],
      "name": "Created",
      "type": "event"
    },
    {
      "anonymous": false,
      "inputs": [
        {
          "indexed": false,
          "internalType": "uint8",
          "name": "version",
          "type": "uint8"
        }
      ],
      "name": "Initialized",
      "type": "event"
    },
    {
      "anonymous": false,
      "inputs": [
        {
          "indexed": true,
          "internalType": "address",
          "name": "previousOwner",
          "type": "address"
        },
        {
          "indexed": true,
          "internalType": "address",
          "name": "newOwner",
          "type": "address"
        }
      ],
      "name": "OwnershipTransferred",
      "type": "event"
    },
    {
      "anonymous": false,
      "inputs": [
        {
          "indexed": true,
          "internalType": "address",
          "name": "operator",
          "type": "address"
        },
        {
          "indexed": true,
          "internalType": "address",
          "name": "from",
          "type": "address"
        },
        {
          "indexed": true,
          "internalType": "address",
          "name": "to",
          "type": "address"
        },
        {
          "indexed": false,
          "internalType": "uint256[]",
          "name": "ids",
          "type": "uint256[]"
        },
        {
          "indexed": false,
          "internalType": "uint256[]",
          "name": "values",
          "type": "uint256[]"
        }
      ],
      "name": "TransferBatch",
      "type": "event"
    },
    {
      "anonymous": false,
      "inputs": [
        {
          "indexed": true,
          "internalType": "address",
          "name": "operator",
          "type": "address"
        },
        {
          "indexed": true,
          "internalType": "address",
          "name": "from",
          "type": "address"
        },
        {
          "indexed": true,
          "internalType": "address",
          "name": "to",
          "type": "address"
        },
        {
          "indexed": false,
          "internalType": "uint256",
          "name": "id",
          "type": "uint256"
        },
        {
          "indexed": false,
          "internalType": "uint256",
          "name": "value",
          "type": "uint256"
        }
      ],
      "name": "TransferSingle",
      "type": "event"
    },
    {
      "anonymous": false,
      "inputs": [
        {
          "indexed": false,
          "internalType": "string",
          "name": "value",
          "type": "string"
        },
        {
          "indexed": true,
          "internalType": "uint256",
          "name": "id",
          "type": "uint256"
        }
      ],
      "name": "URI",
      "type": "event"
    },
    {
      "anonymous": false,
      "inputs": [
        {
          "indexed": true,
          "internalType": "address",
          "name": "implementation",
          "type": "address"
        }
      ],
      "name": "Upgraded",
      "type": "event"
    },
    {
      "inputs": [
        {
          "internalType": "uint256",
          "name": "",
          "type": "uint256"
        }
      ],
      "name": "RolesProxy",
      "outputs": [
        {
          "internalType": "string",
          "name": "",
          "type": "string"
        }
      ],
      "stateMutability": "view",
      "type": "function"
    },
    {
      "inputs": [
        {
          "internalType": "address",
          "name": "account",
          "type": "address"
        },
        {
          "internalType": "uint256",
          "name": "id",
          "type": "uint256"
        }
      ],
      "name": "balanceOf",
      "outputs": [
        {
          "internalType": "uint256",
          "name": "",
          "type": "uint256"
        }
      ],
      "stateMutability": "view",
      "type": "function"
    },
    {
      "inputs": [
        {
          "internalType": "address[]",
          "name": "accounts",
          "type": "address[]"
        },
        {
          "internalType": "uint256[]",
          "name": "ids",
          "type": "uint256[]"
        }
      ],
      "name": "balanceOfBatch",
      "outputs": [
        {
          "internalType": "uint256[]",
          "name": "",
          "type": "uint256[]"
        }
      ],
      "stateMutability": "view",
      "type": "function"
    },
    {
      "inputs": [
        {
          "internalType": "address",
          "name": "owner",
          "type": "address"
        },
        {
          "internalType": "uint256",
          "name": "id",
          "type": "uint256"
        },
        {
          "internalType": "uint256",
          "name": "quantity",
          "type": "uint256"
        }
      ],
      "name": "burn",
      "outputs": [],
      "stateMutability": "nonpayable",
      "type": "function"
    },
    {
      "inputs": [
        {
          "internalType": "address",
          "name": "account",
          "type": "address"
        },
        {
          "internalType": "uint256[]",
          "name": "ids",
          "type": "uint256[]"
        },
        {
          "internalType": "uint256[]",
          "name": "values",
          "type": "uint256[]"
        }
      ],
      "name": "burnBatch",
      "outputs": [],
      "stateMutability": "nonpayable",
      "type": "function"
    },
    {
      "inputs": [
        {
          "internalType": "enum Roles.Role[]",
          "name": "grants",
          "type": "uint8[]"
        },
        {
          "internalType": "enum Roles.Role[]",
          "name": "disables",
          "type": "uint8[]"
        }
      ],
      "name": "create",
      "outputs": [
        {
          "internalType": "uint256",
          "name": "id",
          "type": "uint256"
        }
      ],
      "stateMutability": "nonpayable",
      "type": "function"
    },
    {
      "inputs": [
        {
          "internalType": "address",
          "name": "maintainer",
          "type": "address"
        },
        {
          "internalType": "enum Roles.Role[]",
          "name": "grants",
          "type": "uint8[]"
        },
        {
          "internalType": "enum Roles.Role[]",
          "name": "disables",
          "type": "uint8[]"
        }
      ],
      "name": "create",
      "outputs": [
        {
          "internalType": "uint256",
          "name": "id",
          "type": "uint256"
        }
      ],
      "stateMutability": "nonpayable",
      "type": "function"
    },
    {
      "inputs": [],
      "name": "create",
      "outputs": [
        {
          "internalType": "uint256",
          "name": "id",
          "type": "uint256"
        }
      ],
      "stateMutability": "nonpayable",
      "type": "function"
    },
    {
      "inputs": [
        {
          "internalType": "enum Roles.Role",
          "name": "toDisable",
          "type": "uint8"
        },
        {
          "internalType": "uint256",
          "name": "disablingIndex",
          "type": "uint256"
        }
      ],
      "name": "disableRole",
      "outputs": [],
      "stateMutability": "nonpayable",
      "type": "function"
    },
    {
      "inputs": [
        {
          "internalType": "uint256",
          "name": "id",
          "type": "uint256"
        }
      ],
      "name": "exists",
      "outputs": [
        {
          "internalType": "bool",
          "name": "",
          "type": "bool"
        }
      ],
      "stateMutability": "view",
      "type": "function"
    },
    {
      "inputs": [
        {
          "internalType": "enum Roles.Role",
          "name": "role",
          "type": "uint8"
        },
        {
          "internalType": "address",
          "name": "user",
          "type": "address"
        },
        {
          "internalType": "uint256",
          "name": "index",
          "type": "uint256"
        }
      ],
      "name": "gateToken",
      "outputs": [
        {
          "internalType": "uint256",
          "name": "id",
          "type": "uint256"
        }
      ],
      "stateMutability": "view",
      "type": "function"
    },
    {
      "inputs": [
        {
          "internalType": "uint256",
          "name": "id",
          "type": "uint256"
        }
      ],
      "name": "getMax",
      "outputs": [
        {
          "internalType": "int64",
          "name": "max",
          "type": "int64"
        }
      ],
      "stateMutability": "view",
      "type": "function"
    },
    {
      "inputs": [
        {
          "internalType": "uint256",
          "name": "id",
          "type": "uint256"
        }
      ],
      "name": "getPerUserMax",
      "outputs": [
        {
          "internalType": "int256",
          "name": "max",
          "type": "int256"
        }
      ],
      "stateMutability": "view",
      "type": "function"
    },
    {
      "inputs": [
        {
          "internalType": "enum Roles.Role",
          "name": "role",
          "type": "uint8"
        },
        {
          "internalType": "address",
          "name": "user",
          "type": "address"
        },
        {
          "internalType": "uint256",
          "name": "id",
          "type": "uint256"
        },
        {
          "internalType": "bool",
          "name": "singleUse",
          "type": "bool"
        }
      ],
      "name": "grantRole",
      "outputs": [],
      "stateMutability": "nonpayable",
      "type": "function"
    },
    {
      "inputs": [
        {
          "internalType": "enum Roles.Role",
          "name": "role",
          "type": "uint8"
        },
        {
          "internalType": "address",
          "name": "user",
          "type": "address"
        }
      ],
      "name": "grantRole",
      "outputs": [],
      "stateMutability": "nonpayable",
      "type": "function"
    },
    {
      "inputs": [
        {
          "internalType": "enum Roles.Role",
          "name": "role",
          "type": "uint8"
        },
        {
          "internalType": "address",
          "name": "user",
          "type": "address"
        },
        {
          "internalType": "bool",
          "name": "singleUse",
          "type": "bool"
        }
      ],
      "name": "grantRole",
      "outputs": [],
      "stateMutability": "nonpayable",
      "type": "function"
    },
    {
      "inputs": [
        {
          "internalType": "enum Roles.Role",
          "name": "role",
          "type": "uint8"
        },
        {
          "internalType": "address",
          "name": "user",
          "type": "address"
        },
        {
          "internalType": "uint256",
          "name": "id",
          "type": "uint256"
        }
      ],
      "name": "grantRole",
      "outputs": [],
      "stateMutability": "nonpayable",
      "type": "function"
    },
    {
      "inputs": [
        {
          "internalType": "enum Roles.Role",
          "name": "role",
          "type": "uint8"
        }
      ],
      "name": "hasRole",
      "outputs": [
        {
          "internalType": "bool",
          "name": "has",
          "type": "bool"
        }
      ],
      "stateMutability": "view",
      "type": "function"
    },
    {
      "inputs": [
        {
          "internalType": "enum Roles.Role",
          "name": "role",
          "type": "uint8"
        },
        {
          "internalType": "address",
          "name": "user",
          "type": "address"
        },
        {
          "internalType": "uint256",
          "name": "id",
          "type": "uint256"
        }
      ],
      "name": "hasRole",
      "outputs": [
        {
          "internalType": "bool",
          "name": "has",
          "type": "bool"
        }
      ],
      "stateMutability": "view",
      "type": "function"
    },
    {
      "inputs": [
        {
          "internalType": "enum Roles.Role",
          "name": "role",
          "type": "uint8"
        },
        {
          "internalType": "uint256",
          "name": "id",
          "type": "uint256"
        }
      ],
      "name": "hasRole",
      "outputs": [
        {
          "internalType": "bool",
          "name": "has",
          "type": "bool"
        }
      ],
      "stateMutability": "view",
      "type": "function"
    },
    {
      "inputs": [
        {
          "internalType": "enum Roles.Role",
          "name": "role",
          "type": "uint8"
        },
        {
          "internalType": "address",
          "name": "user",
          "type": "address"
        }
      ],
      "name": "hasRole",
      "outputs": [
        {
          "internalType": "bool",
          "name": "has",
          "type": "bool"
        }
      ],
      "stateMutability": "view",
      "type": "function"
    },
    {
      "inputs": [
        {
          "internalType": "string",
          "name": "_name",
          "type": "string"
        },
        {
          "internalType": "string",
          "name": "_symbol",
          "type": "string"
        }
      ],
      "name": "initialize",
      "outputs": [],
      "stateMutability": "nonpayable",
      "type": "function"
    },
    {
      "inputs": [
        {
          "internalType": "uint256",
          "name": "",
          "type": "uint256"
        }
      ],
      "name": "intValues",
      "outputs": [
        {
          "internalType": "int256",
          "name": "",
          "type": "int256"
        }
      ],
      "stateMutability": "view",
      "type": "function"
    },
    {
      "inputs": [
        {
          "internalType": "address",
          "name": "account",
          "type": "address"
        },
        {
          "internalType": "address",
          "name": "operator",
          "type": "address"
        }
      ],
      "name": "isApprovedForAll",
      "outputs": [
        {
          "internalType": "bool",
          "name": "",
          "type": "bool"
        }
      ],
      "stateMutability": "view",
      "type": "function"
    },
    {
      "inputs": [
        {
          "internalType": "address",
          "name": "user",
          "type": "address"
        }
      ],
      "name": "isSuper",
      "outputs": [
        {
          "internalType": "bool",
          "name": "superuser",
          "type": "bool"
        }
      ],
      "stateMutability": "view",
      "type": "function"
    },
    {
      "inputs": [],
      "name": "isSuper",
      "outputs": [
        {
          "internalType": "bool",
          "name": "superuser",
          "type": "bool"
        }
      ],
      "stateMutability": "view",
      "type": "function"
    },
    {
      "inputs": [
        {
          "internalType": "uint256",
          "name": "",
          "type": "uint256"
        }
      ],
      "name": "maxes",
      "outputs": [
        {
          "internalType": "int64",
          "name": "",
          "type": "int64"
        }
      ],
      "stateMutability": "view",
      "type": "function"
    },
    {
      "inputs": [
        {
          "internalType": "address[]",
          "name": "to",
          "type": "address[]"
        },
        {
          "internalType": "uint256",
          "name": "id",
          "type": "uint256"
        },
        {
          "internalType": "bytes",
          "name": "data",
          "type": "bytes"
        }
      ],
      "name": "mint",
      "outputs": [],
      "stateMutability": "nonpayable",
      "type": "function"
    },
    {
      "inputs": [
        {
          "internalType": "address",
          "name": "recipient",
          "type": "address"
        },
        {
          "internalType": "uint256",
          "name": "id",
          "type": "uint256"
        },
        {
          "internalType": "uint256",
          "name": "amount",
          "type": "uint256"
        },
        {
          "internalType": "bytes",
          "name": "data",
          "type": "bytes"
        }
      ],
      "name": "mint",
      "outputs": [
        {
          "internalType": "bool",
          "name": "minted",
          "type": "bool"
        }
      ],
      "stateMutability": "nonpayable",
      "type": "function"
    },
    {
      "inputs": [],
      "name": "name",
      "outputs": [
        {
          "internalType": "string",
          "name": "",
          "type": "string"
        }
      ],
      "stateMutability": "view",
      "type": "function"
    },
    {
      "inputs": [],
      "name": "owner",
      "outputs": [
        {
          "internalType": "address",
          "name": "",
          "type": "address"
        }
      ],
      "stateMutability": "view",
      "type": "function"
    },
    {
      "inputs": [],
      "name": "proxiableUUID",
      "outputs": [
        {
          "internalType": "bytes32",
          "name": "",
          "type": "bytes32"
        }
      ],
      "stateMutability": "view",
      "type": "function"
    },
    {
      "inputs": [],
      "name": "renounceOwnership",
      "outputs": [],
      "stateMutability": "nonpayable",
      "type": "function"
    },
    {
      "inputs": [
        {
          "internalType": "enum Roles.Role",
          "name": "role",
          "type": "uint8"
        }
      ],
      "name": "roleToken",
      "outputs": [
        {
          "internalType": "uint256",
          "name": "id",
          "type": "uint256"
        }
      ],
      "stateMutability": "view",
      "type": "function"
    },
    {
      "inputs": [
        {
          "internalType": "enum Roles.Role",
          "name": "role",
          "type": "uint8"
        },
        {
          "internalType": "uint256",
          "name": "index",
          "type": "uint256"
        }
      ],
      "name": "roleToken",
      "outputs": [
        {
          "internalType": "uint256",
          "name": "id",
          "type": "uint256"
        }
      ],
      "stateMutability": "view",
      "type": "function"
    },
    {
      "inputs": [
        {
          "internalType": "address",
          "name": "from",
          "type": "address"
        },
        {
          "internalType": "address",
          "name": "to",
          "type": "address"
        },
        {
          "internalType": "uint256[]",
          "name": "ids",
          "type": "uint256[]"
        },
        {
          "internalType": "uint256[]",
          "name": "amounts",
          "type": "uint256[]"
        },
        {
          "internalType": "bytes",
          "name": "data",
          "type": "bytes"
        }
      ],
      "name": "safeBatchTransferFrom",
      "outputs": [],
      "stateMutability": "nonpayable",
      "type": "function"
    },
    {
      "inputs": [
        {
          "internalType": "address",
          "name": "from",
          "type": "address"
        },
        {
          "internalType": "address",
          "name": "to",
          "type": "address"
        },
        {
          "internalType": "uint256",
          "name": "id",
          "type": "uint256"
        },
        {
          "internalType": "uint256",
          "name": "amount",
          "type": "uint256"
        },
        {
          "internalType": "bytes",
          "name": "data",
          "type": "bytes"
        }
      ],
      "name": "safeTransferFrom",
      "outputs": [],
      "stateMutability": "nonpayable",
      "type": "function"
    },
    {
      "inputs": [
        {
          "internalType": "address",
          "name": "operator",
          "type": "address"
        },
        {
          "internalType": "bool",
          "name": "approved",
          "type": "bool"
        }
      ],
      "name": "setApprovalForAll",
      "outputs": [],
      "stateMutability": "nonpayable",
      "type": "function"
    },
    {
      "inputs": [
        {
          "internalType": "string",
          "name": "_name",
          "type": "string"
        },
        {
          "internalType": "string",
          "name": "_symbol",
          "type": "string"
        }
      ],
      "name": "setDescription",
      "outputs": [],
      "stateMutability": "nonpayable",
      "type": "function"
    },
    {
      "inputs": [
        {
          "internalType": "uint256",
          "name": "id",
          "type": "uint256"
        },
        {
          "internalType": "int64",
          "name": "max",
          "type": "int64"
        }
      ],
      "name": "setMax",
      "outputs": [],
      "stateMutability": "nonpayable",
      "type": "function"
    },
    {
      "inputs": [
        {
          "internalType": "uint256",
          "name": "id",
          "type": "uint256"
        },
        {
          "internalType": "int64",
          "name": "max",
          "type": "int64"
        }
      ],
      "name": "setPerUserMax",
      "outputs": [],
      "stateMutability": "nonpayable",
      "type": "function"
    },
    {
      "inputs": [
        {
          "internalType": "uint256",
          "name": "id",
          "type": "uint256"
        },
        {
          "internalType": "string",
          "name": "newURI",
          "type": "string"
        }
      ],
      "name": "setURI",
      "outputs": [],
      "stateMutability": "nonpayable",
      "type": "function"
    },
    {
      "inputs": [
        {
          "internalType": "bytes4",
          "name": "interfaceId",
          "type": "bytes4"
        }
      ],
      "name": "supportsInterface",
      "outputs": [
        {
          "internalType": "bool",
          "name": "",
          "type": "bool"
        }
      ],
      "stateMutability": "view",
      "type": "function"
    },
    {
      "inputs": [],
      "name": "symbol",
      "outputs": [
        {
          "internalType": "string",
          "name": "",
          "type": "string"
        }
      ],
      "stateMutability": "view",
      "type": "function"
    },
    {
      "inputs": [
        {
          "internalType": "uint256",
          "name": "index",
          "type": "uint256"
        }
      ],
      "name": "tokenByIndex",
      "outputs": [
        {
          "internalType": "uint256",
          "name": "id",
          "type": "uint256"
        }
      ],
      "stateMutability": "view",
      "type": "function"
    },
    {
      "inputs": [
        {
          "internalType": "uint256",
          "name": "id",
          "type": "uint256"
        }
      ],
      "name": "tokenIndex",
      "outputs": [
        {
          "internalType": "uint256",
          "name": "index",
          "type": "uint256"
        }
      ],
      "stateMutability": "view",
      "type": "function"
    },
    {
      "inputs": [
        {
          "internalType": "address",
          "name": "owner",
          "type": "address"
        },
        {
          "internalType": "uint256",
          "name": "index",
          "type": "uint256"
        }
      ],
      "name": "tokenOfOwnerByIndex",
      "outputs": [
        {
          "internalType": "uint256",
          "name": "id",
          "type": "uint256"
        }
      ],
      "stateMutability": "view",
      "type": "function"
    },
    {
      "inputs": [
        {
          "internalType": "uint256",
          "name": "id",
          "type": "uint256"
        }
      ],
      "name": "totalSupply",
      "outputs": [
        {
          "internalType": "uint256",
          "name": "",
          "type": "uint256"
        }
      ],
      "stateMutability": "view",
      "type": "function"
    },
    {
      "inputs": [
        {
          "internalType": "address",
          "name": "newOwner",
          "type": "address"
        }
      ],
      "name": "transferOwnership",
      "outputs": [],
      "stateMutability": "nonpayable",
      "type": "function"
    },
    {
      "inputs": [],
      "name": "typeSupply",
      "outputs": [
        {
          "internalType": "uint256",
          "name": "count",
          "type": "uint256"
        }
      ],
      "stateMutability": "view",
      "type": "function"
    },
    {
      "inputs": [
        {
          "internalType": "uint256",
          "name": "",
          "type": "uint256"
        }
      ],
      "name": "uintValues",
      "outputs": [
        {
          "internalType": "uint256",
          "name": "",
          "type": "uint256"
        }
      ],
      "stateMutability": "view",
      "type": "function"
    },
    {
      "inputs": [
        {
          "internalType": "address",
          "name": "newImplementation",
          "type": "address"
        }
      ],
      "name": "upgradeTo",
      "outputs": [],
      "stateMutability": "nonpayable",
      "type": "function"
    },
    {
      "inputs": [
        {
          "internalType": "address",
          "name": "newImplementation",
          "type": "address"
        },
        {
          "internalType": "bytes",
          "name": "data",
          "type": "bytes"
        }
      ],
      "name": "upgradeToAndCall",
      "outputs": [],
      "stateMutability": "payable",
      "type": "function"
    },
    {
      "inputs": [
        {
          "internalType": "uint256",
          "name": "id",
          "type": "uint256"
        }
      ],
      "name": "uri",
      "outputs": [
        {
          "internalType": "string",
          "name": "metadata",
          "type": "string"
        }
      ],
      "stateMutability": "view",
      "type": "function"
    }
  ],
  "bytecode": "0x60a06040523060601b6080523480156200001857600080fd5b50600054610100900460ff16158080156200003a5750600054600160ff909116105b806200006a575062000057306200014460201b620024b61760201c565b1580156200006a575060005460ff166001145b620000d25760405162461bcd60e51b815260206004820152602e60248201527f496e697469616c697a61626c653a20636f6e747261637420697320616c72656160448201526d191e481a5b9a5d1a585b1a5e995960921b606482015260840160405180910390fd5b6000805460ff191660011790558015620000f6576000805461ff0019166101001790555b80156200013d576000805461ff0019169055604051600181527f7f26b83ff96e1f2b6a682f133852f6798a09c465da95921460cefb38474024989060200160405180910390a15b5062000153565b6001600160a01b03163b151590565b60805160601c6157bd6200018e600039600081816114190152818161145901528181611999015281816119d90152611b2001526157bd6000f3fe6080604052600436106102645760003560e01c8062fdd58e1461026957806301ffc9a71461029c5780630583e9f8146102cc57806306fdde03146102ec5780630e89341c1461030e5780630ec0370f1461032e5780631130d4a11461035057806311ef04c41461037057806314c464271461039057806316730ab0146103b057806319e0755c146103d05780632eb2c2d6146103f05780632f745c59146104105780633659cfe6146104305780633dbe35de146104505780634468031f1461047057806348289589146104905780634a80070f146104b05780634cd88b76146104d05780634e1273f4146104f05780634f1ef2861461051d5780634f558e79146105305780634f6ccce71461055057806352d1902d14610570578063573b9d31146105855780635d5664e1146105a55780635f81e774146105c55780636755d456146105e55780636b20c45414610605578063715018a614610625578063731133e91461063a5780637b59c72a1461065a578063862440e21461067a5780638da5cb5b1461069a57806395d89b41146106c75780639d969a9c146106dc5780639e97b8f6146106f1578063a22cb46514610711578063aa8e906614610731578063b0bdf26114610751578063b383489a14610771578063bd85b0391461079f578063c3c8df99146107bf578063c4096525146107df578063d945e78b146107ff578063dabc69871461082d578063e688f89d14610871578063e985e9c514610891578063edc79bac146108da578063efc81a8c146108ef578063f242432a14610904578063f2fde38b14610924578063f5298aca14610944578063fde4047a14610964575b600080fd5b34801561027557600080fd5b506102896102843660046149b0565b610984565b6040519081526020015b60405180910390f35b3480156102a857600080fd5b506102bc6102b7366004614b8c565b610a1f565b6040519015158152602001610293565b3480156102d857600080fd5b506102896102e7366004614d45565b610a6f565b3480156102f857600080fd5b50610301610add565b6040516102939190614fec565b34801561031a57600080fd5b50610301610329366004614d45565b610b6c565b34801561033a57600080fd5b5061034e610349366004614abf565b610e8b565b005b34801561035c57600080fd5b5061034e61036b366004614d5d565b610ee2565b34801561037c57600080fd5b5061034e61038b366004614d5d565b610f27565b34801561039c57600080fd5b506102896103ab366004614bc4565b610f37565b3480156103bc57600080fd5b506102896103cb366004614c3b565b610f44565b3480156103dc57600080fd5b506102bc6103eb366004614bc4565b611332565b3480156103fc57600080fd5b5061034e61040b36600461475f565b61133e565b34801561041c57600080fd5b5061028961042b3660046149b0565b61138a565b34801561043c57600080fd5b5061034e61044b366004614713565b61140e565b34801561045c57600080fd5b5061028961046b366004614cc2565b6114d7565b34801561047c57600080fd5b506102bc61048b366004614c3b565b61164e565b34801561049c57600080fd5b506102bc6104ab366004614cc2565b611675565b3480156104bc57600080fd5b506102896104cb366004614b1e565b611682565b3480156104dc57600080fd5b5061034e6104eb366004614cdd565b61168f565b3480156104fc57600080fd5b5061051061050b366004614a69565b61182d565b6040516102939190614f85565b61034e61052b366004614965565b61198e565b34801561053c57600080fd5b506102bc61054b366004614d45565b611a44565b34801561055c57600080fd5b5061028961056b366004614d45565b611a57565b34801561057c57600080fd5b50610289611b13565b34801561059157600080fd5b5061034e6105a0366004614c76565b611bc2565b3480156105b157600080fd5b5061034e6105c0366004614bde565b611be6565b3480156105d157600080fd5b506103016105e0366004614d45565b611bf3565b3480156105f157600080fd5b5061034e610600366004614cdd565b611c13565b34801561061157600080fd5b5061034e6106203660046148d6565b611c36565b34801561063157600080fd5b5061034e611c7e565b34801561064657600080fd5b506102bc610655366004614a0b565b611c92565b34801561066657600080fd5b5061034e610675366004614bf9565b611e9a565b34801561068657600080fd5b5061034e610695366004614d91565b611ea7565b3480156106a657600080fd5b506106af611f83565b6040516001600160a01b039091168152602001610293565b3480156106d357600080fd5b50610301611f92565b3480156106e857600080fd5b50610289611fa0565b3480156106fd57600080fd5b506102bc61070c366004614bde565b611fb8565b34801561071d57600080fd5b5061034e61072c36600461493c565b611fc6565b34801561073d57600080fd5b5061034e61074c366004614c3b565b611fd1565b34801561075d57600080fd5b5061028961076c366004614866565b611fde565b34801561077d57600080fd5b5061028961078c366004614d45565b6101a36020526000908152604090205481565b3480156107ab57600080fd5b506102896107ba366004614d45565b61223e565b3480156107cb57600080fd5b506102bc6107da366004614713565b612250565b3480156107eb57600080fd5b506102896107fa366004614d45565b612285565b34801561080b57600080fd5b5061028961081a366004614d45565b6101a46020526000908152604090205481565b34801561083957600080fd5b5061085e610848366004614d45565b6101a26020526000908152604090205460070b81565b60405160079190910b8152602001610293565b34801561087d57600080fd5b5061085e61088c366004614d45565b6122c6565b34801561089d57600080fd5b506102bc6108ac36600461472d565b6001600160a01b03918216600090815260666020908152604080832093909416825291909152205460ff1690565b3480156108e657600080fd5b506102bc6122da565b3480156108fb57600080fd5b506102896122e5565b34801561091057600080fd5b5061034e61091f366004614804565b612306565b34801561093057600080fd5b5061034e61093f366004614713565b61234b565b34801561095057600080fd5b5061034e61095f3660046149d9565b6123c1565b34801561097057600080fd5b5061034e61097f366004614cc2565b61244b565b60006001600160a01b0383166109f45760405162461bcd60e51b815260206004820152602a60248201527f455243313135353a2061646472657373207a65726f206973206e6f742061207660448201526930b634b21037bbb732b960b11b60648201526084015b60405180910390fd5b5060008181526065602090815260408083206001600160a01b03861684529091529020545b92915050565b60006001600160e01b03198216636cdb3d1360e11b1480610a5057506001600160e01b031982166303a24d0760e21b145b80610a1957506301ffc9a760e01b6001600160e01b0319831614610a19565b6000818152610195602052604090205480610ad85760405162461bcd60e51b815260206004820152602360248201527f5468652072657175657374656420746f6b656e20646f6573206e6f742065786960448201526239ba1760e91b60648201526084016109eb565b919050565b6101918054610aeb90615518565b80601f0160208091040260200160405190810160405280929190818152602001828054610b1790615518565b8015610b645780601f10610b3957610100808354040283529160200191610b64565b820191906000526020600020905b815481529060010190602001808311610b4757829003601f168201915b505050505081565b600081815261019360205260409020805460609190610b8a90615518565b80601f0160208091040260200160405190810160405280929190818152602001828054610bb690615518565b8015610c035780601f10610bd857610100808354040283529160200191610c03565b820191906000526020600020905b815481529060010190602001808311610be657829003601f168201915b50505050509050805160001415610ad85760006008610c25600d61010061548f565b610c2f91906154c9565b60ff166001610c40600860026153e4565b610c4a91906154b2565b901b831690506008610c5f600d61010061548f565b610c6991906154c9565b60ff166001901b811480610cbe57506008610c87600d61010061548f565b610c9191906154c9565b600a60ff919091161b6008610ca9600d61010061548f565b610cb391906154c9565b60ff166001901b1781145b15610e855760006008610cd4600d61010061548f565b610cde91906154c9565b600160ff919091161b6008610cf6600d61010061548f565b610d0091906154c9565b60ff166001610d11600860026153e4565b610d1b91906154b2565b901b19600160088160038083610d34600d61010061548f565b610d3e91906154c9565b610d4891906154c9565b610d5291906154c9565b610d5c91906154c9565b610d6691906154c9565b610d7091906154c9565b60ff166001610d808160026153e4565b610d8a91906154b2565b901b6003806008610d9e600d61010061548f565b610da891906154c9565b610db291906154c9565b610dbc91906154c9565b60ff166001901b1719600160206002610dd591906153e4565b610ddf91906154b2565b198716161617600081815261019360205260409020805491925090610e0390615518565b80601f0160208091040260200160405190810160405280929190818152602001828054610e2f90615518565b8015610e7c5780601f10610e5157610100808354040283529160200191610e7c565b820191906000526020600020905b815481529060010190602001808311610e5f57829003601f168201915b50505050509250505b50919050565b60005b8351811015610edc57610ecb848281518110610eba57634e487b7160e01b600052603260045260246000fd5b602002602001015184600185611c92565b50610ed581615579565b9050610e8e565b50505050565b600082604051602001610ef59190614e5c565b60408051601f19818403018152918152815160209283012060009081526101a4909252902060079290920b9091555050565b610f33828260006124c5565b5050565b6000610a198260006114d7565b600080610f5085610f37565b90506000836008610f64600d61010061548f565b610f6e91906154c9565b600a60ff919091161b8317176000818152610195602052604090205490915015610f9b57915061132b9050565b6000604051806101000160405280866001600860016003806008600d60ff16610100610fc7919061548f565b610fd191906154c9565b610fdb91906154c9565b610fe591906154c9565b610fef91906154c9565b610ff991906154c9565b61100391906154c9565b60ff1660016110138160026153e4565b61101d91906154b2565b901b6003806008611031600d61010061548f565b61103b91906154c9565b61104591906154c9565b61104f91906154c9565b600160ff919091161b871717178152602001866003806008611074600d61010061548f565b61107e91906154c9565b61108891906154c9565b61109291906154c9565b60ff166001901b86171781526020016001600860016003806008600d60ff166101006110be919061548f565b6110c891906154c9565b6110d291906154c9565b6110dc91906154c9565b6110e691906154c9565b6110f091906154c9565b6110fa91906154c9565b60ff16600161110a8160026153e4565b61111491906154b2565b901b6003806008611128600d61010061548f565b61113291906154c9565b61113c91906154c9565b61114691906154c9565b600160ff919091161b86171781526020016003806008611169600d61010061548f565b61117391906154c9565b61117d91906154c9565b61118791906154c9565b60ff166001901b85178152602001866001600860016003806008600d60ff166101006111b3919061548f565b6111bd91906154c9565b6111c791906154c9565b6111d191906154c9565b6111db91906154c9565b6111e591906154c9565b6111ef91906154c9565b60ff1660016111ff8160026153e4565b61120991906154b2565b901b8617178152602001600160088160038083611229600d61010061548f565b61123391906154c9565b61123d91906154c9565b61124791906154c9565b61125191906154c9565b61125b91906154c9565b61126591906154c9565b60ff1660016112758160026153e4565b61127f91906154b2565b901b851781528685176020820152604001849052905060005b60088160ff1610156113225760006112d788848460ff16600881106112cd57634e487b7160e01b600052603260045260246000fd5b6020020151610984565b111561131057818160ff166008811061130057634e487b7160e01b600052603260045260246000fd5b602002015194505050505061132b565b8061131a81615594565b915050611298565b50600093505050505b9392505050565b6000610a198233611fb8565b6001600160a01b03851633148061135a575061135a85336108ac565b6113765760405162461bcd60e51b81526004016109eb90614fff565b611383858585858561258f565b5050505050565b6001600160a01b0382166000908152610196602052604081205482106113c25760405162461bcd60e51b81526004016109eb90615220565b6001600160a01b0383166000908152610196602052604090208054839081106113fb57634e487b7160e01b600052603260045260246000fd5b9060005260206000200154905092915050565b306001600160a01b037f00000000000000000000000000000000000000000000000000000000000000001614156114575760405162461bcd60e51b81526004016109eb906150da565b7f00000000000000000000000000000000000000000000000000000000000000006001600160a01b0316611489612746565b6001600160a01b0316146114af5760405162461bcd60e51b81526004016109eb90615114565b6114b881612762565b604080516000808252602082019092526114d4918391906127e8565b50565b60006114e5602060026153e4565b82106114f16020612962565b6040516020016115019190614e93565b6040516020818303038152906040529061152e5760405162461bcd60e51b81526004016109eb9190614fec565b5081600184600c81111561155257634e487b7160e01b600052602160045260246000fd5b1461155e5760006115b7565b60016003806008611572600d61010061548f565b61157c91906154c9565b61158691906154c9565b61159091906154c9565b61159a91906154c9565b60ff1660016115aa8160026153e4565b6115b491906154b2565b901b5b60086001600380836115cc600d61010061548f565b6115d691906154c9565b6115e091906154c9565b6115ea91906154c9565b6115f491906154c9565b6115fe91906154c9565b60ff1685600c81111561162157634e487b7160e01b600052602160045260246000fd5b901b6008611632600d61010061548f565b61163c91906154c9565b60ff166001901b171717905092915050565b6000818152610195602052604081205461166b9085908590610f44565b1515949350505050565b600061132b83338461164e565b600061132b338484611fde565b600054610100900460ff16158080156116af5750600054600160ff909116105b806116d057506116be306124b6565b1580156116d0575060005460ff166001145b6117335760405162461bcd60e51b815260206004820152602e60248201527f496e697469616c697a61626c653a20636f6e747261637420697320616c72656160448201526d191e481a5b9a5d1a585b1a5e995960921b60648201526084016109eb565b6000805460ff191660011790558015611756576000805461ff0019166101001790555b61175e612a7b565b61179c6040518060400160405280602081526020017f4572726f723a2053696e676c6520546f6b656e20555249204e6f742055736564815250612aaa565b6117a4612ada565b6117ac612ada565b6117b4612ada565b6101948054600181018255600091825260008051602061570183398151915201556117e185858585611c13565b8015611383576000805461ff0019169055604051600181527f7f26b83ff96e1f2b6a682f133852f6798a09c465da95921460cefb38474024989060200160405180910390a15050505050565b606081518351146118925760405162461bcd60e51b815260206004820152602960248201527f455243313135353a206163636f756e747320616e6420696473206c656e677468604482015268040dad2e6dac2e8c6d60bb1b60648201526084016109eb565b600083516001600160401b038111156118bb57634e487b7160e01b600052604160045260246000fd5b6040519080825280602002602001820160405280156118e4578160200160208202803683370190505b50905060005b84518110156119865761194b85828151811061191657634e487b7160e01b600052603260045260246000fd5b602002602001015185838151811061193e57634e487b7160e01b600052603260045260246000fd5b6020026020010151610984565b82828151811061196b57634e487b7160e01b600052603260045260246000fd5b602090810291909101015261197f81615579565b90506118ea565b509392505050565b306001600160a01b037f00000000000000000000000000000000000000000000000000000000000000001614156119d75760405162461bcd60e51b81526004016109eb906150da565b7f00000000000000000000000000000000000000000000000000000000000000006001600160a01b0316611a09612746565b6001600160a01b031614611a2f5760405162461bcd60e51b81526004016109eb90615114565b611a3882612762565b610f33828260016127e8565b600080611a508361223e565b1192915050565b6000808211611abb5760405162461bcd60e51b815260206004820152602a60248201527f4552432d3131353520456e756d657261626c653a20746f6b656e7320696e64656044820152697865642066726f6d203160b01b60648201526084016109eb565b61019454821115611ade5760405162461bcd60e51b81526004016109eb90615220565b610194805483908110611b0157634e487b7160e01b600052603260045260246000fd5b90600052602060002001549050919050565b6000306001600160a01b037f00000000000000000000000000000000000000000000000000000000000000001614611bae5760405162461bcd60e51b815260206004820152603860248201527f555550535570677261646561626c653a206d757374206e6f742062652063616c6044820152771b1959081d1a1c9bdd59da0819195b1959d85d1958d85b1b60421b60648201526084016109eb565b506000805160206157418339815191525b90565b610edc84848415611bdb57611bd685610a6f565b611bde565b60005b846000612b01565b610f338282600080611bc2565b61019781600b8110611c0457600080fd5b018054909150610aeb90615518565b611c1b612d2d565b611c2861019185856143cc565b5061138361019283836143cc565b6001600160a01b038316331480611c525750611c5283336108ac565b611c6e5760405162461bcd60e51b81526004016109eb90614fff565b611c79838383612d8c565b505050565b611c86612d2d565b611c906000612f35565b565b6000600160088160038083611caa600d61010061548f565b611cb491906154c9565b611cbe91906154c9565b611cc891906154c9565b611cd291906154c9565b611cdc91906154c9565b611ce691906154c9565b60ff166001611cf68160026153e4565b611d0091906154b2565b901b600160088160038083611d18600d61010061548f565b611d2291906154c9565b611d2c91906154c9565b611d3691906154c9565b611d4091906154c9565b611d4a91906154c9565b611d5491906154c9565b60ff166001611d648160026153e4565b611d6e91906154b2565b901b85161415611dd25760405162461bcd60e51b815260206004820152602960248201527f43616e6e6f74206d696e7420696e7465726e616c20746f6b656e732066726f6d6044820152681037baba39b4b2329760b91b60648201526084016109eb565b60016003806008611de6600d61010061548f565b611df091906154c9565b611dfa91906154c9565b611e0491906154c9565b611e0e91906154c9565b60ff166001901b60016003806008600d60ff16610100611e2e919061548f565b611e3891906154c9565b611e4291906154c9565b611e4c91906154c9565b611e5691906154c9565b60ff166001901b8516148015611e7557506000611e738686610984565b115b15611e8257506000611e92565b611e8e85858585612f87565b5060015b949350505050565b611c798383600084611bc2565b611eb2600584611675565b80611ec05750611ec06122da565b611f295760405162461bcd60e51b815260206004820152603460248201527f596f75206d7573742068617665206120436f6e6669677572657220746f6b656e604482015273103a379031b430b733b29036b2ba30b230ba309760611b60648201526084016109eb565b600083815261019360205260409020611f439083836143cc565b50827f6bb7ff708619ba0610cba295a58592e0451dee2622938c8755667688daf3529b8383604051611f76929190614fbd565b60405180910390a2505050565b6097546001600160a01b031690565b6101928054610aeb90615518565b61019454600090611fb3906001906154b2565b905090565b600061132b8383600061164e565b610f3333838361309a565b611c798383836000611bc2565b61019454600090806008611ff5600d61010061548f565b611fff91906154c9565b60ff166009901b179150612014600783611675565b8061202257506120226122da565b61208a5760405162461bcd60e51b815260206004820152603360248201527f596f75206d757374206861766520612043726561746f7220746f6b656e20746f6044820152721031b932b0ba32903732bb903a37b5b2b7399760691b60648201526084016109eb565b610194805460018101909155600080516020615701833981519152018290556000828152610195602052604081208290555b845181101561210d576120fb8582815181106120e857634e487b7160e01b600052603260045260246000fd5b6020026020010151878460006001612b01565b8061210581615579565b9150506120bc565b5060005b835181101561215d5761214b84828151811061213d57634e487b7160e01b600052603260045260246000fd5b60200260200101518361244b565b8061215581615579565b915050612111565b50604080518381526001600160a01b03871660208201527f7757890bcab34d673dfca6b71df1b57f75a2fe4231d6e8de726caf534ab1fdd6910160405180910390a160006121ae6007336000610f44565b905060038060086121c2600d61010061548f565b6121cc91906154c9565b6121d691906154c9565b6121e091906154c9565b600160ff919091161b60038060086121fb600d61010061548f565b61220591906154c9565b61220f91906154c9565b61221991906154c9565b60ff166001901b8216141561223557612235335b82600161317b565b50509392505050565b600090815260fb602052604090205490565b600061225d600183611fb8565b80610a19575061226b611f83565b6001600160a01b0316826001600160a01b03161492915050565b600080826040516020016122999190614e5c565b60408051601f19818403018152918152815160209283012060009081526101a49092529020549392505050565b600080826040516020016122999190614e7c565b6000611fb333612250565b60408051600080825260208201909252612300338283611fde565b91505090565b6001600160a01b038516331480612322575061232285336108ac565b61233e5760405162461bcd60e51b81526004016109eb90614fff565b6113838585858585613285565b612353612d2d565b6001600160a01b0381166123b85760405162461bcd60e51b815260206004820152602660248201527f4f776e61626c653a206e6577206f776e657220697320746865207a65726f206160448201526564647265737360d01b60648201526084016109eb565b6114d481612f35565b6123cd6009848461164e565b806123dc57506123dc83612250565b6124405760405162461bcd60e51b815260206004820152602f60248201527f596f75206d75737420686176652061204275726e657220746f6b656e20746f2060448201526e3232b9ba3937bc903a37b5b2b7399760891b60648201526084016109eb565b611c7983838361317b565b600061245783836114d7565b90506008612468600d61010061548f565b61247291906154c9565b610194805460018101909155600a60ff929092169190911b919091176000805160206157018339815191528201819055600090815261019560205260409020555050565b6001600160a01b03163b151590565b80612549576124d5600884611675565b806124e357506124e36122da565b6125495760405162461bcd60e51b815260206004820152603160248201527f596f75206d75737420686176652061204c696d6974657220746f6b656e20746f6044820152701031b430b733b29038bab0b73a34ba3c9760791b60648201526084016109eb565b60008360405160200161255c9190614e7c565b60408051601f19818403018152918152815160209283012060009081526101a4909252902060079390930b909255505050565b81518351146125b05760405162461bcd60e51b81526004016109eb906152b9565b6001600160a01b0384166125d65760405162461bcd60e51b81526004016109eb9061514e565b336125e58187878787876133af565b60005b84518110156126ea57600085828151811061261357634e487b7160e01b600052603260045260246000fd5b60200260200101519050600085838151811061263f57634e487b7160e01b600052603260045260246000fd5b60209081029190910181015160008481526065835260408082206001600160a01b038e1683529093529190912054909150818110156126905760405162461bcd60e51b81526004016109eb906151d6565b60008381526065602090815260408083206001600160a01b038e8116855292528083208585039055908b168252812080548492906126cf908490615375565b92505081905550505050806126e390615579565b90506125e8565b50846001600160a01b0316866001600160a01b0316826001600160a01b03166000805160206156c18339815191528787604051612728929190614f98565b60405180910390a461273e818787878787613ce2565b505050505050565b600080516020615741833981519152546001600160a01b031690565b61276c6006611332565b8061277a575061277a6122da565b6114d45760405162461bcd60e51b815260206004820152603960248201527f596f75206d75737420686176652061204d61696e7461696e657220746f6b656e604482015278103a37903ab833b930b232903a34329031b7b73a3930b1ba1760391b60648201526084016109eb565b7f4910fdfa16fed3260ed0e7147f7cc6da11a60208b5b9406d12a635614ffd91435460ff161561281b57611c7983613e54565b826001600160a01b03166352d1902d6040518163ffffffff1660e01b815260040160206040518083038186803b15801561285457600080fd5b505afa925050508015612884575060408051601f3d908101601f1916820190925261288191810190614b74565b60015b6128e75760405162461bcd60e51b815260206004820152602e60248201527f45524331393637557067726164653a206e657720696d706c656d656e7461746960448201526d6f6e206973206e6f74205555505360901b60648201526084016109eb565b60008051602061574183398151915281146129565760405162461bcd60e51b815260206004820152602960248201527f45524331393637557067726164653a20756e737570706f727465642070726f786044820152681a58589b195555525160ba1b60648201526084016109eb565b50611c79838383613eee565b6060816129865750506040805180820190915260018152600360fc1b602082015290565b8160005b81156129b0578061299a81615579565b91506129a99050600a8361538d565b915061298a565b6000816001600160401b038111156129d857634e487b7160e01b600052604160045260246000fd5b6040519080825280601f01601f191660200182016040528015612a02576020820181803683370190505b5090505b8415611e9257612a176001836154b2565b9150612a24600a866155b4565b612a2f906030615375565b60f81b818381518110612a5257634e487b7160e01b600052603260045260246000fd5b60200101906001600160f81b031916908160001a905350612a74600a8661538d565b9450612a06565b600054610100900460ff16612aa25760405162461bcd60e51b81526004016109eb9061526e565b611c90613f13565b600054610100900460ff16612ad15760405162461bcd60e51b81526004016109eb9061526e565b6114d481613f43565b600054610100900460ff16611c905760405162461bcd60e51b81526004016109eb9061526e565b80612c2357600185600c811115612b2857634e487b7160e01b600052602160045260246000fd5b1415612ba357612b366122da565b612b9e5760405162461bcd60e51b815260206004820152603360248201527f596f75206d75737420626520612053757065727573657220746f206372656174604482015272329037ba3432b91029bab832b93ab9b2b9399760691b60648201526084016109eb565b612c23565b612bae600384611675565b80612bbc5750612bbc6122da565b612c235760405162461bcd60e51b815260206004820152603260248201527f596f75206d7573742068617665207468652043617374657220726f6c6520746f6044820152711030b9b9b4b3b7103732bb903937b632b99760711b60648201526084016109eb565b600082612c31576000612c69565b6003806008612c43600d61010061548f565b612c4d91906154c9565b612c5791906154c9565b612c6191906154c9565b60ff166001901b5b82612c75576000612ce4565b600160088160038083612c8b600d61010061548f565b612c9591906154c9565b612c9f91906154c9565b612ca991906154c9565b612cb391906154c9565b612cbd91906154c9565b612cc791906154c9565b60ff166001612cd78160026153e4565b612ce191906154b2565b901b5b612cee88876114d7565b17179050612d1181612cff836122c6565b612d0a906001615324565b60016124c5565b61273e8582600160405180602001604052806000815250612f87565b33612d36611f83565b6001600160a01b031614611c905760405162461bcd60e51b815260206004820181905260248201527f4f776e61626c653a2063616c6c6572206973206e6f7420746865206f776e657260448201526064016109eb565b6001600160a01b038316612db25760405162461bcd60e51b81526004016109eb90615193565b8051825114612dd35760405162461bcd60e51b81526004016109eb906152b9565b6000339050612df6818560008686604051806020016040528060008152506133af565b60005b8351811015612eda576000848281518110612e2457634e487b7160e01b600052603260045260246000fd5b602002602001015190506000848381518110612e5057634e487b7160e01b600052603260045260246000fd5b60209081029190910181015160008481526065835260408082206001600160a01b038c168352909352919091205490915081811015612ea15760405162461bcd60e51b81526004016109eb90615096565b60009283526065602090815260408085206001600160a01b038b1686529091529092209103905580612ed281615579565b915050612df9565b5060006001600160a01b0316846001600160a01b0316826001600160a01b03166000805160206156c18339815191528686604051612f19929190614f98565b60405180910390a4604080516020810190915260009052610edc565b609780546001600160a01b038381166001600160a01b0319831681179093556040519116919082907f8be0079c531659141344cd1fd0a4f28419497f9722a3daafe3b4186f6b6457e090600090a35050565b6001600160a01b038416612fe75760405162461bcd60e51b815260206004820152602160248201527f455243313135353a206d696e7420746f20746865207a65726f206164647265736044820152607360f81b60648201526084016109eb565b336000612ff385613f73565b9050600061300085613f73565b9050613011836000898585896133af565b60008681526065602090815260408083206001600160a01b038b16845290915281208054879290613043908490615375565b909155505060408051878152602081018790526001600160a01b03808a1692600092918716916000805160206156e1833981519152910160405180910390a461309183600089898989613fcc565b50505050505050565b816001600160a01b0316836001600160a01b0316141561310e5760405162461bcd60e51b815260206004820152602960248201527f455243313135353a2073657474696e6720617070726f76616c20737461747573604482015268103337b91039b2b63360b91b60648201526084016109eb565b6001600160a01b03838116600081815260666020908152604080832094871680845294825291829020805460ff191686151590811790915591519182527f17307eab39ab6107e8899845ad3d59bd9653f200f220920489ca2b5937696c31910160405180910390a3505050565b6001600160a01b0383166131a15760405162461bcd60e51b81526004016109eb90615193565b3360006131ad84613f73565b905060006131ba84613f73565b90506131da838760008585604051806020016040528060008152506133af565b60008581526065602090815260408083206001600160a01b038a1684529091529020548481101561321d5760405162461bcd60e51b81526004016109eb90615096565b60008681526065602090815260408083206001600160a01b038b81168086529184528285208a8703905582518b81529384018a90529092908816916000805160206156e1833981519152910160405180910390a4604080516020810190915260009052613091565b6001600160a01b0384166132ab5760405162461bcd60e51b81526004016109eb9061514e565b3360006132b785613f73565b905060006132c485613f73565b90506132d48389898585896133af565b60008681526065602090815260408083206001600160a01b038c168452909152902054858110156133175760405162461bcd60e51b81526004016109eb906151d6565b60008781526065602090815260408083206001600160a01b038d8116855292528083208985039055908a16825281208054889290613356908490615375565b909155505060408051888152602081018890526001600160a01b03808b16928c821692918816916000805160206156e1833981519152910160405180910390a46133a4848a8a8a8a8a613fcc565b505050505050505050565b6133b76122da565b61391a5760005b8351811015613918576001600881600380836133dd600d61010061548f565b6133e791906154c9565b6133f191906154c9565b6133fb91906154c9565b61340591906154c9565b61340f91906154c9565b61341991906154c9565b60ff1660016134298160026153e4565b61343391906154b2565b901b60016008816003808361344b600d61010061548f565b61345591906154c9565b61345f91906154c9565b61346991906154c9565b61347391906154c9565b61347d91906154c9565b61348791906154c9565b60ff1660016134978160026153e4565b6134a191906154b2565b901b8583815181106134c357634e487b7160e01b600052603260045260246000fd5b602002602001015116146139085760006001600160a01b038716156134e95760046134ec565b60025b9050600281600c81111561351057634e487b7160e01b600052602160045260246000fd5b141561386a57600061354886848151811061353b57634e487b7160e01b600052603260045260246000fd5b60200260200101516122c6565b60070b126136265761357385838151811061353b57634e487b7160e01b600052603260045260246000fd5b60070b84838151811061359657634e487b7160e01b600052603260045260246000fd5b60200260200101516135ce8785815181106135c157634e487b7160e01b600052603260045260246000fd5b602002602001015161223e565b6135d89190615375565b13156136265760405162461bcd60e51b815260206004820181905260248201527f4d6178696d756d206d696e7420616c6c6f77616e63652065786365656465642e60448201526064016109eb565b6008613635600d61010061548f565b61363f91906154c9565b600160ff919091161b6008613657600d61010061548f565b61366191906154c9565b60ff166001613672600860026153e4565b61367c91906154b2565b901b86848151811061369e57634e487b7160e01b600052603260045260246000fd5b6020026020010151161415613758576136df60038684815181106136d257634e487b7160e01b600052603260045260246000fd5b6020026020010151611675565b806136ed57506136ed6122da565b6137535760405162461bcd60e51b815260206004820152603160248201527f596f75206d757374206861766520612043617374657220746f6b656e20746f2060448201527036b4b73a103a37b5b2b71033b0ba32b99760791b60648201526084016109eb565b613906565b600061378f82336103cb89878151811061378257634e487b7160e01b600052603260045260246000fd5b6020026020010151610a6f565b90506137b5828785815181106136d257634e487b7160e01b600052603260045260246000fd5b61381a5760405162461bcd60e51b815260206004820152603060248201527f596f75206d75737420686176652061204d696e74657220746f6b656e20746f2060448201526f33b2b732b930ba32903a37b5b2b7399760811b60648201526084016109eb565b6000600380600861382e600d61010061548f565b61383891906154c9565b61384291906154c9565b61384c91906154c9565b60ff166001901b82161115613864576138643361222d565b50613906565b6001600160a01b038616156139065761389d818684815181106136d257634e487b7160e01b600052603260045260246000fd5b6139065760405162461bcd60e51b815260206004820152603460248201527f596f75206d75737420686176652061205472616e73666572657220746f6b656e604482015273103a37903a3930b739b332b9103a37b5b2b7399760611b60648201526084016109eb565b505b61391181615579565b90506133be565b505b6001600160a01b03841615613b405760005b8351811015613b3e57610194600101600085838151811061395d57634e487b7160e01b600052603260045260246000fd5b602002602001015181526020019081526020016000205460001415613a09576101946000018482815181106139a257634e487b7160e01b600052603260045260246000fd5b60209081029190910181015182546001810184556000938452918320909101556101945485519091610195918790859081106139ee57634e487b7160e01b600052603260045260246000fd5b60200260200101518152602001908152602001600020819055505b6101966000866001600160a01b03166001600160a01b031681526020019081526020016000206001016000858381518110613a5457634e487b7160e01b600052603260045260246000fd5b602002602001015181526020019081526020016000205460001415613b2e576001600160a01b0385166000908152610196602052604090208451859083908110613aae57634e487b7160e01b600052603260045260246000fd5b6020908102919091018101518254600181810185556000948552838520909101919091556001600160a01b0388168352610196909152604082208054875190939190920191879085908110613b1357634e487b7160e01b600052603260045260246000fd5b60200260200101518152602001908152602001600020819055505b613b3781615579565b905061392c565b505b6001600160a01b03851615613cd45760005b8351811015613cd257828181518110613b7b57634e487b7160e01b600052603260045260246000fd5b6020026020010151613ba78786848151811061193e57634e487b7160e01b600052603260045260246000fd5b11613cc2576001600160a01b03861660009081526101966020526040812085516001918201908390889086908110613bef57634e487b7160e01b600052603260045260246000fd5b6020026020010151815260200190815260200160002054613c1091906154b2565b6001600160a01b03881660009081526101966020526040902080549192509082908110613c4d57634e487b7160e01b600052603260045260246000fd5b90600052602060002001600090556101966000886001600160a01b03166001600160a01b031681526020019081526020016000206001016000868481518110613ca657634e487b7160e01b600052603260045260246000fd5b6020026020010151815260200190815260200160002060009055505b613ccb81615579565b9050613b52565b505b61273e86868686868661409d565b613cf4846001600160a01b03166124b6565b1561273e5760405163bc197c8160e01b81526001600160a01b0385169063bc197c8190613d2d9089908990889088908890600401614ee2565b602060405180830381600087803b158015613d4757600080fd5b505af1925050508015613d77575060408051601f3d908101601f19168201909252613d7491810190614ba8565b60015b613e2457613d8361560a565b806308c379a01415613dbd5750613d98615621565b80613da35750613dbf565b8060405162461bcd60e51b81526004016109eb9190614fec565b505b60405162461bcd60e51b815260206004820152603460248201527f455243313135353a207472616e7366657220746f206e6f6e20455243313135356044820152732932b1b2b4bb32b91034b6b83632b6b2b73a32b960611b60648201526084016109eb565b6001600160e01b0319811663bc197c8160e01b146130915760405162461bcd60e51b81526004016109eb9061504e565b613e5d816124b6565b613ebf5760405162461bcd60e51b815260206004820152602d60248201527f455243313936373a206e657720696d706c656d656e746174696f6e206973206e60448201526c1bdd08184818dbdb9d1c9858dd609a1b60648201526084016109eb565b60008051602061574183398151915280546001600160a01b0319166001600160a01b0392909216919091179055565b613ef78361424e565b600082511180613f045750805b15611c7957610edc838361428e565b600054610100900460ff16613f3a5760405162461bcd60e51b81526004016109eb9061526e565b611c9033612f35565b600054610100900460ff16613f6a5760405162461bcd60e51b81526004016109eb9061526e565b6114d481614380565b60408051600180825281830190925260609160009190602080830190803683370190505090508281600081518110613fbb57634e487b7160e01b600052603260045260246000fd5b602090810291909101015292915050565b613fde846001600160a01b03166124b6565b1561273e5760405163f23a6e6160e01b81526001600160a01b0385169063f23a6e61906140179089908990889088908890600401614f40565b602060405180830381600087803b15801561403157600080fd5b505af1925050508015614061575060408051601f3d908101601f1916820190925261405e91810190614ba8565b60015b61406d57613d8361560a565b6001600160e01b0319811663f23a6e6160e01b146130915760405162461bcd60e51b81526004016109eb9061504e565b6001600160a01b0385166141405760005b835181101561413e578281815181106140d757634e487b7160e01b600052603260045260246000fd5b602002602001015160fb600086848151811061410357634e487b7160e01b600052603260045260246000fd5b6020026020010151815260200190815260200160002060008282546141289190615375565b90915550614137905081615579565b90506140ae565b505b6001600160a01b03841661273e5760005b835181101561309157600084828151811061417c57634e487b7160e01b600052603260045260246000fd5b6020026020010151905060008483815181106141a857634e487b7160e01b600052603260045260246000fd5b60200260200101519050600060fb60008481526020019081526020016000205490508181101561422b5760405162461bcd60e51b815260206004820152602860248201527f455243313135353a206275726e20616d6f756e74206578636565647320746f74604482015267616c537570706c7960c01b60648201526084016109eb565b600092835260fb60205260409092209103905561424781615579565b9050614151565b61425781613e54565b6040516001600160a01b038216907fbc7cd75a20ee27fd9adebab32041f755214dbc6bffa90cc0225b39da2e5c2d3b90600090a250565b6060614299836124b6565b6142f45760405162461bcd60e51b815260206004820152602660248201527f416464726573733a2064656c65676174652063616c6c20746f206e6f6e2d636f6044820152651b9d1c9858dd60d21b60648201526084016109eb565b600080846001600160a01b03168460405161430f9190614e40565b600060405180830381855af49150503d806000811461434a576040519150601f19603f3d011682016040523d82523d6000602084013e61434f565b606091505b5091509150614377828260405180606001604052806027815260200161576160279139614393565b95945050505050565b8051610f33906067906020840190614450565b606083156143a257508161132b565b8251156143b25782518084602001fd5b8160405162461bcd60e51b81526004016109eb9190614fec565b8280546143d890615518565b90600052602060002090601f0160209004810192826143fa5760008555614440565b82601f106144135782800160ff19823516178555614440565b82800160010185558215614440579182015b82811115614440578235825591602001919060010190614425565b5061444c9291506144c4565b5090565b82805461445c90615518565b90600052602060002090601f01602090048101928261447e5760008555614440565b82601f1061449757805160ff1916838001178555614440565b82800160010185558215614440579182015b828111156144405782518255916020019190600101906144a9565b5b8082111561444c57600081556001016144c5565b80356001600160a01b0381168114610ad857600080fd5b600082601f830112614500578081fd5b8135602061450d82615301565b60405161451a828261554d565b8381528281019150858301600585901b87018401881015614539578586fd5b855b8581101561455e5761454c826144d9565b8452928401929084019060010161453b565b5090979650505050505050565b600082601f83011261457b578081fd5b8135602061458882615301565b604051614595828261554d565b8381528281019150858301600585901b870184018810156145b4578586fd5b855b8581101561455e576145c7826146be565b845292840192908401906001016145b6565b600082601f8301126145e9578081fd5b813560206145f682615301565b604051614603828261554d565b8381528281019150858301600585901b87018401881015614622578586fd5b855b8581101561455e57813584529284019290840190600101614624565b80358015158114610ad857600080fd5b600082601f830112614660578081fd5b81356001600160401b03811115614679576146796155f4565b604051614690601f8301601f19166020018261554d565b8181528460208386010111156146a4578283fd5b816020850160208301379081016020019190915292915050565b8035600d8110610ad857600080fd5b60008083601f8401126146de578182fd5b5081356001600160401b038111156146f4578182fd5b60208301915083602082850101111561470c57600080fd5b9250929050565b600060208284031215614724578081fd5b61132b826144d9565b6000806040838503121561473f578081fd5b614748836144d9565b9150614756602084016144d9565b90509250929050565b600080600080600060a08688031215614776578081fd5b61477f866144d9565b945061478d602087016144d9565b935060408601356001600160401b03808211156147a8578283fd5b6147b489838a016145d9565b945060608801359150808211156147c9578283fd5b6147d589838a016145d9565b935060808801359150808211156147ea578283fd5b506147f788828901614650565b9150509295509295909350565b600080600080600060a0868803121561481b578081fd5b614824866144d9565b9450614832602087016144d9565b9350604086013592506060860135915060808601356001600160401b0381111561485a578182fd5b6147f788828901614650565b60008060006060848603121561487a578283fd5b614883846144d9565b925060208401356001600160401b038082111561489e578384fd5b6148aa8783880161456b565b935060408601359150808211156148bf578283fd5b506148cc8682870161456b565b9150509250925092565b6000806000606084860312156148ea578081fd5b6148f3846144d9565b925060208401356001600160401b038082111561490e578283fd5b61491a878388016145d9565b9350604086013591508082111561492f578283fd5b506148cc868287016145d9565b6000806040838503121561494e578182fd5b614957836144d9565b915061475660208401614640565b60008060408385031215614977578182fd5b614980836144d9565b915060208301356001600160401b0381111561499a578182fd5b6149a685828601614650565b9150509250929050565b600080604083850312156149c2578182fd5b6149cb836144d9565b946020939093013593505050565b6000806000606084860312156149ed578081fd5b6149f6846144d9565b95602085013595506040909401359392505050565b60008060008060808587031215614a20578182fd5b614a29856144d9565b9350602085013592506040850135915060608501356001600160401b03811115614a51578182fd5b614a5d87828801614650565b91505092959194509250565b60008060408385031215614a7b578182fd5b82356001600160401b0380821115614a91578384fd5b614a9d868387016144f0565b93506020850135915080821115614ab2578283fd5b506149a6858286016145d9565b600080600060608486031215614ad3578081fd5b83356001600160401b0380821115614ae9578283fd5b614af5878388016144f0565b9450602086013593506040860135915080821115614b11578283fd5b506148cc86828701614650565b60008060408385031215614b30578182fd5b82356001600160401b0380821115614b46578384fd5b614b528683870161456b565b93506020850135915080821115614b67578283fd5b506149a68582860161456b565b600060208284031215614b85578081fd5b5051919050565b600060208284031215614b9d578081fd5b813561132b816156aa565b600060208284031215614bb9578081fd5b815161132b816156aa565b600060208284031215614bd5578081fd5b61132b826146be565b60008060408385031215614bf0578182fd5b614748836146be565b600080600060608486031215614c0d578081fd5b614c16846146be565b9250614c24602085016144d9565b9150614c3260408501614640565b90509250925092565b600080600060608486031215614c4f578081fd5b614c58846146be565b9250614c66602085016144d9565b9150604084013590509250925092565b60008060008060808587031215614c8b578182fd5b614c94856146be565b9350614ca2602086016144d9565b925060408501359150614cb760608601614640565b905092959194509250565b60008060408385031215614cd4578182fd5b6149cb836146be565b60008060008060408587031215614cf2578182fd5b84356001600160401b0380821115614d08578384fd5b614d14888389016146cd565b90965094506020870135915080821115614d2c578384fd5b50614d39878288016146cd565b95989497509550505050565b600060208284031215614d56578081fd5b5035919050565b60008060408385031215614d6f578182fd5b8235915060208301358060070b8114614d86578182fd5b809150509250929050565b600080600060408486031215614da5578081fd5b8335925060208401356001600160401b03811115614dc1578182fd5b614dcd868287016146cd565b9497909650939450505050565b6000815180845260208085019450808401835b83811015614e0957815187529582019590820190600101614ded565b509495945050505050565b60008151808452614e2c8160208601602086016154ec565b601f01601f19169290920160200192915050565b60008251614e528184602087016154ec565b9190910192915050565b6b0e0cae440eae6cae440dac2f60a31b8152600c810191909152602c0190565b620dac2f60eb1b8152600381019190915260230190565b76024b73234b1b2b99031b0b71031329030ba1036b7b9ba1604d1b815260008251614ec58160178501602087016154ec565b65103134ba399760d11b6017939091019283015250601d01919050565b6001600160a01b0386811682528516602082015260a060408201819052600090614f0e90830186614dda565b8281036060840152614f208186614dda565b90508281036080840152614f348185614e14565b98975050505050505050565b6001600160a01b03868116825285166020820152604081018490526060810183905260a060808201819052600090614f7a90830184614e14565b979650505050505050565b60208152600061132b6020830184614dda565b604081526000614fab6040830185614dda565b82810360208401526143778185614dda565b60208152816020820152818360408301376000818301604090810191909152601f909201601f19160101919050565b60208152600061132b6020830184614e14565b6020808252602f908201527f455243313135353a2063616c6c6572206973206e6f7420746f6b656e206f776e60408201526e195c881b9bdc88185c1c1c9bdd9959608a1b606082015260800190565b60208082526028908201527f455243313135353a204552433131353552656365697665722072656a656374656040820152676420746f6b656e7360c01b606082015260800190565b60208082526024908201527f455243313135353a206275726e20616d6f756e7420657863656564732062616c604082015263616e636560e01b606082015260800190565b6020808252602c9082015260008051602061572183398151915260408201526b19195b1959d85d1958d85b1b60a21b606082015260800190565b6020808252602c9082015260008051602061572183398151915260408201526b6163746976652070726f787960a01b606082015260800190565b60208082526025908201527f455243313135353a207472616e7366657220746f20746865207a65726f206164604082015264647265737360d81b606082015260800190565b60208082526023908201527f455243313135353a206275726e2066726f6d20746865207a65726f206164647260408201526265737360e81b606082015260800190565b6020808252602a908201527f455243313135353a20696e73756666696369656e742062616c616e636520666f60408201526939103a3930b739b332b960b11b606082015260800190565b6020808252602e908201527f4552432d3131353520456e756d657261626c653a20746f6b656e20696e64657860408201526d206f7574206f6620626f756e647360901b606082015260800190565b6020808252602b908201527f496e697469616c697a61626c653a20636f6e7472616374206973206e6f74206960408201526a6e697469616c697a696e6760a81b606082015260800190565b60208082526028908201527f455243313135353a2069647320616e6420616d6f756e7473206c656e677468206040820152670dad2e6dac2e8c6d60c31b606082015260800190565b60006001600160401b0382111561531a5761531a6155f4565b5060051b60200190565b6000600782810b9084900b828212801560016001603f1b038490038313161561534f5761534f6155c8565b60016001603f1b0319839003821281161561536c5761536c6155c8565b50019392505050565b60008219821115615388576153886155c8565b500190565b60008261539c5761539c6155de565b500490565b600181815b808511156153dc5781600019048211156153c2576153c26155c8565b808516156153cf57918102915b93841c93908002906153a6565b509250929050565b600061132b60ff8416836000826153fd57506001610a19565b8161540a57506000610a19565b8160018114615420576002811461542a57615446565b6001915050610a19565b60ff84111561543b5761543b6155c8565b50506001821b610a19565b5060208310610133831016604e8410600b8410161715615469575081810a610a19565b61547383836153a1565b8060001904821115615487576154876155c8565b029392505050565b600061ffff838116908316818110156154aa576154aa6155c8565b039392505050565b6000828210156154c4576154c46155c8565b500390565b600060ff821660ff8416808210156154e3576154e36155c8565b90039392505050565b60005b838110156155075781810151838201526020016154ef565b83811115610edc5750506000910152565b600181811c9082168061552c57607f821691505b60208210811415610e8557634e487b7160e01b600052602260045260246000fd5b601f8201601f191681016001600160401b0381118282101715615572576155726155f4565b6040525050565b600060001982141561558d5761558d6155c8565b5060010190565b600060ff821660ff8114156155ab576155ab6155c8565b60010192915050565b6000826155c3576155c36155de565b500690565b634e487b7160e01b600052601160045260246000fd5b634e487b7160e01b600052601260045260246000fd5b634e487b7160e01b600052604160045260246000fd5b600060033d1115611bbf57600481823e5160e01c90565b600060443d101561562f5790565b6040516003193d81016004833e81513d6001600160401b03808311602484018310171561565e57505050505090565b82850191508151818111156156765750505050505090565b843d87010160208285010111156156905750505050505090565b61569f6020828601018761554d565b509095945050505050565b6001600160e01b0319811681146114d457600080fdfe4a39dc06d4c0dbc64b70af90fd698a233a518aa5d07e595d983b8c0526c8f7fbc3d58168c5ae7397731d063d5bbf3d657854427343f4c083240f7aacaa2d0f62a6f1ac7ad7b125ba5a5e1c96b00ad6914f90a503b1ac3d85a9dadbb4c639df9246756e6374696f6e206d7573742062652063616c6c6564207468726f75676820360894a13ba1a3210667c828492db98dca3e2076cc3735a920a3ca505d382bbc416464726573733a206c6f772d6c6576656c2064656c65676174652063616c6c206661696c6564a264697066735822122036467ded85956b1503c918aa08daf659280f453d09f5865978545255546192d864736f6c63430008040033",
  "linkReferences": {},
  "deployedLinkReferences": {}
}